:1000000000200020F9000000B91D0000711D000053
:10001000711D0000711D0000711D0000711D0000A8
:10002000711D0000711D0000711D0000B91D000050
:10003000B91D0000711D0000392100003D220000A3
:10004000B91D0000B91D0000B91D0000B91D000058
:10005000B91D0000B91D0000B91D0000B91D000048
:10006000B91D0000B91D0000B91D0000B91D000038
:10007000B91D0000B91D0000B91D0000B91D000028
:10008000650B0000B91D00002D1E0000B91D000009
:10009000011F0000B91D0000B91D0000B91D0000BE
:1000A000B91D0000B91D0000B91D0000B91D0000F8
:1000B000B91D0000B91D0000B91D0000B91D0000E8
:1000C000B91D0000B91D0000B91D0000250E00007B
:1000D000B91D0000B91D0000B91D0000B91D0000C8
:1000E000B91D0000B91D0000B91D0000B91D0000B8
:1000F000B91D0000B91D0000554B4CF2205210B53F
:100100001A804DF628121A8000BF00BF01F058FE79
:10011000504B514A1A60514A5A60514A136813F4BD
:10012000807304D14F490B604FF4A85313604E4BBA
:100130001A78110703D51A7842F008021A704B4B4F
:100140004B492A221A704B4A4B4B8B4204D252F82D
:10015000040F43F8040BF8E7484B494900228B424F
:1001600002D243F8042BFAE74649474A002352F8E3
:10017000230041F8230001333E2BF8D1434B444A7E
:10018000802103F8011B9342FBD1424B3D4A1A6088
:10019000414B8A221A70A3F5805324225A70A02260
:1001A0001A709A799207FCD59A79D406FCD43B4A06
:1001B000937903F00C03082B384BF9D103221A7101
:1001C00040225A719A799006FCD5344A9179334B82
:1001D0004906FBD5324A3349116002215160202281
:1001E0001A709A7902F00C020C2AFAD12E4B2F4A7F
:1001F0001A602F4B45F6BF521A6000225A60072240
:1002000043F8042C2B4AC3F80C2D62B600F032FBE5
:10021000144B1B68DA0705D5274800F0B1FA274BC5
:10022000274A1A60274B1B785B0609D5234C244BC1
:1002300022689A4204D1204800F0A2FA00232360E9
:1002400002F032F801F0C2FD01F0C6FCFEE700BF8B
:100250000E20054038800440823F04000100002B3E
:1002600010D0034014D0034002D0074000E0074004
:1002700088EAFF1F3026000058E5FF1F88EAFF1FAD
:1002800050EDFF1F00E1FF1F0000000000E400E050
:100290002EE400E008ED00E000500640004006407B
:1002A000448004400000333304800440C010050043
:1002B00014E000E000002020409F8F5D1CE0034020
:1002C000A5C3945A00F00740FFFFFFFFFFFFFFFFA9
:1002D000FFFFFFFFFFFFFFFFFFFFFFFFFFFFFFFF2E
:1002E000FFFFFFFFFFFFFFFFFFFFFFFFFFFFFFFF1E
:1002F000FFFFFFFFFFFFFFFFFFFFFFFFFFFFFFFF0E
:10030000FFFFFFFFFFFFFFFFFFFFFFFFFFFFFFFFFD
:10031000FFFFFFFFFFFFFFFFFFFFFFFFFFFFFFFFED
:10032000FFFFFFFFFFFFFFFFFFFFFFFFFFFFFFFFDD
:10033000FFFFFFFFFFFFFFFFFFFFFFFFFFFFFFFFCD
:10034000FFFFFFFFFFFFFFFFFFFFFFFFFFFFFFFFBD
:10035000FFFFFFFFFFFFFFFFFFFFFFFFFFFFFFFFAD
:10036000FFFFFFFFFFFFFFFFFFFFFFFFFFFFFFFF9D
:10037000FFFFFFFFFFFFFFFFFFFFFFFFFFFFFFFF8D
:10038000FFFFFFFFFFFFFFFFFFFFFFFFFFFFFFFF7D
:10039000FFFFFFFFFFFFFFFFFFFFFFFFFFFFFFFF6D
:1003A000FFFFFFFFFFFFFFFFFFFFFFFFFFFFFFFF5D
:1003B000FFFFFFFFFFFFFFFFFFFFFFFFFFFFFFFF4D
:1003C000FFFFFFFFFFFFFFFFFFFFFFFFFFFFFFFF3D
:1003D000FFFFFFFFFFFFFFFFFFFFFFFFFFFFFFFF2D
:1003E000FFFFFFFFFFFFFFFFFFFFFFFFFFFFFFFF1D
:1003F000FFFFFFFFFFFFFFFFFFFFFFFFFFFFFFFF0D
:10040000FFFFFFFFFFFFFFFFFFFFFFFFDEF9FFFF23
:1004100010B5054C237833B9044B13B10448AFF33E
:1004200000800123237010BD88EAFF1F0000000038
:1004300034260000084B10B51BB108490848AFF33B
:1004400000800848036803B910BD074B002BFBD0A0
:10045000BDE81040184700BF000000008CEAFF1FF5
:100460003426000088EAFF1F0000000008B50D20B8
:10047000012100F0ABF94020BDE8084000F054BA7B
:10048000F8B5002504462E46012704E00135082D65
:1004900004F101040FD0212CF8DCE0B200F088F95F
:1004A0000028F3D007FA05F30135082D46EA0306C4
:1004B00004F10104EFD1F0B2F8BD00BF2DE9F04F17
:1004C0006D4EDFF8C8A13368DFF8C491DFF8C4814E
:1004D000DFF8C4B195B007460193019C33680293DD
:1004E000029B654D1B1B9F4263D904A8002101F0AC
:1004F0008FFA00280DDD9DF810100D2001F001018C
:1005000000F050F99DF811302A6803925A2B039C91
:1005100052D000F0F3FAC928E0D136238DF810301C
:1005200072B6564A7021412311708AF800300F21AB
:10053000802389F80010137013781B06FCD5D8F8B7
:10054000003062B60220190A1A0C8DF811301B0E09
:100550008DF812108DF814308DF81320FFF790FFEE
:100560008DF815000A20FFF78BFF8DF8160012207A
:10057000FFF786FF8DF817001A20FFF781FF8DF82F
:1005800018002220FFF77CFF102100238DF81900AE
:100590000DEB01008DF81A308DF81B308DF81C30F2
:1005A0008DF81D308DF81E308DF81F3000F032FAB6
:1005B00094E715B0BDE8F08F4022002104A801F0B7
:1005C0009BFE14238DF8103072B62C4B70211970DD
:1005D0000F22412080218AF8000089F800201A4665
:1005E000197013781906FCD5D8F8003062B68DF86A
:1005F0001130190A1A0C1B0E8DF812108DF81320E9
:100600008DF81430DBF800308DF81530190A1A0C0B
:100610001B0E8DF818301A4B8DF816108DF8172018
:100620001B688DF81930190A1A0C1B0E8DF81C3036
:10063000144B8DF81A108DF81B201B688DF81D3097
:10064000190A8DF81E10104A190C1B0E8DF81F1078
:100650008DF8203013688DF82130190A1A0C8DF8A6
:1006600022101B0E04A8FA218DF823208DF82430C7
:1006700001F014FA4DE700BFA4EAFF1F000002409A
:100680005C800440588004405480044007000240CD
:1006900006000240080002406080044008B50121C5
:1006A0000D2000F07FF84FF47A70FFF707FF0D2060
:1006B000002100F077F84FF47A70BDE80840FFF7AA
:1006C000FDBE00BF10B40F4B53F8302092F88042AB
:1006D0002CB1012369B182F8803010BC704703EB64
:1006E000C0035B681A6841B922F002021A6010BCAC
:1006F000704782F8003110BC704742F003021A6064
:1007000010BC7047802400001C4A02EBC003012982
:100710005B6811D004291BD052F83000002280F809
:10072000802229B1022920D0032922D01A607047E3
:100730004FF480721A60704752F830004FF4A27282
:1007400080F880121A601A6822F020021A6070473E
:1007500052F830104FF4A272012081F880021A6022
:100760001A6842F020021A60704740F203121A60C1
:1007700070474FF481721A60704700BF80240000F8
:1007800030B4054B054D064C002210211A602A603A
:100790002060196030BC704714D0034004D003407F
:1007A00000D00340212801D8FFF78CBF704700BF5D
:1007B000212806D8044B53F8303093F80002C0B219
:1007C00070470020704700BF80240000212801D816
:1007D000FFF79ABF704700BF2DE9F843054672B690
:1007E000204F214B214A1B683C68126862B65201B7
:1007F00002D5322B88BF013495B3C3F5BB431C4EE1
:10080000DFF86490DFF864803F334FF47A72A6FB20
:10081000031302FB04F404EB131472B6D9F80010AE
:100820003A68D8F800E062B6C1F5BB433F33A6FB97
:1008300003031EF0806FC4EB13134FF47A7002D0E1
:10084000322988BF013200FB0233B3F57A7F04D32B
:10085000013D05D004F57A74DFE701F0C5F9DCE766
:10086000BDE8F883A4EAFF1F18E000E004ED00E013
:10087000ABAAAAAAF8B5224B2249DFF8A4E0DFF818
:10088000A4C0214D214C224A224F234E4FF48070A8
:1008900018604FF4007018604FF4806018604FF4D7
:1008A000006018604FF48050186000200860282312
:1008B0004BF6FF71CCF80010CEF800302B601360BF
:1008C00023603B603360AB629362082244F8242CBF
:1008D000C7F8D80F04F57F641048C6F8D41FC5F8D0
:1008E000F83F2360026001F0CDF91920FFF774FF93
:1008F00000F0DCFF40F21310BDE8F840FFF76CBFDA
:1009000004E100E00480034014800340248003409D
:100910001C8003402C80034034800340009003403F
:100920000C800340088003402B4A2C491368F0B523
:1009300043F4806313600A78294F2A4E2A4D2B4CCA
:100940002B4900233B7033702B7023700B70002AEF
:100950003DD0152A21D0274B1B78012B25D0052B04
:1009600030D01F2827D8002002460125224B234CD7
:100970001A7023495D7004224FF0020E88273C262E
:10098000402598729A704FF4803083F813E05A75BE
:100990001F74DE7025700860F0BD1A4B40F21332F0
:1009A0001A60144B1B78012BD9D1174B4FF451729D
:1009B0001F281A60D7D9C0F34432C0F3471500F09E
:1009C0001F00D3E7114B4FF451721A60C9E7104B67
:1009D00040F213321A60BEE734800440F0EAFF1F91
:1009E000ACEAFF1FADEAFF1F3CEBFF1F35EBFF1F1B
:1009F00034EBFF1F58E5FF1F00A0064010E400E0A5
:100A000000E100E018C0044044A004401CC00440C1
:100A100040A004402DE9F84F294B1B685A0548D5E2
:100A2000284B1B6805460BB101221A7005EB010A21
:100A3000554540D2DFF89C80234CDFF89C90234F33
:100A40000AE015F8012B09F80B20214A0123AA45D9
:100A5000137088F800602ED098F80030227803F1E7
:100A6000010BBBF13F0F86BF0026B3465FFA8BF642
:100A70009345E6D1BC22FA7005E03A7913060BD40F
:100A800022789345DDD101F0A3F94028F5DDFF2858
:100A9000F6DD01F0A9F8F3E7227801323F2A86BF9C
:100AA00000210A46D1B219F80220D2B2FA7121709F
:100AB000E6E7BDE8F88F054BBC22DA70BDE8F88F99
:100AC0003480044038EBFF1F35EBFF1F00A00640C9
:100AD00034EBFF1F3CEBFF1FB0EAFF1F054A064B3C
:100AE00010781B78C0B2DBB2984238BF4030C01AD1
:100AF000704700BFACEAFF1FADEAFF1F30B4154BD3
:100B0000154C1A782378D2B2DBB29A421ED0013348
:100B10003F2B0ED91149124B087819680023C0B237
:100B2000237021B1D31A1A2B01DC00230B7030BCC7
:100B300070470A480A49C05C0968DDB2C0B2257036
:100B40000029F4D09A4238BF4032EBE74FF0FF3033
:100B5000EDE700BFACEAFF1FADEAFF1FF4EAFF1F9D
:100B6000A8EAFF1FF0B4384B1A7912F0300F2CD0DE
:100B700072B6997D01F0FF0200293DD062B6334F75
:100B8000334938780D78334E1C46C0B2EDB2431C61
:100B9000402BE17928BF0023AB4202F1FF32C9B2FA
:100BA0001CBFF154184612F0FF02F0D12A4B1B680B
:100BB000C2B23A704BB1A84236BFC5F14005401BE6
:100BC00040192728C4BF01221A701F49CA78D2B21F
:100BD000150616D452060DD51B4B1B795B0609D59D
:100BE0001E4B1F491B6800220A7003B11A70164B76
:100BF0003C22DA70F0BC70474022D9795A7462B650
:100C0000E3E70B791C06E5D5164B174E1C783378B5
:100C1000E4B2DBB29C420ED0144D01E0A3420AD0F4
:100C20000133402B28BF00230879E85CC0B2C871AB
:100C3000087D0728F2D9DBB2034933700B79180617
:100C400044BF7C23CB70C5E700A00640ACEAFF1F81
:100C5000ADEAFF1FF4EAFF1FA8EAFF1F38EBFF1FF2
:100C600034EBFF1F3CEBFF1F35EBFF1FB0EAFF1F0C
:100C7000431E032B14D872B60A4951F8230068B1F9
:100C800070B4094C058834F81320466841F8236095
:100C9000521B24F8132062B670BC704762B67047CE
:100CA0000020704798EBFF1F48EDFF1F0138032815
:100CB0000BD872B6074B53F8203043B100205B6865
:100CC0000130002BFBD162B67047002070471846F8
:100CD000F9E700BFECEBFF1F30B472B62B4A137874
:100CE0001D0706D52A4B196A002936D0996A0029B2
:100CF00041D053781C0706D5254B196C00293ED0EE
:100D0000996C002939D09378190705D5204B196EB5
:100D1000002936D0996E89B1D3781B0707D51C4BB3
:100D2000D3F880207AB3D3F8882011213AB162B683
:100D3000184B00221A7030BC00F044BE0D21154C37
:100D4000154D227843F8315003EBC1030830013AC6
:100D50005860227062B630BC704704220D4C0F4DB3
:100D6000217843F8325003EBC20308304A1E586022
:100D7000227062B6EFE70521E1E70921DFE70822EB
:100D8000ECE70C22EAE71022E8E700BF902500001C
:100D900000E0FF1F15ECFF1FC80040008800400066
:100DA000431E032B1DD81B4A400140F0100030B4F5
:100DB000104472B6184CE25C032A1BD8DFE802F03C
:100DC0000212151703220D88E25410F0080F14BF09
:100DD000C823882343EA054308310360416062B6B3
:100DE00030BC704708300222EDE70522EBE70830FF
:100DF0000422E8E7094A52F8230038B1084A52F8B9
:100E00002300416042F8231062B6E9E742F823105C
:100E1000034AF7E700E0FF1F24ECFF1FECEBFF1F86
:100E2000FCEBFF1F2DE9F04FDFF814B3DFF814A33C
:100E300087B044E0AC4F4FEA930807EBC809013E86
:100E4000D9F8042003F00803F6B2A2F1080003F079
:100E5000FF04002B40F0FF8057F838301B0C99B28C
:100E600022F8081C002B00F0ED80A04B22F8064C65
:100E700042F8044C53F82620002A00F0CD819C4D06
:100E800055F8263058609B4C45F8260034F816304B
:100E9000194424F8161000F075FD002800F0C081F8
:100EA000954A964B19F0080F00F1080018BF134639
:100EB000C9F8040047F8383008238BF800309BF855
:100EC0000040E4B265071AD58D4B1B78A3B18D495C
:100ED0000A7802F0FF0322B1013BDBB20B7003B9C9
:100EE00000BE89490A7802F0FF032AB1013BDBB258
:100EF0000B70002B00F0668104238BF8003004F0A7
:100F0000080303F0FF02002B00F0C9809AF80030BC
:100F1000DBB21E098ED19A08DFF8CC9159F8321055
:100F200009EBC200C1F38301013940680C2900F2CA
:100F30008580DFE801F07A7A838383838383468325
:100F4000838307000168714D4068714F714E68607E
:100F5000296088B240F281610024674B49F8323041
:100F60004FF0010E88423C60C9F81040C9F81840A3
:100F700086F800E05C4A00F2E780B0F5D06F80F0C0
:100F80001B82B0F5817F00F0D98100F26981802851
:100F900000F02A82822840F0D781A98801F07F01E1
:100FA000042900F2D1815C485C4A8900084414702D
:100FB000547001788C0740F1608382F800E00221D0
:100FC00073E1534F3A682AB3554B524E554819882E
:100FD0003478057840298E4645F0020828BF4FF046
:100FE000400E002C84F001043470CEEB01010CBFE4
:100FF0008824C82409EBC80689B285F0010544EAB3
:101000000E447260198049F8384072440570002916
:1010100065D03A603D4B1A88B2F5A06F0ED1002121
:101020009A785970404B1A7008E038493F4C0D6867
:10103000A54200F09880304949F832103C4A01231B
:10104000137039E72C4A2D4B19F0080F18BF1346BF
:1010500047F8383030E700F0B5FC364A364952F8E8
:101060002630002B00F0E38058688C5D42F82600A3
:1010700003F10802C9F80420032C05D8DFE804F0C6
:101080002C02292602228A551A8819F0080F0CBF53
:101090008823C82343EA024347F838300CE7E007C7
:1010A00000F19380210600F1D180A20706D5234AE2
:1010B000234913780220DBB213700870E30602D5CF
:1010C0001F4B10221A7007B0BDE8F08F04228A551A
:1010D000DAE705228A55D7E703228A55D4E7BEF11D
:1010E000400F18BF002294E700E0FF1F98EBFF1F9E
:1010F00044EBFF1F48EDFF1FC80040008800400080
:1011000020ECFF1FA9EBFF1F34ECFF1F0CECFF1FAF
:1011100040EBFF1FA8EBFF1FC020074018ECFF1F8C
:1011200054EBFF1F14ECFF1F982007402109000318
:1011300094200740ECEBFF1F24ECFF1F88200740A2
:101140008020074090200740B0F5106F00F07C81B0
:1011500040F2A38040F62112904240F07B82A54AE3
:10116000012313706AE74C68A3498C427FF463AF94
:101170000178A9297FF45FAF417845297FF45BAFFF
:101180008178C2297FF457AFC1786B297FF453AFC0
:101190009A489B4E0178347881F00105002C41F08B
:1011A000020105700CBF8820C82084F0010449F8B2
:1011B000310009EBC10193483470002505244D60CE
:1011C000047038E700F0E8FC96E68F4B89488B49BD
:1011D0001A614FF0020E80F800E08C4F0A708C49C3
:1011E000196099608B4E8C4D8C4C9A610D21397031
:1011F000FF213170DFF84CE229702270884D894A56
:101200008EF800109F27012406F8047C5D600470AE
:10121000DA6007B0BDE8F08F43F82600824D32E671
:10122000824A47F8380013780133137044E68B5D27
:10123000032B00F2BA8001A252F823F0B90E00008D
:10124000B90E0000951200008F1200006F49724B1A
:1012500080220D2008701A70A2077FF52FAF26E7B5
:1012600040F20232904240F0ED81AA8802F07F0203
:10127000042A69D86D88002D66D16449CDF804E050
:10128000920011440A7842F002020A70C1E101237F
:101290008B5511E600238B550EE6B0F5086F53D140
:1012A0006349644A097811707146ED888D4280F077
:1012B000E88252480478402DAE4644F0020C28BF24
:1012C0004FF0400E02EB0E0309EBCC010293012319
:1012D0004A604FEA0E48CEEB050101930025C82273
:1012E00042EA080384F0010249F83C30357002708C
:1012F000DFF814C1424BDFF8048149BBBEF1400F57
:101300007FF42DAF42F0020C09EBCC03029ADFF818
:10131000F8E05A608DBB0D0445F088059DF8043057
:101320004EF83C500A4433700470134640297FF451
:1013300016AF0021404A3B60118010E7AA8802F0F6
:101340007F02042A40F28B81304A0F23137006E794
:101350004029D7D942F002020CEBC200029E46603F
:10136000BDB19DF8045035481D703346403988F8AA
:10137000004040334CF83200DCE79DF80430337015
:101380000D04029B047045F0C8050B444EF83C5018
:10139000CCE79DF804501D70029B1D4888F8004062
:1013A000403940334CF83200C4E719F0080F0CBF45
:1013B000022303238B557FE521494A68002AC3D0C5
:1013C0006C88B5F804E003E00C314A68002ABBD011
:1013D0000B88A342F8D14B887345F5D1240A032C1E
:1013E0000CBF1178098960E7124A02211470547009
:1013F0005BE700BF942007400100040014ECFF1FCE
:10140000A8EBFF1FA9EBFF1F00E0FF1FC020074054
:10141000880040008820074080200740982007402F
:1014200058EBFF1FACEBFF1F44EBFF1F15ECFF1F3A
:1014300020ECFF1F18ECFF1F54EBFF1FC8004000FB
:10144000942500008C200740B248116AAC780470E3
:101450000C0600F19881D9F82820AF49100600F158
:10146000DB81D9F83020AC49120600F1D081D9F8DF
:101470003820A949130600F1C581D9F84020A649B2
:10148000150600F1BA81D9F84820A349140600F1E5
:10149000AF81D9F85020A049100600F1A481D9F8F5
:1014A00058209D49120600F19981D9F860209A4987
:1014B000130600F18E81D9F868209749150600F1CE
:1014C0008381D9F870209449140600F17881D9F805
:1014D00078209149100600F16D81D9F880208E495D
:1014E000120600F16181D9F888208B49130600F1BA
:1014F0005581D9F890208849150600F14981D9F81D
:1015000098208549140600F1FF808448844A854963
:1015100001908548854D864C0497002305960295D9
:1015200080460F4616461D460394306828B144682D
:1015300000F048FA2046002CF9D100233360029BCA
:1015400038681A46002342F8253028B1446800F074
:1015500039FA2046002CF9D100223A60019A98F815
:1015600000301146002241F8042B039A0191023BFE
:101570004FF0000122F81510032B07D8DFE803F025
:101580005D025D024FF0010388F800300135042D43
:1015900006F1040607F1040708F10108C5D1654CFE
:1015A000654D2278654B049F059E00211007297028
:1015B0001A7000F19280624962780A700021C9F8BD
:1015C0003010C9F838101107DFF84C816ED4A278BA
:1015D0005C49DFF844810A7000211207C9F85010F5
:1015E000C9F858104BD4E27857494B4C0A7013078E
:1015F0004FF00001C9F87010C9F8781000F1AE8002
:1016000033780193002283F00105C9F89020C9F8CE
:1016100098200021029188468E460A464B4804785D
:1016200044F0020C09EBCC030393019B002B039BBA
:101630005A600CBF8822C82252E64FF0000388F897
:101640000030A3E7B0F5A06F7FF47EAE0123002544
:101650000193DEE740F621229042F7D074E66D88D0
:10166000002D7FF471AE3A49CDF804E092001144A8
:101670000A7822F002020A70CBE7022115E600F098
:1016800081F9002800F0EB800830324AC8F8640085
:10169000C8F8602000F076F9002800F0DA80083001
:1016A0002D4AC9F86C00C9F868209CE700F06AF977
:1016B000002800F0E0800830264AC8F84400C8F846
:1016C000402000F05FF9002800F0CF800830224A67
:1016D000C9F84C00C9F8482079E700F053F9002810
:1016E00000F0A58008301B4AC9F82400C9F8202062
:1016F00000F048F9002800F094800830164AC9F834
:101700002C00C9F8282056E7D1F89C00083800F0D2
:1017100059F9FAE620ECFF1F00E0FF1FFCEBFF1F6A
:1017200098EBFF1FECEBFF1F24ECFF1F44EBFF1FA8
:1017300048EDFF1F9025000015ECFF1FC420074057
:10174000C8200740CC200740D020074014ECFF1FE2
:10175000C020074088004000C800400000F012F997
:10176000002870D008304F4AC4F88400C4F88020A4
:1017700000F008F9002860D008304B4AC9F88C0006
:10178000C9F888203CE7506A083800F01BF962E687
:10179000D1F89400083800F015F9B0E6D1F88C00C3
:1017A000083800F00FF9A4E6D1F88400083800F0FA
:1017B00009F998E6C86F083800F004F98DE6486F1B
:1017C000083800F0FFF882E6C86E083800F0FAF832
:1017D00077E6486E083800F0F5F86CE6C86D083812
:1017E00000F0F0F861E6486D083800F0EBF856E6D6
:1017F000C86C083800F0E6F84BE6486C083800F092
:10180000E1F840E6C86B083800F0DCF835E6486BD4
:10181000083800F0D7F82AE6C86A083800F0D2F88D
:101820001FE62A78C9F8280001322A70C3E62A7810
:10183000C9F8200001322A705AE72A78C9F88800CE
:1018400001322A70DCE62A78C4F8800001322A705E
:101850008EE72A78C9F8680001322A70C3E62A7830
:10186000C8F8600001322A7014E72A78C9F84800E5
:1018700001322A70ABE62A78C8F8400001322A709B
:101880001FE740298E4628BF4FF0400E02EB0E03A3
:1018900002930123CEEB01014FEA0E48002501938C
:1018A000BCE600BF88004000C8004000F8B500F06A
:1018B00093FB294B29482A4C2A4F2B4DDFF8BCC0FB
:1018C000DFF8BCE0294E00221A605A609A60DA60A4
:1018D0001A615A619A61DA611A625A629A62DA622C
:1018E0001A635A639A63DA631A645A649A64DA640C
:1018F0001A655A659A65DA651A665A669A66DA66EC
:101900001A675A679A67DA67C3F880200168C3F8D4
:10191000842041F480210160C3F307212170C3F3C7
:101920000740134938701B0E2B70FF238CF80030D2
:10193000104D8EF8003010480B700123337084F87E
:10194000642070260824102207F82C3C2E700460B6
:1019500081F8F820F8BD00BF00E0FF1F348004408C
:101960009C200740B0200740B42007409420074047
:101970001020074023E400E004E100E0802007405D
:101980008820074072B60D480268B2FA82F30B2B2A
:1019900010DC4FF00041D94022EA0102026062B639
:1019A000074803EBC303DB00C2180021C1501046F7
:1019B0005160704762B60020704700BF5CE5FF1FB2
:1019C000F8E1FF1F0D4B0E4AC31AA2FB03231B09AC
:1019D0000B2B0CD80B4A127852B972B60A484FF04A
:1019E0000041026821FA03F31A43026062B67047AD
:1019F000064A1278002AF0D0FFF76EB9F8E1FF1F0F
:101A0000398EE33815ECFF1F5CE5FF1F20ECFF1F4C
:101A10002DE9F0411F4D204E2B6882B00093009FAE
:101A200033786BB380460C460AE02B680193019B28
:101A3000DB1BA34221D844B300F0D6F83378FBB1C6
:101A40000420FFF715F90028EFD000F1080300F19A
:101A500048021D685C689968DE68C8F80C6010333D
:101A60009342C8F80050C8F80440C8F8081008F1BC
:101A70001008EED1FFF7A6FF402002B0BDE8F081CC
:101A80004FF0FF3002B0BDE8F081204602B0BDE863
:101A9000F08100BFA4EAFF1F20ECFF1F2DE9F041F9
:101AA000224C234D236882B00093009F2B789BB378
:101AB00080460E4609E023680193019BDB1BB3427D
:101AC0002FD800F091F82B7833B30320FFF7EEF80E
:101AD0000328F0D8FFF756FF0028ECD008F14002A9
:101AE00000F10803D8F80050D8F80440D8F80810DE
:101AF000D8F80C60DE6008F1100890451D605C604D
:101B0000996003F11003EDD14024048001460320C5
:101B1000FFF746F9204601E04FF0FF3002B0BDE884
:101B2000F081002002B0BDE8F08100BFA4EAFF1FF1
:101B300020ECFF1F38B5164D2868E0B101884488B5
:101B4000A14213DD03191B7A83B104F10803C21803
:101B50000C1B002302E012F8011F21B10133A34244
:101B6000F9D1204638BD1C46204638BDFFF72AFF74
:101B70000020286038BD074B1B780BB9002038BD0A
:101B80000220FFF775F828600028D7D1F6E700BFDC
:101B900030ECFF1F20ECFF1F0D4B1B78BBB910B5BD
:101BA0000C4C216803F0FF024B883F2B07DC073306
:101BB0000B4401F1470003F8012F8342FBD140237E
:101BC0000B800120FFF7ECF80023236010BD704765
:101BD00028ECFF1F2CECFF1F08B5FEF747FCFEF7B3
:101BE0005DFD00F001F8FAE738B5224C237803B127
:101BF00038BD01232370FFF79DFF70BBFEF76EFF1A
:101C000040BB00F003F910BB00F06AF9E0B9002313
:101C10002370EFF30583002BEAD1EFF3108172B646
:101C2000154B1868E0B1154C2278CAB945691D609A
:101C300001232370C5B1AA6101B962B600254577B9
:101C4000836898472570D3E700F004FBDFE700F0D6
:101C5000FFFAD9E700F0FAFAD3E700F0FDFACDE792
:101C60000029C5D162B638BD054B1D600029E5D1FC
:101C7000E3E700BF35ECFF1F3CEDFF1F40EDFF1F0A
:101C800038EDFF1F10B43048304A314BE121602459
:101C9000047011701B782F49082B37D00A2B3BD0CA
:101CA0000C2B3FD02C4B3C20122208601A602B4B8F
:101CB0001B78ABB12A4B01221A602A4B1B78012BEF
:101CC00014D9042B1AD9082B35D9102B264B94BFC5
:101CD000862287221A60254B01221A7010BC704799
:101CE0001F4A13601F4B1B78012BEAD81E4B802222
:101CF0001A601E4B01221A7010BC70471A4B8422C6
:101D00001A601A4B01221A7010BC7047124B002047
:101D1000132208601A60CAE70F4B382013220860AC
:101D20001A60C4E703F1804303F56C3334201222B8
:101D300008601A60BBE70C4B85221A600B4B01222E
:101D40001A7010BC704700BF0040074001400740B8
:101D500060E5FF1F08B003400CB0034037ECFF1FE5
:101D600020B0034061E5FF1F24B0034036ECFF1FA5
:101D700008B5104C08E0236859050DD423681A05EE
:101D80000FD42368DB0411D423685803F3D5FFF77D
:101D900049F823685905F1D5FEF7E4FE23681A05D2
:101DA000EFD500F043F82368DB04EDD500F0A8F888
:101DB000EAE700BF3480044008B5FFF7D9FF00BF51
:101DC000014B10221A80704700200540704700BF69
:101DD000EFF3138070B9EFF310836BB9EFF3058263
:101DE0005AB94FF48070EFF311832BB1984228BF9A
:101DF000184670474FF0FF3070470F2A01D8184639
:101E0000F1E7014BD05CEEE7F0E300E0054A064B5A
:101E100010781B78C0B2DBB2984238BF4030C01A8D
:101E2000704700BF38ECFF1F39ECFF1F30B4234B65
:101E30001A7994060FD52249DA790B7821480133B3
:101E40003F2B0078C8BF00238342D2B203D01E4C80
:101E5000D8B2E2540870194AD378DBB2180611D40C
:101E60005A060DD5154B1B795B0609D5174B18493A
:101E70001B6800220A7003B11A70104B2C22DA7012
:101E800030BC704711790906EAD5124912480C781E
:101E90000178C9B28C420DD04A1C272A84BF002188
:101EA0000A460E4D054C98BFD1B2AA5CD2B2E2717F
:101EB0000170D5E76C21D170D2E700BF00B00640B9
:101EC00038ECFF1F39ECFF1F64ECFF1FA8ECFF1F6D
:101ED000A4ECFF1FACECFF1FA5ECFF1F3CECFF1FA9
:101EE000054A064B10781B78C0B2DBB2984238BF67
:101EF0004030C01A704700BFB4ECFF1FB5ECFF1FA5
:101F000030B42B4B1A7994061FD52A48DA79037816
:101F1000294901333F2B0978C8BF00238B42D2B235
:101F200003D0264CD9B2E2540170254A116861B140
:101F3000244A1278D2B2934236BFC2F140029B1AB1
:101F40009B18272BC4BF01230B70194AD378DBB22F
:101F5000180611D45A060DD5154B1B795B0609D509
:101F6000194B1A491B6800220A7003B11A70104BF2
:101F70002C22DA7030BC704711790906EAD5144971
:101F800010480C780178C9B28C420DD04A1C272A1F
:101F900084BF00210A460F4D054C98BFD1B2AA5C00
:101FA000D2B2E2710170D5E76C21D170D2E700BFE7
:101FB00000C00640B4ECFF1FB5ECFF1FE0ECFF1FB4
:101FC000B0ECFF1F21EDFF1F24EDFF1F20EDFF1FD1
:101FD00028EDFF1FB8ECFF1F70B584B072B6194B27
:101FE000194D1A48702241260F2480211A702E7034
:101FF0001A460470197013781B06FCD5144B186828
:1020000062B6144B144C984298BF00EB800001A9B3
:1020100098BF40000A2200F021F901A920460023C0
:1020200011F8012B01333AB10A2B20F8022FF7D116
:102030001623237004B070BD5B00DBB2237004B0C4
:1020400070BD00BF000002400700024006000240D1
:10205000080002407F96980048E6FF1F10B4EFF397
:10206000108272B6437F33B9017F012907D003295B
:102070000FD00123437702B962B610BC7047124CEF
:102080002168A1B1114943610B68836108605861FF
:10209000EFE70F4C216881B10E4943610B68836102
:1020A000086058610C4B4FF080511960E1E7074B15
:1020B0004161816120601860DBE7064B416181610D
:1020C00020601860EEE700BF3CEDFF1F38EDFF1FFA
:1020D0002CEDFF1F30EDFF1F04ED00E010B4047F76
:1020E0004160022CC26002D010BCFFF7B7BF83680A
:1020F00010BC184770B5EFF3108272B60C4C206814
:1021000080B10C4E00254369236073B19D6102B913
:1021100062B6457783689847EFF3108272B62068FD
:102120000028F0D102B962B670BD3360EFE700BF9E
:102130002CEDFF1F30EDFF1FFFF7DCBF184A30B456
:102140001468002C27D0036821688B420ED2CB1A6A
:1021500000218460C1602360E06010600223037589
:1021600030BC704711688B42144608D3A2685B1AD2
:102170000360002AF6D18260C460A060EEE7D268F6
:10218000C2608460E060C568CB1A0222A860236048
:10219000027530BC70478460C4601060DEE700BF29
:1021A00034EDFF1FF8B5224E34682CB32368002BA2
:1021B0003AD1204F1D4604E03468ECB12368002B6F
:1021C00032D1A36803B1DD602069336003682575EF
:1021D0001B68BB4221D1037F4560022BC46020D025
:1021E000FFF73CFF6368002BE6D023602046FFF733
:1021F000A5FF3468002CE1D1EFF3108372B60E4ACC
:1022000000211068116003B962B628B18468FFF735
:1022100095FF20460028F9D1F8BD224600219847B5
:10222000E0E783689847DDE7013B2360E4E700BF10
:1022300034EDFF1FDD20000044EDFF1F024A13684C
:1022400001331360FFF7AEBFA4EAFF1F704700BF62
:10225000704700BF704700BF704700BFF0B44D1E0D
:102260002E46002400E00134B0FBF2F302FB130021
:10227000092800F130078ABF3730F8B2C0B206F83B
:10228000010F1846002BEED10A1953704CB110788B
:1022900015F8016F28700133E01A834202F80169D2
:1022A000F5DB0846F0BC704770B50F4E0F4D761B3E
:1022B000B61018BF002405D0013455F8043B9847E8
:1022C000A642F9D10A4E0B4D761B00F0A7F9B610C5
:1022D00018BF002406D0013455F8043B9847A642A5
:1022E000F9D170BD70BD00BF28260000282600006F
:1022F000302600002826000070B4840746D0541E03
:10230000002A41D0CDB2034602E0621EE4B3144677
:1023100003F8015B9A07F8D1032C2ED9CDB245EA18
:1023200005250F2C45EA054519D903F1100226466B
:10233000103E0F2E42F8105C42F80C5C42F8085C2C
:1023400042F8045C02F11002F2D8A4F1100222F06B
:102350000F0204F00F041032032C13440DD91E4653
:102360002246043A032A46F8045BFAD8221F22F0D8
:1023700003020432134404F003042CB1C9B21C4418
:1023800003F8011BA342FBD170BC704714460346FF
:10239000C2E700BF024B13B1024800F005B8704716
:1023A00000000000B5230000002301461A4618462D
:1023B00000F014B838B5074D074C2C1BA41005D0FD
:1023C000013C55F8043D9847002CF9D1BDE8384050
:1023D00000F02EB900000000000000002DE9F047D9
:1023E000254C2568D5F848410646884692469946C8
:1023F000C4B360681F2817DC431C76B104EB80056A
:102400000122C5F888A0D4F8881182401143022E19
:10241000C4F88811C5F808911ED00230636044F8F2
:1024200020800020BDE8F087144B03B34FF4C87040
:10243000AFF300800446D0B1D5F84831002780E8DA
:102440008800C5F8484138460123C4F88871C4F8AB
:102450008C71002EE1D0D1E7D4F88C110A43C4F876
:102460008C21DAE705F5A674C5F84841C1E74FF0BD
:10247000FF30BDE8F08700BF182600000000000014
:102480004008FE4340A004404408FE4344A00440EA
:102490000018FE4300C004403000FE43309004406A
:1024A0003400FE43349004401C18FE431CC004401A
:1024B0001018FE4310C004400818FE4308C0044032
:1024C0000C18FE430CC004400C10FE430CB004403A
:1024D0001010FE4310B004401810FE4318B0044022
:1024E0001C10FE431CB004401410FE4314B0044002
:1024F0000418FE4304C004400010FE4300B0044032
:102500000008FE4300A004400408FE4304A0044069
:102510000C08FE430CA004400808FE4308A0044039
:102520001418FE4314C004401818FE4318C0044099
:102530000410FE4304B004400810FE4308B00440F9
:102540001400FE43149004404C08FE434CA0044089
:102550000420FE4304D004402410FE4324B0044071
:102560002010FE4320B004402810FE4328B0044051
:102570002C10FE432CB004400020FE4300D0044049
:102580004808FE4348A004401000FE431090044059
:10259000151915190001000064E5FF1F1200000065
:1025A0000002000090E5FF1F49000000002201002A
:1025B000DCE5FF1F2100000000210100C2E5FF1F34
:1025C000090000000022000000E6FF1F1C000000C0
:1025D00000210000A2E5FF1F090000000003000029
:1025E00044E6FF1F000000000103090478E5FF1F17
:1025F00000000000020309041CE6FF1F00000000A9
:102600000303090448E6FF1F00000000000000006B
:10261000000000000000000060E6FF1FF8B500BFEA
:10262000F8BC08BC9E4670479523000035040000A6
:04263000F8B500BF3A
:1026340001000000FFFFFFFF0A0400001201100167
:1026440000000040C0168604740201020301000069
:1026540018035400650065006E007300790064007F
:10266400750069006E006F0009024900020100C094
:1026740032090400000203000000092111010001D5
:10268400221C0007058303400001070504034000E2
:1026940001090401000203000000092111010001E5
:1026A40022210007058103400001070502032000E1
:1026B4000200000006C9FF0904A15C750815002684
:1026C400FF009540097581029520097691029504D1
:1026D4000976B102C000000006ABFF0A0002A101A6
:1026E4007508150026FF00954009018102954009EF
:1026F400029102C026035400650065006E00730059
:1027040079006400750069006E006F0020005200BB
:1027140061007700480049004400000004030904F4
:102724000C03000000000000000000000000000096
:102734000000000000000000000000004CE9FF1F42
:10274400B4E9FF1F1CEAFF1F0000000000000000A6
:102754000000000000000000000000000000000075
:102764000000000000000000000000000000000065
:102774000000000000000000000000000000000055
:102784000000000000000000000000000000000045
:102794000000000000000000000000000000000035
:1027A4000000000000000000000000000000000025
:1027B4000000000000000000000000000000000015
:1027C4000000000000000000000000000000000005
:1027D40000000000000000000000000000000000F5
:1027E40001000000000000000E33CDAB34126DE692
:1027F400ECDE05000B0000000000000000000000FB
:1028040000000000000000000000000000000000C4
:1028140000000000000000000000000000000000B4
:1028240000000000000000000000000000000000A4
:102834000000000000000000000000000000000094
:00000001FF
