:100000000CC1000031C100002FC100002DC1000053
:100010002BC1000029C1000027C1000025C100003C
:1000200023C1000021C10000A7C200001FC30000BF
:100030001BC1000019C1000017C1000015C100005C
:1000400013C1000011C100000FC100000DC100006C
:100050000BC1000009C1000007C100001EC2000062
:1000600003C1000001C10000FFC00000FDC000008E
:10007000FBC00000F9C00000F7C00000F5C00000A0
:10008000F3C00000F1C00000EFC00000EDC00000B0
:10009000EBC00000E9C0000000010000F801120000
:1000A00002000072014900220000DC011C00210056
:1000B0000084010900220100BB012100210100A4EC
:1000C0000109000300006E01040103090438013432
:1000D0000203090410012603030904DE0030300383
:1000E00045006D0075006C006100740065006400DF
:1000F0002000410072006400750069006E006F000E
:100100002000530065007200690061006C0000006F
:1001100026035400650065006E00730079006400DA
:10012000750069006E006F002000520061007700CA
:100130004800490044000000340354006500650095
:100140006E00730079006400750069006E006F0036
:100150002000520061007700480049004400200060
:100160004400650076006900630065000000040338
:10017000090409024900020100C03209040000021A
:1001800003000002092111010001221C0007058360
:1001900003400001070504034000010904010002B7
:1001A000030000030921110100012221000705813C
:1001B000034000010705020320000206C9FF0904ED
:1001C000A15C7508150026FF009540097581029510
:1001D000200976910295040976B102C006ABFF0AA8
:1001E0000002A1017508150026FF00954009018154
:1001F00002954009029102C0120100020000004075
:10020000C016860402010001000101C13601C026AA
:1002100001C13601C0360000690711241FBECFEFAF
:10022000D0E2DEBFCDBF11E0A0E0B1E0EAE5FFE043
:1002300000E00BBF02C007900D92A231B107D9F7C1
:1002400021E0A2E1B1E001C01D92A532B207E1F7C1
:1002500011E0CDE0D1E003C02197FE0173D6CC3090
:10026000D107D1F7B4D377C6CBCE569A08953F9233
:100270004F925F926F927F928F929F92AF92BF92B6
:10028000CF92DF92EF92FF920F931F93CF93DF9362
:10029000CDB7DEB7C054D1090FB6F894DEBF0FBE9C
:1002A000CDBF0FB6F894C0901301D0901401E09028
:1002B0001501F09016010FBE4C01B12CA12C8E013E
:1002C0000D5F1F4F8EE3782E94E2692E29E3522EA4
:1002D00030E3432E41E2342E0FB6F894809113019F
:1002E00090911401A0911501B09116010FBE8C19C7
:1002F0009D09AE09BF0988159905AA05BB0508F037
:100300003EC050E040E0BE016F5F7F4F8BE191E067
:10031000B1D31816190604F7898180FF2EC05E9AA2
:100320000FB6F894C0901301D0901401E09015011D
:10033000F09016010FBE8A818A3571F6F801872D7B
:1003400011928A95E9F769825A824B82F894DE010C
:100350001696F0E0E0E03092570084918D9331964C
:10036000E032F105C1F778944AEF50E0BE016F5FCB
:100370007F4F8BE191E06CD4AFCF5E98D1CFC05C62
:10038000DF4F0FB6F894DEBF0FBECDBFDF91CF9128
:100390001F910F91FF90EF90DF90CF90BF90AF90A3
:1003A0009F908F907F906F905F904F903F900895B7
:1003B0005E9A88EE93E05BDF5E9888EE93E057CF1D
:1003C0001DBA109268001CBC10BE1FBA10927A00B1
:1003D00010926E0010926F001092700010927100D7
:1003E0001092C9001092BC0011B814B817B81AB80E
:1003F0001DB810BA12B815B818B81BB81EB811BA83
:100400000895F894E1E6F0E020E8208381E080831D
:1004100093E094BD95BDEEE6F0E09081916090830D
:100420008093800092E0909381008093B00090933D
:10043000B100809390009093910085E880937A00BA
:1004400020937B0010927E006DD078940895F894EC
:1004500084B7877F84BF8091600080618093600053
:100460001092600080E197E20197F1F781E08093BC
:10047000E00080E28093D80080E395E70197F1F7F0
:100480009FDF0C9400FEFFCFF8949ADF80E395E79E
:100490000197F1F70C940000FFCF8F938FB78F93E4
:1004A000809112018A5F8D37D0F480931201809180
:1004B00013018E5F80931301D8F0809114018F4F48
:1004C00080931401A8F0809115018F4F809315013E
:1004D00078F0809116018F4F8093160109C08D57D7
:1004E00080931201809113018D5F8093130128F78F
:1004F00080911701885F8093170158F0809118014F
:100500008F4F8093180128F0809119018F4F8093AD
:1005100019018F918FBF8F9118958091E80080FF0E
:10052000FCCF08958091D80087FF02C085FF23C0CB
:1005300081E88093D70080EA8093D80086E189BD66
:1005400009B400FEFDCF80E98093D8001092E0004E
:1005500010922B0110922A01109229011092280169
:100560001092270110922601109225011092E100AD
:100570008CE08093E20008951F920F920FB60F92C5
:1005800011242F938F939F932091E1001092E1000B
:1005900023FF0FC01092E90081E08093EB001092DE
:1005A000EC0082E38093ED0088E08093F0001092ED
:1005B0002B0122FF2FC080912B01882359F18091BC
:1005C0002901882379F081508093290181110AC083
:1005D00081E08093E9008091E80085FD44C08AE3D2
:1005E0008093E8008091270190912801882331F0C1
:1005F000815090E0909328018093270180912501FC
:1006000090912601882331F0815090E0909326014B
:100610008093250120FF0CC080E18093E2001092BE
:100620002B0181E080932A0180EA8093D80019BCD5
:1006300080912A01882379F024FF0DC086E189BDCD
:1006400009B400FEFDCF80E98093D8008DE080934F
:10065000E20010922A019F918F912F910F900FBE6F
:100660000F901F9018951092F100B5CF1F920F9226
:100670000FB60F9211240BB60F92EF92FF920F93C9
:100680001F932F933F934F935F936F937F938F931A
:100690009F93AF93BF93CF93DF93EF93FF9310920A
:1006A000E9008091E80083FF21C0E090F100F09024
:1006B000F100C091F100D091F1000091F100109192
:1006C000F1002091F1003091F10082EF8093E80079
:1006D00086E0F8125CC08AE0E8E9F0E045915591C7
:1006E000C417D50739F035968150C1F781E2809360
:1006F000EB002BC0459155910417150711F0339667
:10070000F3CF4591559184912F3F310519F010F0A9
:100710002FEF30E0821708F4282F3EEF8091E80099
:10072000982F9570D9F382FD10C0822F213408F0E4
:1007300080E4982F911124C0922F981B892F309319
:10074000E80091111BC02034C8F4FF91EF91DF91B4
:10075000CF91BF91AF919F918F917F916F915F9159
:100760004F913F912F911F910F91FF90EF900F901C
:100770000BBE0F900FBE0F901F901895282FCECF55
:10078000FA0145914093F100AF019150D3CF85E03C
:10079000F81208C08EEF8093E800BFDEC068C093F7
:1007A000E300D3CF99E0F91222C0E11067C0C093F3
:1007B0002B01109229018EEF8093E80081E0EAE09E
:1007C000F2E08093E90095919093EB00992331F04A
:1007D00095919093EC0095919093ED008F5F85300B
:1007E00081F78EE18093EA001092EA00AECF88E0B4
:1007F000F8120CC090E8E91241C08FDE80912B0105
:100800008093F1008EEF8093E8009FCFF11012C02B
:1008100084DE22E8E21209C00093E900F090EB00C8
:10082000F5FAFF24F0F81092E900F092F10010922E
:10083000F100E8CF8F2D8D7F813001F582E0E81245
:100840001DC0209709F09BC0402F4F778FEF840F7A
:10085000853008F094C08EEF8093E8004093E90063
:1008600093E0F91609F442CF89E18093EB0081E02F
:1008700090E001C0880F4A95EAF7B4CF0115110541
:1008800009F081C021EAE21223C081E0F8122ECFE4
:1008900080E43EEF01C0892F9091E800292F257058
:1008A000D9F392FD52CF982F813408F090E4292F8C
:1008B00021110AC0282F291B922F3093E800211103
:1008C000EACF803440F741CF1092F1002150F0CFB1
:1008D00081E2E81249C099E0F91208CF8091E8005E
:1008E00082FFFCCF8BEF8093E80017DE8BCF109256
:1008F000F10091505EC089E0F81236C091E2E91231
:10090000F5CEC115D34009F0F1CE2430310509F000
:10091000EDCE8091E80082FFFCCF3091F100209174
:10092000F1009091F1008091F1004BEF4093E800CD
:100930004EEF4093E800393A51F4253409F0D6CE11
:10094000923C09F0D3CE8B3609F0D0CE80DD3B3817
:1009500009F0CCCE253C09F0C9CE9D3109F0C6CEB8
:10096000803709F0C3CE90DD99ECF912BFCE20E4B8
:10097000E212BCCE8EEF8093E800CFDDF4CF0115FC
:10098000110509F4B3CE0130110571F781E0F812B9
:10099000B2CF91EA3EEFE912A9CE8091E800982FFC
:1009A0009570D9F382FDD1CE822F213408F080E4F6
:1009B000982F91119CCF922F981B892F3093E8008C
:1009C000911103C0203408F4C0CE282FE6CF19DDE2
:1009D0004CDCEEDCFECF90E080E0089580912B01AE
:1009E000882371F08FB7F89492E09093E9009BE62A
:1009F0002091E80025FF03C09093E800F9CF8FBF56
:100A0000109224010895FC0180912B01882369F143
:100A10009FB7F89481E08093E9002091E400275E7D
:100A20003091E80035FD0EC09FBF9091E400921711
:100A3000E1F090912B019923C1F09FB7F894809336
:100A4000E900EECF6093F1008091E80085FD09C0D8
:100A50008AE38093E800109229019FBF81E090E033
:100A6000089584E080932901F8CF81E0828390E0AB
:100A700080E00895FB0180912B01811103C08FEF6D
:100A80009FEF08958FB7F894509328014093270162
:100A900094E09093E9002091E80025FD0FC08FBFFE
:100AA0002091270130912801232B09F4CEC0809199
:100AB0002B01882321F38FB7F894EBCF9091F100AD
:100AC00090839091F10091839091F10092839091A5
:100AD000F10093839091F10094839091F1009583BC
:100AE0009091F10096839091F10097839091F1009D
:100AF00090879091F10091879091F1009287909169
:100B0000F10093879091F10094879091F10095877F
:100B10009091F10096879091F10097879091F10064
:100B2000908B9091F100918B9091F100928B90912C
:100B3000F100938B9091F100948B9091F100958B43
:100B40009091F100968B9091F100978B9091F1002C
:100B5000908F9091F100918F9091F100928F9091F0
:100B6000F100938F9091F100948F9091F100958F07
:100B70009091F100968F9091F100978F9091F100F4
:100B800090A39091F10091A39091F10092A3909184
:100B9000F10093A39091F10094A39091F10095A39B
:100BA0009091F10096A39091F10097A39091F1009C
:100BB00090A79091F10091A79091F10092A7909148
:100BC000F10093A79091F10094A79091F10095A75F
:100BD0009091F10096A79091F10097A79091F10064
:100BE00090AB9091F10091AB9091F10092AB90910C
:100BF000F10093AB9091F10094AB9091F10095AB23
:100C00009091F10096AB9091F10097AB9091F1002B
:100C100090AF9091F10091AF9091F10092AF9091CF
:100C2000F10093AF9091F10094AF9091F10095AFE6
:100C30009091F10096AF9091F10097AF9BE6909361
:100C4000E8008FBF80E490E0089590E080E0089590
:100C5000FB0180912B01811103C08FEF9FEF08955D
:100C60008FB7F894509326014093250193E0909319
:100C7000E9002091E80025FD0FC08FBF20912501DC
:100C800030912601232B09F4CEC080912B018823BB
:100C900021F38FB7F894EBCF90819093F10091817D
:100CA0009093F10092819093F10093819093F100E1
:100CB00094819093F10095819093F10096819093A7
:100CC000F10097819093F10090859093F1009185C8
:100CD0009093F10092859093F10093859093F100A9
:100CE00094859093F10095859093F100968590936B
:100CF000F10097859093F10090899093F10091898C
:100D00009093F10092899093F10093899093F10070
:100D100094899093F10095899093F100968990932E
:100D2000F10097899093F100908D9093F100918D4F
:100D30009093F100928D9093F100938D9093F10038
:100D4000948D9093F100958D9093F100968D9093F2
:100D5000F100978D9093F10090A19093F10091A1F3
:100D60009093F10092A19093F10093A19093F100E0
:100D700094A19093F10095A19093F10096A1909386
:100D8000F10097A19093F10090A59093F10091A5A7
:100D90009093F10092A59093F10093A59093F100A8
:100DA00094A59093F10095A59093F10096A590934A
:100DB000F10097A59093F10090A99093F10091A96B
:100DC0009093F10092A99093F10093A99093F10070
:100DD00094A99093F10095A99093F10096A990930E
:100DE000F10097A99093F10090AD9093F10091AD2F
:100DF0009093F10092AD9093F10093AD9093F10038
:100E000094AD9093F10095AD9093F10096AD9093D1
:100E1000F10097AD9093F1009AE39093E8008FBFB3
:100E200080E490E0089590E080E008959FB7F89402
:100E300080912B01811102C09FBF089582E08093B1
:100E4000E9002BE68091E80085FD03C09FBF80E0AC
:100E500008958091F100811103C02093E800F2CF42
:100E60002091E80025FDE8CF2BE62093E800E4CFB1
:100E700020912401211105C0D9DF882329F0809316
:100E8000240181E090E0089590E080E008959C01C5
:100E900090912401992329F010922401892F90E048
:100EA0000895C901C3DF8111FACF8FEF9FEF089535
:100EB0009C0190912401892F911106C0C901B6DFD0
:100EC000882321F08093240190E008958FEF9FEF15
:100ED0000895ECE1F1E0128288EE93E0A0E0B0E04A
:100EE00083839483A583B683178284E091E0918302
:100EF00080830895CF92DF92EF92FF920F931F931A
:100F0000CF93DF936C01EB017B01E40EF51E10E043
:100F100000E0CE15DF0561F06991D601ED91FC91FD
:100F20000190F081E02DC6010995080F191FF1CF3E
:100F3000C801DF91CF911F910F91FF90EF90DF904B
:100F4000CF900895EE0FFF1F0024001C0BBE0790EA
:0A0F5000F691E02D0994F894FFCF0C
:100F5A000000000003057A07EB04EE043807470790
:020F6A00580726
:00000001FF
