:1000000000800020BD010000D1160000891600000C
:100010008916000089160000891600008916000064
:10002000891600008916000089160000D11600000C
:10003000D116000089160000E9140000ED1500003B
:10004000D1160000D1160000D1160000D116000014
:10005000D1160000D1160000D1160000D116000004
:10006000D1160000D1160000D1160000D1160000F4
:10007000D1160000D1160000D1160000D1160000E4
:10008000D1160000D1160000D1160000D1160000D4
:10009000D1160000D1160000D1160000D1160000C4
:1000A000D1160000D1160000D1160000D1160000B4
:1000B000D1160000D1160000D1160000D1160000A4
:1000C000D1160000D1160000D1160000D116000094
:1000D000D1160000D1160000D1160000D116000084
:1000E000D1160000D1160000D1160000D116000074
:1000F000D11600003D1A0000D11600006D18000056
:10010000D1160000B51B0000D1160000D11600006A
:10011000D1160000D1160000D1160000D116000043
:10012000D1160000D1160000D1160000D116000033
:10013000D1160000D1160000D1160000D116000023
:10014000D1160000D1160000D1160000D116000013
:10015000D1160000D1160000D1160000D116000003
:10016000D1160000910A0000D1160000D11600003F
:10017000D1160000D1160000D1160000D1160000E3
:10018000D1160000D1160000D1160000D1160000D3
:10019000D1160000D1160000D1160000D1160000C3
:1001A000D1160000D1160000D1160000D1160000B3
:1001B000D1160000D1160000D1160000564B4CF2AB
:1001C000205210B51A804DF628121A8000BF00BFC9
:1001D00001F082FA514B4FF010621A60504A9A6057
:1001E000504ADA60504A136813F4807304D14F49BF
:1001F0000B604FF4A85313604D4B1A78110703D5C9
:100200001A7842F008021A704A4B4B492A221A7097
:100210004A4A4B4B8B4204D252F8040F43F8040B6A
:10022000F8E7484B484900228B4202D243F8042B9E
:10023000FAE74649464A002352F8230041F82300D2
:1002400001336F2BF8D1434B434A802103F8011B44
:100250009342FBD1414B3D4A1A60414B8A221A70AE
:10026000A3F5805324225A70A0221A709A7992071B
:10027000FCD59A79D406FCD43A4A937903F00C035E
:10028000082B384BF9D103221A7140225A719A79FE
:100290009006FCD5334A9179324B4906FBD5324A58
:1002A000324911600221516020221A709A7902F0BD
:1002B0000C020C2AFAD12E4B2E4A1A602E4B45F610
:1002C000BF521A6000225A60072243F8042C2B4ABE
:1002D000C3F80C2D62B600F0B3FA144B1B68DA07B2
:1002E00005D5274800F040FA264B274A1A60274BCD
:1002F0001B785B0609D5234C234B22689A4204D114
:100300001F4800F031FA0023236001F0C5FC01F022
:10031000E9F901F023F8FEE70E20054030800440A3
:10032000823F04000100002B10D0034014D0034092
:1003300002D0074000E00740488CFF1F202000004B
:100340002087FF1F488CFF1F148FFF1F0082FF1F95
:100350000000000000E400E05FE400E008ED00E0E1
:100360000050064000400640448004400000333303
:1003700004800440C010050014E000E000002020CC
:10038000355C345A1CE00340A5C3945A00F0074082
:10039000FFFFFFFFFFFFFFFFFFFFFFFFFFFFFFFF6D
:1003A000FFFFFFFFFFFFFFFFFFFFFFFFFFFFFFFF5D
:1003B000FFFFFFFFFFFFFFFFFFFFFFFFFFFFFFFF4D
:1003C000FFFFFFFFFFFFFFFFFFFFFFFFFFFFFFFF3D
:1003D000FFFFFFFFFFFFFFFFFFFFFFFFFFFFFFFF2D
:1003E000FFFFFFFFFFFFFFFFFFFFFFFFFFFFFFFF1D
:1003F000FFFFFFFFFFFFFFFFFFFFFFFFFFFFFFFF0D
:10040000FFFFFFFFFFFFFFFFFFFFFFFFDEF9FFFF23
:1004100010B5054C237833B9044B13B10448AFF33E
:1004200000800123237010BD488CFF1F00000000D6
:1004300024200000084B10B51BB108490848AFF351
:1004400000800848036803B910BD074B002BFBD0A0
:10045000BDE81040184700BF000000004C8CFF1F93
:1004600024200000488CFF1F0000000001210D2007
:1004700000F092B92DE9F04F314CDFF8D4B0236889
:10048000DFF8D0A0DFF8D090DFF8D08095B0064636
:100490000193019D274603E000F076F800280BDC6D
:1004A00023680293029B5B1B9E424FF0000104A84D
:1004B000F2D815B0BDE8F08F9DF810100D2001F0B6
:1004C000010100F063F99DF811303A6803925A2B4C
:1004D000039DE5D14022002104A801F005FC14236E
:1004E0008DF8103072B6174B702119700F22412011
:1004F00080218BF800008AF800201A4619701378C2
:100500001B06FCD5D9F8001062B614AB0E4A43F8AE
:10051000501D1868CDF81100D8F800000B4BCDF82D
:1005200015001868CDF819001068CDF81D0053F8B3
:10053000080CCDF82100FA2104A800F06BF8AFE711
:10054000648CFF1F00000240588004405C8004401F
:10055000070002400600024008000240608004409C
:1005600008B501210D2000F011F94FF47A70FFF762
:1005700081FF0D20002100F009F94FF47A70BDE8E9
:100580000840FFF777BF00BF2DE9F0411F4D204E17
:100590002B6882B00093009F33786BB380460C4683
:1005A0000AE02B680193019BDB1BA34221D844B3D3
:1005B00000F0DCFE3378FBB1042000F0B1F9002834
:1005C000EFD000F1080300F148021D685C689968EB
:1005D000DE68C8F80C6010339342C8F80050C8F8C1
:1005E0000440C8F8081008F11008EED101F026F810
:1005F000402002B0BDE8F0814FF0FF3002B0BDE80E
:10060000F081204602B0BDE8F08100BF648CFF1F7E
:10061000488DFF1F2DE9F041224C234D236882B005
:100620000093009F2B789BB380460E4609E0236819
:100630000193019BDB1BB3422FD800F097FE2B7870
:1006400033B3032000F08AF90328F0D800F0D6FF76
:100650000028ECD008F1400200F10803D8F800505F
:10066000D8F80440D8F80810D8F80C60DE6008F11B
:10067000100890451D605C60996003F11003EDD196
:10068000402404800146032000F0C0F9204601E028
:100690004FF0FF3002B0BDE8F081002002B0BDE8AD
:1006A000F08100BF648CFF1F488DFF1F10B40F4BFB
:1006B00053F8302092F880422CB1012369B182F8BE
:1006C000803010BC704703EBC0035B681A6841B907
:1006D00022F002021A6010BC704782F8003110BC90
:1006E000704742F003021A6010BC7047701E000091
:1006F0001C4A02EBC00301295B6811D004291BD0FE
:1007000052F83000002280F8802229B1022920D03E
:10071000032922D01A6070474FF480721A60704724
:1007200052F830004FF4A27280F880121A601A68F2
:1007300022F020021A60704752F830104FF4A27273
:10074000012081F880021A601A6842F020021A60C3
:10075000704740F203121A6070474FF481721A60BA
:10076000704700BF701E000030B4054B054D064CAD
:10077000002210211A602A602060196030BC704786
:1007800014D0034004D0034000D00340212801D8F6
:10079000FFF78CBF704700BF212801D8FFF7A8BF23
:1007A000704700BF2DE9F843054672B6204F214B34
:1007B000214A1B683C68126862B6520102D5322B8E
:1007C00088BF013495B3C3F5BB431C4EDFF864907A
:1007D000DFF864803F334FF47A72A6FB031302FB09
:1007E00004F404EB131472B6D9F800103A68D8F880
:1007F00000E062B6C1F5BB433F33A6FB03031EF026
:10080000806FC4EB13134FF47A7002D0322988BF83
:10081000013200FB0233B3F57A7F04D3013D05D0EA
:1008200004F57A74DFE700F0A1FDDCE7BDE8F883AA
:10083000648CFF1F18E000E004ED00E0ABAAAAAA58
:10084000F8B52D4B2D49DFF8D0E0DFF8D0C02C4EA5
:100850002C4D2D4C2D4A2E4F4FF4000018604FF0B8
:10086000807018604FF0007018604FF08060186062
:100870004FF0006018600020086028234BF6FF71DD
:10088000CCF80010CEF80030336013602B6023608A
:100890003B60B3629362082245F8242CC4F8D80F59
:1008A00005F57F65C7F8D41F07F5FF2707F5FA6739
:1008B000C6F8F83F2B6006F5FF26C4F8D42F05F5DF
:1008C000FD2504F5FF24386006F2F4761148316006
:1008D00005F5FF6504F5FD642B602360026000F000
:1008E00045FF3220FFF75EFF00F0DCFC4FF4AF70F5
:1008F000BDE8F840FFF756BF08E100E00480034080
:1009000014800340248003402C8003401C8003405B
:100910003480034000800B400C800340088003407B
:10092000431E032B14D872B60A4951F8230068B14C
:1009300070B4094C058834F81320466841F82360E8
:10094000521B24F8132062B670BC704762B6704721
:1009500000207047C08CFF1F0C8FFF1F0138032839
:100960000BD872B6074B53F8203043B100205B68B8
:100970000130002BFBD162B670470020704718464B
:10098000F9E700BF148DFF1FF0B472B61A491B4E71
:10099000012311F8014B194F9A00240742F0010579
:1009A00005D556F8324064B156F83520BAB1013356
:1009B000052BEED162B6124B00221A70F0BC00F08B
:1009C0003DBE0F4C0F4D217847F8325007EB4313D3
:1009D00008304A1E5860227062B6F0BC7047084961
:1009E000094B0A7847F8353007EBC5030830013A60
:1009F00058600A7062B6F0E7801F00000080FF1F99
:100A00003D8DFF1F88004000C8004000431E032B9F
:100A10001DD81B4A400140F0100030B4104472B69B
:100A2000184CE25C032A1BD8DFE802F0021215170B
:100A300003220D88E25410F0080F14BFC823882346
:100A400043EA054308310360416062B630BC704739
:100A500008300222EDE70522EBE708300422E8E740
:100A6000094A52F8230038B1084A52F8230041607D
:100A700042F8231062B6E9E742F82310034AF7E789
:100A80000080FF1F4C8DFF1F148DFF1F248DFF1F43
:100A90002DE9F04FDFF810A3DFF810B387B044E082
:100AA000AB4F4FEA930807EBC809013ED9F8042081
:100AB00003F00803F6B2A2F1080003F0FF04002BD4
:100AC00040F0FC8057F838301B0C99B222F8081C13
:100AD000002B00F0EA809F4B22F8064C42F8044CB1
:100AE00053F82620002A00F0CB819B4D55F8263084
:100AF00058609A4C45F8260034F81630194424F80A
:100B0000161000F07BFD002800F0BE81944A954B42
:100B100019F0080F00F1080018BF1346C9F80400C7
:100B200047F8383008238AF800309AF80040E4B2D9
:100B300061071AD58C4B1B78A3B18C490A7802F057
:100B4000FF0322B1013BDBB20B7003B900BE884941
:100B50000A7802F0FF032AB1013BDBB20B70002BD5
:100B600000F0648104238AF8003004F0080303F0E5
:100B7000FF02002B00F0C6809BF80030DBB21E099C
:100B80008ED19A08724F57F8321007EBC200C1F3AA
:100B90008301013940680C2900F28380DFE801F00D
:100BA000787881818181818142818181070001681A
:100BB000704D714B40680193694B47F832306F4E6E
:100BC000686040F2816288B26B4B29600024012189
:100BD00090421C603C61BC61317000F2E980B0F56C
:100BE000D06F80F00F82B0F5817F00F0DA8100F2E3
:100BF0006B81802800F00182822840F0D881A8888B
:100C00005F4B00F07F00042800F2D2815D4A800033
:100C10000344147054701878840740F102831170F3
:100C2000022174E1544B01931A6832B3564B534E70
:100C3000564819883478057840298E4645F00208D0
:100C400028BF4FF0400E002C84F001043470CEEB2E
:100C500001010CBF8824C82407EBC80689B285F0BF
:100C6000010544EA0E447260198047F83840724426
:100C70000570002966D0019B1A603E4B1A88B2F5B8
:100C8000A06F0ED100219A785970414B1A7008E07C
:100C90003849404C0D68A54200F09980304947F82A
:100CA00032103D4A012313703CE72D4A2D4B19F0B9
:100CB000080F18BF134647F8383033E700F0BEFC82
:100CC000364A374952F82630002B00F0E480586845
:100CD0008C5D42F8260003F10802C9F80420032CB9
:100CE00005D8DFE804F02C02292602228A551A884A
:100CF00019F0080F0CBF8823C82343EA024347F8C2
:100D000038300FE7E00700F19480210600F1D2802F
:100D1000A20706D5234A244913780220DBB21370B8
:100D20000870E30602D5204B10221A7007B0BDE808
:100D3000F08F04228A55DAE705228A55D7E7032285
:100D40008A55D4E7BEF1400F18BF002293E700BFD9
:100D50000080FF1FC08CFF1F6C8CFF1F0C8FFF1FBC
:100D6000C800400088004000488DFF1FD18CFF1F45
:100D7000F88DFF1F348DFF1F688CFF1FD08CFF1F65
:100D8000C0200740408DFF1F7C8CFF1F3C8DFF1F44
:100D9000982007402109000394200740148DFF1F6D
:100DA0004C8DFF1F8820074080200740902007407F
:100DB000B0F5106F00F03E8140F2A28040F62112A3
:100DC000904240F01C82A44A0123137069E74C68EA
:100DD000A2498C427FF462AF0178A9297FF45EAF0B
:100DE000417845297FF45AAF8178C2297FF456AF04
:100DF000C1786B297FF452AF99489A4E01783478C4
:100E000081F00105002C41F0020105700CBF882023
:100E1000C82084F0010447F8310007EBC101924873
:100E20003470002505244D60047037E700F0D6FDCE
:100E300098E68E4B88488A491A614FF0020E80F876
:100E400000E08B4F0A708B49196099608A4E8B4D78
:100E50008B4C9A610D213970FF213170DFF848E227
:100E600029702270874D884A8EF800109F27012430
:100E700006F8047C5D600470DA6007B0BDE8F08FAE
:100E800043F82600814D34E6814A47F8380013784C
:100E90000133137046E68B5D032B00F2A78001A29D
:100EA00052F823F0250B0000250B0000FB0E00007C
:100EB000F50E00006E49714B80220D2008701A70EB
:100EC000A2077FF52EAF25E740F20232904240F0B4
:100ED0008E81AA8802F07F02042A68D86D88002DCE
:100EE00065D16348029192001044027842F00202F8
:100EF000027048E101238B5514E600238B5511E65F
:100F0000B0F5086F53D16348634A00781070ED88DC
:100F10008D4280F09B815248047844F0020C07EB2C
:100F2000CC01402DAE464FF0010328BF4FF0400EDC
:100F30004A6002EB0E09CEEB05014FEA0E48029320
:100F40000025C82242EA080384F0010247F83C3039
:100F500035700270DFF814C1424BDFF8048151BBD9
:100F6000BEF1400F7FF42FAF42F0020207EBC20345
:100F7000DFF8F8E0C3F8049095BB0D0445F0880550
:100F80009DF8083033704029047009EB01034EF8D6
:100F900032507FF418AF0021404A0198118003605D
:100FA00011E7AA8802F07F02042A40F22D81304B1B
:100FB0000F221A7007E74029D6D942F002020CEB43
:100FC000C200C0F804907DB135489DF808501D70EE
:100FD000403988F8004009F140034CF83200DBE763
:100FE0000D0445F0C805CBE72248EEE719F0080FDD
:100FF0000CBF022303238B5594E5274A022114706A
:10100000547084E727494A68002AD0D06C88B5F824
:1010100004E003E00C314A68002AC8D00B88A342E0
:10102000F8D14B887345F5D1240A032C0CBF1178F5
:1010300009896CE7174A0D4CA978117004F18005F5
:1010400002E00834AC4231D0236A1A06F9D5606A4E
:10105000083800F0F3FAF4E7942007400100040098
:101060003C8DFF1FD08CFF1FD18CFF1F0080FF1F06
:10107000C0200740880040008820074080200740AB
:1010800098200740808CFF1FD48CFF1F6C8CFF1FA3
:101090003D8DFF1F488DFF1F408DFF1F7C8CFF1F64
:1010A000C8004000841F00008C2007406F49704B2F
:1010B000704A02917049714D714C059603954FF03D
:1010C0000009884616461D460494286828B14468DD
:1010D00000F0B4FA2046002CF9D100232B60039BCA
:1010E00030681A46002342F8293028B1446800F0DD
:1010F000A5FA2046002CF9D100223260029A98F815
:1011000000301146002241F8042B049A0291023B60
:101110004FF0000122F81910032B07D8DFE803F085
:10112000470247024FF0010388F8003009F1010936
:10113000B9F1040F05F1040506F1040608F10108F0
:10114000C3D1504B059EDFF85491DFF85481002144
:101150001970012518F8013B09F8043B1B072BD433
:10116000AC0044F0020244F00304002347F832309C
:1011700047F83430444B994505F10105EAD13378FD
:10118000029383F001050021894688468E460A466F
:101190003E48047844F0020C07EBCC030393029B17
:1011A000002B039B5A600CBF8822C822CAE64FF06E
:1011B000000388F80030B9E700F020FAAC0007EB34
:1011C000451300F10802002837D05A60304B47F829
:1011D000343000F013FA44F0010307EBC30200F1CE
:1011E000080100B351602B4A47F83320B9E7B0F546
:1011F000A06F7FF4DCAE012300250293C3E740F625
:1012000021229042F7D0D2E66D88002D7FF4CFAE38
:101210002148029192001044027822F002020270EA
:10122000B1E7022173E6174B44F001021B7847F83F
:101230003200144A0133137093E7124B114A1B78A2
:10124000AC00013347F834001370C2E740298E46E2
:101250004FF0010328BF4FF0400ECEEB01014FEAE3
:101260000E4802EB0E090025029391E7248DFF1F23
:10127000C08CFF1F148DFF1F4C8DFF1F6C8CFF1F38
:101280000C8FFF1F3D8DFF1FD42007403C8DFF1F9B
:1012900088004000C8004000C0200740C42007402C
:1012A000801F00002DE9F843204C00F01DFA0022B9
:1012B00004F1880023461A605A60083383424FF0D5
:1012C0000001F8D11A4A1B4F13681B4D1B481C4ED6
:1012D000DFF87880DFF878C0DFF87890DFF878E022
:1012E00043F480231360C4F307233B70C4F3074324
:1012F0002B70240EFF2302F528320470114D88F85C
:10130000003011488CF80030D4323370012389F852
:10131000003070268EF800104FF40074102107F88A
:10132000183C2E7004601170BDE8F8830080FF1F28
:10133000348004409C200740B0200740B420074080
:101340001020074049E400E008E100E08020074069
:1013500088200740942007400021074008B5FFF788
:1013600085F8FFF7FDF800F001F8FAE738B5224CF0
:10137000237803B138BD0123237000F0FDFA70BB60
:1013800000F04CFB40BB00F061FA10BB00F002FC27
:10139000E0B900232370EFF30583002BEAD1EFF3CC
:1013A000108172B6154B1868E0B1154C2278CAB995
:1013B00045691D6001232370C5B1AA6101B962B6F8
:1013C00000254577836898472570D3E700F060FCD7
:1013D000DFE700F05FFCD9E700F058FCD3E700F04E
:1013E00013F8CDE70029C5D162B638BD054B1D60A5
:1013F0000029E5D1E3E700BF508DFF1F648DFF1F7B
:10140000688DFF1F608DFF1F704700BF10B4EFF3A2
:10141000108272B6437F33B9017F012907D00329B7
:101420000FD00123437702B962B610BC7047124C4B
:101430002168A1B1114943610B688361086058615B
:10144000EFE70F4C216881B10E4943610B6883615E
:10145000086058610C4B4FF080511960E1E7074B71
:101460004161816120601860DBE7064B4161816169
:1014700020601860EEE700BF648DFF1F608DFF1FC6
:10148000548DFF1F588DFF1F04ED00E010B4047F42
:101490004160022CC26002D010BCFFF7B7BF836866
:1014A00010BC184770B5EFF3108272B60C4C206870
:1014B00080B10C4E00254369236073B19D6102B970
:1014C00062B6457783689847EFF3108272B620685A
:1014D0000028F0D102B962B670BD3360EFE700BFFB
:1014E000548DFF1F588DFF1FFFF7DCBF184A30B423
:1014F0001468002C27D0036821688B420ED2CB1AC7
:1015000000218460C1602360E060106002230375E5
:1015100030BC704711688B42144608D3A2685B1A2E
:101520000360002AF6D18260C460A060EEE7D26852
:10153000C2608460E060C568CB1A0222A8602360A4
:10154000027530BC70478460C4601060DEE700BF85
:101550005C8DFF1FF8B5224E34682CB32368002B36
:101560003AD1204F1D4604E03468ECB12368002BCB
:1015700032D1A36803B1DD6020693360036825754B
:101580001B68BB4221D1037F4560022BC46020D081
:10159000FFF73CFF6368002BE6D023602046FFF78F
:1015A000A5FF3468002CE1D1EFF3108372B60E4A28
:1015B00000211068116003B962B628B18468FFF792
:1015C00095FF20460028F9D1F8BD22460021984712
:1015D000E0E783689847DDE7013B2360E4E700BF6D
:1015E0005C8DFF1F8D1400006C8DFF1F024A136875
:1015F00001331360FFF7AEBF648CFF1F72B60D4856
:101600000268B2FA82F30B2B10DC4FF00041D94094
:1016100022EA0102026062B6074803EBC303DB0063
:10162000C2180021C15010465160704762B60020B8
:10163000704700BF2087FF1FBC83FF1F0D4B0E4A62
:10164000C31AA2FB03231B090B2B0CD80B4A1278DD
:1016500052B972B60A484FF00041026821FA03F30A
:101660001A43026062B67047064A1278002AF0D028
:10167000FFF78AB9BC83FF1F398EE3383D8DFF1F0A
:101680002087FF1F488DFF1F08B5104C08E0236816
:1016900059050DD423681A050FD42368DB0411D42F
:1016A00023685803F3D5FFF7F3F923685905F1D5FB
:1016B00000F0C4F923681A05EFD500F0D7F82368C5
:1016C000DB04EDD500F076FAEAE700BF3480044091
:1016D00008B5FFF7D9FF00BF014B10221A807047F1
:1016E00000200540704700BF70B584B072B6194B3A
:1016F000194D1A48702241260F2480211A702E702D
:101700001A460470197013781B06FCD5144B186820
:1017100062B6144B144C984298BF00EB800001A9AC
:1017200098BF40000A2200F00FFA01A920460023CA
:1017300011F8012B01333AB10A2B20F8022FF7D10F
:101740001623237004B070BD5B00DBB2237004B0BD
:1017500070BD00BF000002400700024006000240CA
:10176000080002407F9698000888FF1F30B429487F
:10177000294A2A4B2A4D6024E121047011701B78FC
:10178000284C082B30D00A2B2748284937D00C2B5F
:101790000CBF34223C2212232A60236002600B60BB
:1017A000234B24491B78244ABBB101230B601360EF
:1017B000224B23491B78234A012B26D9042B0FD90E
:1017C000082B1ED9102B94BF862387230B60136030
:1017D0001D4B01221A7030BC70470B601360E7E7A5
:1017E00084230B601360F3E700F58E200F49083067
:1017F000002213232A60236002600B60D0E73822A6
:10180000F7E785230B601360E2E780230B6013602A
:10181000DEE700BF00400740014007401E88FF1F71
:1018200008B003400CB0034008B00B400CB00B40B4
:10183000718DFF1F20B0034020B00B401F88FF1F99
:1018400024B0034024B00B40708DFF1F054A064BA7
:1018500010781B78C0B2DBB2984238BF4030C01A53
:10186000704700BFE48DFF1F798DFF1FF0B4384B28
:101870001A7912F0300F2CD072B6997D01F0FF0268
:1018800000293DD062B6334F334938780D78334E56
:101890001C46C0B2EDB2431C402BE17928BF0023A7
:1018A000AB4202F1FF32C9B21CBFF154184612F02C
:1018B000FF02F0D12A4B1B68C2B23A704BB1A8426A
:1018C00036BFC5F14005401B40192728C4BF01227F
:1018D0001A701F49CA78D2B2150616D452060DD511
:1018E0001B4B1B795B0609D51E4B1F491B68002249
:1018F0000A7003B11A70164B3C22DA70F0BC7047C4
:101900004022D9795A7462B6E3E70B791C06E5D513
:10191000164B174E1C783378E4B2DBB29C420ED0E3
:10192000144D01E0A3420AD00133282B28BF002325
:101930000879E85CC0B2C871087D0728F2D9DBB22B
:10194000034933700B79180644BF7C23CB70C5E77D
:1019500000B00640E48DFF1F798DFF1FA48DFF1F8F
:10196000748DFF1FE88DFF1F788DFF1FEC8DFF1F0B
:10197000E58DFF1F7C8DFF1F38B5164D2868E0B13F
:1019800001884488A14213DD03191B7A83B104F155
:101990000803C2180C1B002302E012F8011F21B13A
:1019A0000133A342F9D1204638BD1C46204638BD3C
:1019B000FFF744FE0020286038BD074B1B780BB9A9
:1019C000002038BD0220FEF7ABFF28600028D7D1E9
:1019D000F6E700BFF48DFF1F488DFF1F0D4B1B78EE
:1019E000BBB910B50C4C216803F0FF024B883F2BAC
:1019F00007DC07330B4401F1470003F8012F834252
:101A0000FBD140230B800120FFF700F80023236067
:101A100010BD7047ED8DFF1FF08DFF1F054A064B6F
:101A200010781B78C0B2DBB2984238BF4030C01A81
:101A3000704700BF008EFF1F018EFF1FF0B4384BB0
:101A40001A7912F0300F2CD072B6997D01F0FF0296
:101A500000293DD062B6334F334938780D78334E84
:101A60001C46C0B2EDB2431C402BE17928BF0023D5
:101A7000AB4202F1FF32C9B21CBFF154184612F05A
:101A8000FF02F0D12A4B1B68C2B23A704BB1A84298
:101A900036BFC5F14005401B40192728C4BF0122AD
:101AA0001A701F49CA78D2B2150616D452060DD53F
:101AB0001B4B1B795B0609D51E4B1F491B68002277
:101AC0000A7003B11A70164B3C22DA70F0BC7047F2
:101AD0004022D9795A7462B6E3E70B791C06E5D542
:101AE000164B174E1C783378E4B2DBB29C420ED012
:101AF000144D01E0A3420AD00133402B28BF00233C
:101B00000879E85CC0B2C871087D0728F2D9DBB259
:101B1000034933700B79180644BF7C23CB70C5E7AB
:101B200000A00640008EFF1F018EFF1F448EFF1F86
:101B3000FC8DFF1F888EFF1F848EFF1F8C8EFF1F62
:101B4000858EFF1F048EFF1FF0B44D1E2E4600240D
:101B500000E00134B0FBF2F302FB1300092800F1AE
:101B600030078ABF3730F8B2C0B206F8010F184606
:101B7000002BEED10A1953704CB1107815F8016F93
:101B800028700133E01A834202F80169F5DB084648
:101B9000F0BC7047054A064B10781B78C0B2DBB228
:101BA000984238BF4030C01A704700BF948EFF1F64
:101BB000958EFF1F30B42B4B1A7994061FD52A48F7
:101BC000DA790378294901333F2B0978C8BF00230C
:101BD0008B42D2B203D0264CD9B2E2540170254ACE
:101BE000116861B1244A1278D2B2934236BFC2F171
:101BF00040029B1A9B18272BC4BF01230B70194A64
:101C0000D378DBB2180611D45A060DD5154B1B79C3
:101C10005B0609D5194B1A491B6800220A7003B1EB
:101C20001A70104B2C22DA7030BC704711790906FB
:101C3000EAD5144910480C780178C9B28C420DD00D
:101C40004A1C272A84BF00210A460F4D054C98BF25
:101C5000D1B2AA5CD2B2E2710170D5E76C21D17029
:101C6000D2E700BF00C00640948EFF1F958EFF1F75
:101C7000C08EFF1F908EFF1F018FFF1F048FFF1F5D
:101C8000008FFF1F088FFF1F988EFF1F704700BF38
:101C9000704700BF704700BF70B50F4E0F4D761BE9
:101CA000B61018BF002405D0013455F8043B9847FE
:101CB000A642F9D10A4E0B4D761B00F0A7F9B610DB
:101CC00018BF002406D0013455F8043B9847A642BB
:101CD000F9D170BD70BD00BF1820000018200000B1
:101CE000202000001820000070B4840746D0541E45
:101CF000002A41D0CDB2034602E0621EE4B314468E
:101D000003F8015B9A07F8D1032C2ED9CDB245EA2E
:101D100005250F2C45EA054519D903F11002264681
:101D2000103E0F2E42F8105C42F80C5C42F8085C42
:101D300042F8045C02F11002F2D8A4F1100222F081
:101D40000F0204F00F041032032C13440DD91E4669
:101D50002246043A032A46F8045BFAD8221F22F0EE
:101D600003020432134404F003042CB1C9B21C442E
:101D700003F8011BA342FBD170BC70471446034615
:101D8000C2E700BF024B13B1024800F005B870472C
:101D900000000000A51D0000002301461A46184659
:101DA00000F014B838B5074D074C2C1BA41005D013
:101DB000013C55F8043D9847002CF9D1BDE8384066
:101DC00000F02EB900000000000000002DE9F047EF
:101DD000254C2568D5F848410646884692469946DE
:101DE000C4B360681F2817DC431C76B104EB800580
:101DF0000122C5F888A0D4F8881182401143022E30
:101E0000C4F88811C5F808911ED00230636044F808
:101E100020800020BDE8F087144B03B34FF4C87056
:101E2000AFF300800446D0B1D5F84831002780E8F0
:101E30008800C5F8484138460123C4F88871C4F8C1
:101E40008C71002EE1D0D1E7D4F88C110A43C4F88C
:101E50008C21DAE705F5A674C5F84841C1E74FF0D3
:101E6000FF30BDE8F08700BF082000000000000040
:101E70004008FE4340A004404408FE4344A0044000
:101E80000018FE4300C004403000FE433090044080
:101E90003400FE43349004401C18FE431CC0044030
:101EA0001018FE4310C004400818FE4308C0044048
:101EB0000C18FE430CC004400C10FE430CB0044050
:101EC0001010FE4310B004401810FE4318B0044038
:101ED0001C10FE431CB004401410FE4314B0044018
:101EE0000418FE4304C004400010FE4300B0044048
:101EF0000008FE4300A004400408FE4304A0044080
:101F00000C08FE430CA004400808FE4308A004404F
:101F10001418FE4314C004401818FE4318C00440AF
:101F20000410FE4304B004400810FE4308B004400F
:101F30001400FE43149004404C08FE434CA004409F
:101F40000420FE4304D004402410FE4324B0044087
:101F50002010FE4320B004402810FE4328B0044067
:101F60002C10FE432CB004400020FE4300D004405F
:101F70004808FE4348A004401000FE43109004406F
:101F800015191519000100002487FF1F1200000019
:101F9000000200005087FF1F4900000000220100DE
:101FA0009C87FF1F21000000002101008287FF1F86
:101FB0000900000000220000C087FF1F1C00000075
:101FC000002100006287FF1F0900000000030000DD
:101FD0000488FF1F00000000010309043887FF1F69
:101FE0000000000002030904DC87FF1F000000005E
:101FF000030309040888FF1F000000000000000020
:1020000000000000000000002088FF1FF8B500BF9E
:10201000F8BC08BC9E467047851D000035040000D2
:04202000F8B500BF50
:10202400FFFFFFFF1201010100000040C0168604FB
:10203400000201020301000018035400650065005A
:102044006E00730079006400750069006E006F0013
:1020540009024900020100C0320904000002030021
:102064000000092111010001221C0007058303401F
:1020740000010705040340000109040100020300F4
:1020840000000921110100012221000705810340FC
:1020940000010705020320000200000006C9FF0931
:1020A40004A15C7508150026FF009540097581029E
:1020B40095200976910295040976B102C0000000CA
:1020C40006ABFF0A0002A1017508150026FF009562
:1020D4004009018102954009029102C0260354007F
:1020E400650065006E007300790064007500690086
:1020F4006E006F0020005200610077004800490024
:1021040044000000040309040C0300000000000064
:1021140000000000000000000000000000000A04AD
:10212400000000000C8BFF1F748BFF1FDC8BFF1F54
:10213400000000000000000000000000000000009B
:10214400000000000000000000000000000000008B
:10215400000000000000000000000000000000007B
:10216400000000000000000000000000000000006B
:10217400000000000000000000000000000000005B
:10218400000000000000000000000000000000004B
:10219400000000000000000000000000000000003B
:1021A400000000000000000000000000000000002B
:1021B400000000000000000000000000000000001B
:1021C400000000000000000001000000000000000A
:1021D4000E33CDAB34126DE6ECDE05000B000000CF
:1021E40000000000000000000000000000000000EB
:1021F40000000000000000000000000000000000DB
:1022040000000000000000000000000000000000CA
:1022140000000000000000000000000000000000BA
:00000001FF
