:10000000F8FF022099010000B921000071210000D1
:100010007121000071210000712100007121000098
:10002000712100007121000071210000B921000040
:10003000B921000071210000752800007929000015
:10004000B9210000B9210000B9210000B921000048
:10005000B9210000B9210000B9210000B921000038
:10006000B9210000B9210000B9210000B921000028
:10007000B9210000B9210000B9210000B921000018
:10008000B9210000B9210000B9210000B921000008
:10009000B9210000B9210000B9210000B9210000F8
:1000A000B9210000B9210000B9210000B9210000E8
:1000B000B9210000B9210000B92100000D10000095
:1000C000B92100002D220000B921000059230000B1
:1000D000B921000051240000B9210000B92100001D
:1000E000B9210000B9210000B9210000B9210000A8
:1000F000B9210000B9210000B9210000B921000098
:10010000B9210000B9210000B9210000B921000087
:10011000B9210000CD120000B9210000B921000072
:10012000B9210000B9210000B9210000B921000067
:10013000B9210000B9210000B9210000B921000057
:10014000B9210000B921000049250000B9210000B3
:1001500041260000B9210000B9210000B9210000AA
:10016000B9210000B9210000B9210000B921000027
:10017000B9210000B9210000B9210000B921000017
:10018000B9210000B9210000B9210000B921000007
:10019000B9210000B9210000584B4CF2205210B593
:1001A0001A804DF628121A8000BF00BF02F008F82E
:1001B000534B4FF030621A60524A9A60524ADA60EA
:1001C000524B4FF470021A60514A136813F4807353
:1001D00004D150490B604FF4A85313604E4B1A786A
:1001E000110703D51A7842F008021A704B4B4C499C
:1001F0002A221A704B4A4C4B8B4204D252F8040FFD
:1002000043F8040BF8E7494B494900228B4202D2DC
:1002100043F8042BFAE74749474A002352F82300E2
:1002200041F823000133662BF8D1444B444A802126
:1002300003F8011B9342FBD1424B3E4A1A60424BEA
:100240008A221A70A3F5805324225A70A0221A70B1
:100250009A799207FCD59A79D406FCD43B4A9379D3
:1002600003F00C03082B394BF9D103221A714022F9
:100270005A719A799006FCD5344A9179334B4906E4
:10028000FBD5334A334911600221516020221A7094
:100290009A7902F00C020C2AFAD12F4B2F4A1A60DD
:1002A0002F4B45F6BF521A6000225A60072243F8CE
:1002B000042C2C4AC3F80C2D62B600F0E3FC154B5D
:1002C0001B68DA0705D5284800F062FC274B284A4E
:1002D0001A60284B1B785B0609D5244C244B2268F6
:1002E0009A4204D1204800F053FC0023236002F01E
:1002F0007FFB01F06BFF01F0D1FEFEE70E20054011
:1003000030800440823F04000100002B88ED00E0B3
:1003100010D0034014D0034002D0074000E0074053
:10032000280CFF1FB42E0000F806FF1F280CFF1F2B
:100330007410FF1F0002FF1F0000000000E400E037
:1003400056E400E008ED00E00050064000400640A2
:10035000448004400000333304800440C010050092
:1003600014E000E000002020CFD5A05D1CE0034099
:10037000A5C3945A00F00740FFFFFFFFFFFFFFFFF8
:10038000FFFFFFFFFFFFFFFFFFFFFFFFFFFFFFFF7D
:10039000FFFFFFFFFFFFFFFFFFFFFFFFFFFFFFFF6D
:1003A000FFFFFFFFFFFFFFFFFFFFFFFFFFFFFFFF5D
:1003B000FFFFFFFFFFFFFFFFFFFFFFFFFFFFFFFF4D
:1003C000FFFFFFFFFFFFFFFFFFFFFFFFFFFFFFFF3D
:1003D000FFFFFFFFFFFFFFFFFFFFFFFFFFFFFFFF2D
:1003E000FFFFFFFFFFFFFFFFFFFFFFFFFFFFFFFF1D
:1003F000FFFFFFFFFFFFFFFFFFFFFFFFFFFFFFFF0D
:10040000FFFFFFFFFFFFFFFFFFFFFFFFDEF9FFFF23
:1004100010B5054C237833B9044B13B10448AFF33E
:1004200000800123237010BD280CFF1F0000000076
:10043000B82E0000084B10B51BB108490848AFF3AF
:1004400000800848036803B910BD074B002BFBD0A0
:10045000BDE81040184700BF000000002C0CFF1F33
:10046000B82E0000280CFF1F0000000008B50D206A
:10047000012100F0B3FB4020BDE8084000F096BC2D
:10048000F8B5002504462E46012708E0282C18D090
:10049000292C1DD00135082D04F101040FD0272C83
:1004A000F4DCE0B200F08CFB0028F3D007FA05F38F
:1004B0000135082D46EA030604F10104EFD1F0B23C
:1004C000F8BD422000F084FAB0F5007FEEDAE1E7F3
:1004D000432000F07DFAB0F5007FE7DADAE700BFED
:1004E0002DE9F04F924E934C3368DFF864A2DFF8A9
:1004F000649297B080460093009F33680193019BFC
:100500008B4DDB1B984540F2B58006A8002101F019
:10051000E1FC002817DC00F045FDC928864D31D0EC
:100520002B78002BE9D1854B1A6833680593059B1E
:100530009B1AB3F57A7FE0D901210D2000F04EFB24
:1005400001232B70D9E701210D2000F047FB9DF816
:1005500018100D2001F0010100F02CFB9DF819305E
:100560002A6802925A2B029F00F087803368039317
:10057000724B039A704D1A6000232B7000F012FD2D
:10058000C928CDD14FF0020B5FFA8BF000210BF19F
:10059000010B00F023FBBBF1280FF5D136238DF8BA
:1005A000183072B670232370654ACAF80020802381
:1005B000237023781906FCD5D9F8003062B6180AE2
:1005C000190C2A228DF819308DF81A001B0E022002
:1005D0008DF81C308DF81B108DF81D20FFF750FF93
:1005E0008DF81E000A20FFF74BFF8DF81F00122028
:1005F000FFF746FF8DF820001A20FFF741FF8DF826
:1006000021002220FFF73CFF00238DF822008DF807
:1006100023308DF824308DF825300DF117000DF1C1
:10062000250E45F6962310F8012F4FF0080B534086
:10063000DA074FEA530146BF81F4204383F00103F8
:10064000C3F34F03BBF1010BF2D17045EBD14FEA7D
:10065000132E102106A88DF826308DF827E000F023
:100660002DFC33680493049B344985F800B00B607B
:100670001A465AE717B0BDE8F08F4022002106A8BD
:1006800002F0DEF914238DF8183072B6702323704F
:100690002B4ACAF800208023237023781806FCD543
:1006A000D9F8003062B68DF81930190A1A0C1B0EF1
:1006B0008DF81C30234B8DF81A108DF81B201B6809
:1006C0008DF81D30190A1A0C1B0E8DF820301E4BA8
:1006D0008DF81E108DF81F201B688DF82130190A27
:1006E0008DF82210194A190C1B0E8DF823108DF865
:1006F000243013688DF82530190A8DF82610190C4E
:100700001B0E8DF827108DF8283052F8043C8DF818
:100710002930190A1A0C8DF82A101B0E06A8FA2186
:100720008DF82B208DF82C3001F01AFC1EE700BF4D
:10073000500CFF1F00000240F806FF1F440CFF1F73
:1007400000000741608004405C8004405880044001
:10075000040002400C00024010B50C4C23787BB919
:100760004FF47A70FFF7BCFE23781BB100210D20F7
:1007700000F020FA4FF47A70BDE81040FFF7B0BEE9
:1007800001210D2000F016FAEAE700BFF806FF1F6E
:10079000044A054B126882B00192019A1A6002B0B5
:1007A000704700BF500CFF1F440CFF1F374A3849E9
:1007B00013681B06FCD40B6813F08003F8D172B6E3
:1007C00034490A78002A5FD0334A3448F0B4344CB4
:1007D000176806682568D4680C303E4414320068F7
:1007E0001268304F35442C4420440244C2F34E0278
:1007F0002D4E2E482E4D2F4C42F400423A60376861
:1008000006682D682C4A24680C303E440068126843
:100810002A4F35442C4420440244C2F34E02284E51
:100820002848294D294C42F400423A60376806684E
:100830002D68274A24680C303E4400681268254F12
:1008400035442C4420440244C2F34E02224E234835
:10085000234D244C42F400423A60376806682D6804
:10086000214A24680C303E440068126835442C4408
:1008700020440244C2F34E021C4842F4004202608B
:100880000B7062B6F0BC704762B6704724B003408C
:1008900024B00B40490CFF1F38B003403CB003406C
:1008A00040B003402CB0034058B003405CB003405C
:1008B00060B0034064B003406CB0034030B003400C
:1008C00038B00B403CB00B4040B00B4044B00B4044
:1008D0004CB00B402CB00B4058B00B405CB00B4000
:1008E00060B00B4064B00B406CB00B4030B00B40BC
:1008F00030B42948294A2A4B2A4D6024E12104704A
:1009000011701B78284C082B30D00A2B2748284917
:1009100037D00C2B0CBF34223C2212232A602360D8
:1009200002600B60234B24491B78244ABBB101238E
:100930000B601360224B23491B78234A012B26D9D5
:10094000042B0FD9082B1ED9102B94BF8623872385
:100950000B6013601D4B01221A7030BC70470B6096
:100960001360E7E784230B601360F3E700F58E2044
:100970000F490830002213232A60236002600B60B5
:10098000D0E73822F7E785230B601360E2E7802386
:100990000B601360DEE700BF0040074001400740E6
:1009A000F906FF1F08B003400CB0034008B00B402D
:1009B0000CB00B404C0CFF1F20B0034020B00B408C
:1009C000FA06FF1F24B0034024B00B40490CFF1F60
:1009D00047282FD8334B2DE9F0411E5CFF2E2BD03A
:1009E000314B1B78002B2AD132062CD472B62F4DF6
:1009F0002F4C2F46012326602B7062B672B62368F7
:100A00001B060CD43B781BB9F4E72B78002BF1D0F4
:100A100062B601F04BFB72B623681806F5D5254B7C
:100A20001B6800222A7062B6234A107843FA00F04D
:100A3000BDE8F081002070470020BDE8F081FFF79D
:100A4000B5FE3206D2D572B61C4DDFF87C801C4C48
:100A500006F04007FFB206F03F06D8F80030DFB1DD
:100A600023F01003C8F8003001232660134A2B70CE
:100A700062B672B6236819060CD413781BB9ECE77A
:100A80002B78002BE9D062B601F010FB72B6236818
:100A90001B06F5D50B4BC3E743F01003C8F8003035
:100AA000E2E700BFC82B0000490CFF1F4B0CFF1FE3
:100AB00000B0034010B00340480CFF1F4A0CFF1F5A
:100AC00000B00B4010B00B400CB00B4010B4114BF9
:100AD00053F8302092F8804234B1012379B182F882
:100AE00080305DF8044B704703EBC0035B681A6805
:100AF00051B922F002021A605DF8044B704782F887
:100B000000315DF8044B704742F003021A605DF853
:100B1000044B7047102C00001C4A02EBC003012953
:100B20005B6811D004291BD052F83000002280F8F5
:100B3000802229B1022920D0032922D01A607047CF
:100B40004FF480721A60704752F830004FF4A2726E
:100B500080F880121A601A6822F020021A6070472A
:100B600052F830104FF4A272012081F880021A600E
:100B70001A6842F020021A60704740F203121A60AD
:100B800070474FF481721A60704700BF102C00004C
:100B900030B4054B054D064C002210211A602A6026
:100BA0002060196030BC704714D0034004D003406B
:100BB00000D003403F2801D8FFF788BF704700BF2F
:100BC0003F2806D8044B53F8303093F80002C0B2E7
:100BD00070470020704700BF102C00003F2801D84C
:100BE000FFF79ABF704700BF2DE9F843054672B67C
:100BF000204F214B214A1B683C68126862B65201A3
:100C000002D5322B88BF013495B3C3F5BB431C4ECC
:100C1000DFF86490DFF864803F334FF47A72A6FB0C
:100C2000031302FB04F404EB131472B6D9F800109A
:100C30003A68D8F800E062B6C1F5BB433F33A6FB83
:100C400003031EF0806FC4EB13134FF47A7002D0CD
:100C5000322988BF013200FB0233B3F57A7F04D317
:100C6000013D05D004F57A74DFE701F01FFADCE7F7
:100C7000BDE8F883500CFF1F18E000E004ED00E031
:100C8000ABAAAAAAF8B53E4B3E49DFF818C13E4EC2
:100C90003E4ADFF814E13E4D3E4C3F4F4FF00060BE
:100CA00018604FF0805018604FF0005018604FF0FF
:100CB000804018604FF00040186000200860282332
:100CC0004BF6FF71CCF80010CEF8003033600EF513
:100CD000012E13602B60236005F500253B6004F5B1
:100CE0000024B36207F50027936206F5012602F59A
:100CF00001220EF1100E05F6E87504F6E87407F50A
:100D00007F67103220362B602360CEF800303B60C6
:100D100013603360214EBB61936108223260A7F5F6
:100D2000002706F58056203F083638603160BB60EA
:100D3000F36047F8042C06F5FD2607F5FE2706F2BA
:100D4000FC76043730603960B360FB6046F8042CF1
:100D50001644C7F8FC0F06F6FC76114831602B608C
:100D600023600260FFF7C4FD1920FFF73DFF00F08C
:100D7000F1FF40F21310BDE8F840FFF735BF00BFA8
:100D800004E100E004800340148003401C80034021
:100D9000248003402C8003403480034000800340C3
:100DA00000900B40088003400C800340324A3349D6
:100DB0001368F0B543F4806313600A78304F314E06
:100DC000314D324C32490023152A3B7033702B7061
:100DD00023700B7045D01B2A3ED082B32D4B1B785D
:100DE000052B34D01A2B41D0012B1BD01F281FD824
:100DF000002002460125284B284C1A7028495D70B6
:100E000004224FF0020E88273C26402598729A70E3
:100E10004FF0004083F813E05A751F74DE702570A0
:100E20000860F0BD1F4B4FF451721F281A60DFD9C4
:100E3000C0F34432C0F3471500F01F00DBE71A4B44
:100E400040F213321A60134B1B78052BCAD1174B93
:100E50004FF451721A60C9E7154B40F213321A6011
:100E6000BCE7144B40F213321A60B7E7124B4FF451
:100E700051721A60BAE700BF348004409C0CFF1F17
:100E8000580CFF1F590CFF1FE80CFF1FE10CFF1F40
:100E9000E00CFF1FFB06FF1F00A006401FE400E060
:100EA00000E100E044A0044040A004401CC0044015
:100EB0003C90044018C00440389004402DE9F84F9D
:100EC000294B1B685A0548D5284B1B6805460BB1B2
:100ED00001221A7005EB010A554540D2DFF89C80CB
:100EE000234CDFF89C90234F0AE015F8012B09F8FA
:100EF0000B20214A0123AA45137088F800602ED0E8
:100F000098F80030227803F1010BBBF13F0F86BF48
:100F10000026B3465FFA8BF69345E6D1BC22FA7001
:100F200005E03A7913060BD422789345DDD101F020
:100F30004FF94028F5DDFF28F6DD01F0B7F8F3E7BB
:100F4000227801323F2A86BF00210A46D1B219F821
:100F50000220D2B2FA712170E6E7BDE8F88F054BA6
:100F6000BC22DA70BDE8F88F34800440E40CFF1F27
:100F7000E10CFF1F00A00640E00CFF1FE80CFF1F64
:100F80005C0CFF1F054A064B10781B78C0B2DBB221
:100F9000984238BF4030C01A704700BF580CFF1F3E
:100FA000590CFF1F30B4154B154C1A782378D2B268
:100FB000DBB29A421ED001333F2B0ED91149124B9E
:100FC000087819680023C0B2237021B1D31A1A2BF4
:100FD00001DC00230B7030BC70470A480A49C05C32
:100FE0000968DDB2C0B225700029F4D09A4238BF3A
:100FF0004032EBE74FF0FF30EDE700BF580CFF1F2A
:10100000590CFF1FA00CFF1F540CFF1FF0B4384BEE
:101010001A7912F0300F2CD072B6997D01F0FF02D0
:1010200000293DD062B6334F334938780D78334EBE
:101030001C46C0B2EDB2431C402BE17928BF00230F
:10104000AB4202F1FF32C9B21CBFF154184612F094
:10105000FF02F0D12A4B1B68C2B23A704BB1A842D2
:1010600036BFC5F14005401B40192728C4BF0122E7
:101070001A701F49CA78D2B2150616D452060DD579
:101080001B4B1B795B0609D51E4B1F491B680022B1
:101090000A7003B11A70164B3C22DA70F0BC70472C
:1010A0004022D9795A7462B6E3E70B791C06E5D57C
:1010B000164B174E1C783378E4B2DBB29C420ED04C
:1010C000144D01E0A3420AD00133402B28BF002376
:1010D0000879E85CC0B2C871087D0728F2D9DBB294
:1010E000034933700B79180644BF7C23CB70C5E7E6
:1010F00000A00640580CFF1F590CFF1FA00CFF1F3B
:10110000540CFF1FE40CFF1FE00CFF1FE80CFF1F37
:10111000E10CFF1F5C0CFF1F431E032B14D872B69B
:101120000A4951F8230068B170B4094C058834F8B5
:101130001320466841F82360521B24F8132062B63E
:1011400070BC704762B6704700207047440DFF1FA7
:101150006C10FF1F013803280BD872B6074B53F8E9
:10116000203043B100205B680130002BFBD162B618
:101170007047002070471846F9E700BF980DFF1F21
:1011800030B472B62B4A13781D0706D52A4B196A5C
:10119000002936D0996A002941D053781C0706D51A
:1011A000254B196C00293ED0996C002939D09378D1
:1011B000190705D5204B196E002936D0996E89B1D3
:1011C000D3781B0707D51C4BD3F880207AB3D3F80C
:1011D000882011213AB162B6184B00221A7030BC37
:1011E00000F052BE0D21154C154D227843F83150B8
:1011F00003EBC1030830013A5860227062B630BC7C
:10120000704704220D4C0F4D217843F8325003EB08
:10121000C20308304A1E5860227062B6EFE705210B
:10122000E1E70921DFE70822ECE70C22EAE71022D8
:10123000E8E700BF102E00000000FF1FC10DFF1FD8
:10124000C800400088004000431E032B1DD81B4AE5
:10125000400140F0100030B4104472B6184CE25C0B
:10126000032A1BD8DFE802F00212151703220D88AB
:10127000E25410F0080F14BFC823882343EA054343
:1012800008310360416062B630BC7047083002220A
:10129000EDE70522EBE708300422E8E7094A52F8B7
:1012A000230038B1084A52F82300416042F8231065
:1012B00062B6E9E742F82310034AF7E70000FF1F90
:1012C000D00DFF1F980DFF1FA80DFF1F2DE9F04F38
:1012D000DFF814B3DFF814A387B044E0AC4F4FEA53
:1012E000930807EBC809013ED9F8042003F008036E
:1012F000F6B2A2F1080003F0FF04002B40F0FF80DB
:1013000057F838301B0C99B222F8081C002B00F05B
:10131000ED80A04B22F8064C42F8044C53F82620EE
:10132000002A00F0CD819C4D55F8263058609B4C2A
:1013300045F8260034F81630194424F8161000F049
:1013400083FD002800F0C081954A964B19F0080FE4
:1013500000F1080018BF1346C9F8040047F83830F8
:1013600008238BF800309BF80040E4B265071AD5DB
:101370008D4B1B78A3B18D490A7802F0FF0322B18F
:10138000013BDBB20B7003B900BE89490A7802F059
:10139000FF032AB1013BDBB20B70002B00F066812A
:1013A00004238BF8003004F0080303F0FF02002B45
:1013B00000F0C9809AF80030DBB21E098ED19A087D
:1013C000DFF8CC9159F8321009EBC200C1F3830168
:1013D000013940680C2900F28580DFE801F07A7A53
:1013E0008383838383834683838307000168714DEE
:1013F0004068714F714E6860296088B240F2816127
:101400000024674B49F832304FF0010E88423C60AF
:10141000C9F81040C9F8184086F800E05C4A00F2AC
:10142000E780B0F5D06F80F01B82B0F5817F00F0CF
:10143000D98100F26981802800F02A82822840F058
:10144000D781A98801F07F01042900F2D1815C488D
:101450005C4A890008441470547001788C0740F18C
:10146000608382F800E0022173E1534F3A682AB3A7
:10147000554B524E554819883478057840298E4688
:1014800045F0020828BF4FF0400E002C84F0010404
:101490003470CEEB01010CBF8824C82409EBC806C8
:1014A00089B285F0010544EA0E447260198049F85A
:1014B000384072440570002965D03A603D4B1A8867
:1014C000B2F5A06F0ED100219A785970404B1A7076
:1014D00008E038493F4C0D68A54200F0988030493B
:1014E00049F832103C4A0123137039E72C4A2D4B3E
:1014F00019F0080F18BF134647F8383030E700F0EE
:10150000C3FC364A364952F82630002B00F0E380FF
:1015100058688C5D42F8260003F10802C9F80420DF
:10152000032C05D8DFE804F02C02292602228A5574
:101530001A8819F0080F0CBF8823C82343EA024316
:1015400047F838300CE7E00700F19380210600F1FE
:10155000D180A20706D5234A234913780220DBB2A3
:1015600013700870E30602D51F4B10221A7007B0E3
:10157000BDE8F08F04228A55DAE705228A55D7E7BD
:1015800003228A55D4E7BEF1400F18BF002294E72A
:101590000000FF1F440DFF1FF00CFF1F6C10FF1F0A
:1015A000C800400088004000CC0DFF1F550DFF1FF4
:1015B000E00DFF1FB80DFF1FEC0CFF1F540DFF1FA8
:1015C000C0200740C40DFF1F000DFF1FC00DFF1FEF
:1015D000982007402109000394200740980DFF1F21
:1015E000D00DFF1F88200740802007409020074033
:1015F000B0F5106F00F07C8140F2A38040F621121C
:10160000904240F07B82A54A012313706AE74C6840
:10161000A3498C427FF463AF0178A9297FF45FAFBF
:10162000417845297FF45BAF8178C2297FF457AFB9
:10163000C1786B297FF453AF9A489B4E0178347878
:1016400081F00105002C41F0020105700CBF8820DB
:10165000C82084F0010449F8310009EBC101934826
:101660003470002505244D60047038E700F0F6FC66
:1016700096E68F4B89488B491A614FF0020E80F82D
:1016800000E08C4F0A708C49196099608B4E8C4D2C
:101690008C4C9A610D213970FF213170DFF84CE2DA
:1016A00029702270884D894A8EF800109F270124E6
:1016B00006F8047C5D600470DA6007B0BDE8F08F66
:1016C00043F82600824D32E6824A47F83800137804
:1016D0000133137044E68B5D032B00F2BA8001A244
:1016E00052F823F061130000611300003D17000061
:1016F000371700006F49724B80220D2008701A7056
:10170000A2077FF52FAF26E740F20232904240F069
:10171000ED81AA8802F07F02042A69D86D88002D25
:1017200066D16449CDF804E0920011440A7842F091
:1017300002020A70C1E101238B5511E600238B558B
:101740000EE6B0F5086F53D16349644A0978117009
:101750007146ED888D4280F0E88252480478402D31
:10176000AE4644F0020C28BF4FF0400E02EB0E03D1
:1017700009EBCC01029301234A604FEA0E48CEEBFD
:10178000050101930025C82242EA080384F0010202
:1017900049F83C3035700270DFF814C1424BDFF875
:1017A000048149BBBEF1400F7FF42DAF42F0020C23
:1017B00009EBCC03029ADFF8F8E05A608DBB0D0408
:1017C00045F088059DF804304EF83C500A443370CB
:1017D0000470134640297FF416AF0021404A3B6055
:1017E000118010E7AA8802F07F02042A40F28B8160
:1017F000304A0F23137006E74029D7D942F002027E
:101800000CEBC200029E4660BDB19DF80450354805
:101810001D703346403988F8004040334CF83200A0
:10182000DCE79DF8043033700D04029B047045F032
:10183000C8050B444EF83C50CCE79DF804501D7091
:10184000029B1D4888F80040403940334CF8320074
:10185000C4E719F0080F0CBF022303238B557FE563
:1018600021494A68002AC3D06C88B5F804E003E037
:101870000C314A68002ABBD00B88A342F8D14B88B0
:101880007345F5D1240A032C0CBF1178098960E750
:10189000124A0221147054705BE700BF9420074085
:1018A00001000400C00DFF1F540DFF1F550DFF1F49
:1018B0000000FF1FC020074088004000882007402C
:1018C0008020074098200740040DFF1F580DFF1F80
:1018D000F00CFF1FC10DFF1FCC0DFF1FC40DFF1F1C
:1018E000000DFF1FC8004000142E00008C20074090
:1018F000B248116AAC7804700C0600F19881D9F8EE
:101900002820AF49100600F1DB81D9F83020AC491E
:10191000120600F1D081D9F83820A949130600F148
:10192000C581D9F84020A649150600F1BA81D9F839
:101930004820A349140600F1AF81D9F85020A049EE
:10194000100600F1A481D9F858209D49120600F133
:101950009981D9F860209A49130600F18E81D9F84F
:1019600068209749150600F18381D9F870209449C1
:10197000140600F17881D9F878209149100600F119
:101980006D81D9F880208E49120600F16181D9F865
:1019900088208B49130600F15581D9F89020884999
:1019A000150600F14981D9F898208549140600F1FF
:1019B000FF808448844A854901908548854D864C3E
:1019C000049700230596029580460F4616461D464D
:1019D0000394306828B1446800F056FA2046002C81
:1019E000F9D100233360029B38681A46002342F87D
:1019F000253028B1446800F047FA2046002CF9D180
:101A000000223A60019A98F800301146002241F80D
:101A1000042B039A0191023B4FF0000122F81510AC
:101A2000032B07D8DFE803F05D025D024FF00103EE
:101A300088F800300135042D06F1040607F104078B
:101A400008F10108C5D1654C654D2278654B049FAE
:101A5000059E0021100729701A7000F192806249DA
:101A600062780A700021C9F83010C9F838101107DF
:101A7000DFF84C816ED4A2785C49DFF844810A70AB
:101A800000211207C9F85010C9F858104BD4E27859
:101A900057494B4C0A7013074FF00001C9F87010FA
:101AA000C9F8781000F1AE8033780193002283F0FA
:101AB0000105C9F89020C9F89820002102918846B4
:101AC0008E460A464B48047844F0020C09EBCC03DE
:101AD0000393019B002B039B5A600CBF8822C822F2
:101AE00052E64FF0000388F80030A3E7B0F5A06F8E
:101AF0007FF47EAE012300250193DEE740F621222C
:101B00009042F7D074E66D88002D7FF471AE3A49AB
:101B1000CDF804E0920011440A7822F002020A7023
:101B2000CBE7022115E600F08FF9002800F0EB80EA
:101B30000830324AC8F86400C8F8602000F084F920
:101B4000002800F0DA8008302D4AC9F86C00C9F886
:101B500068209CE700F078F9002800F0E080083069
:101B6000264AC8F84400C8F8402000F06DF9002863
:101B700000F0CF800830224AC9F84C00C9F848204C
:101B800079E700F061F9002800F0A58008301B4AD1
:101B9000C9F82400C9F8202000F056F9002800F008
:101BA00094800830164AC9F82C00C9F8282056E756
:101BB000D1F89C00083800F067F9FAE6CC0DFF1F59
:101BC0000000FF1FA80DFF1F440DFF1F980DFF1FF2
:101BD000D00DFF1FF00CFF1F6C10FF1F102E000018
:101BE000C10DFF1FC4200740C8200740CC2007407C
:101BF000D0200740C00DFF1FC020074088004000D4
:101C0000C800400000F020F9002870D008304F4A8A
:101C1000C4F88400C4F8802000F016F9002860D0D1
:101C200008304B4AC9F88C00C9F888203CE7506A54
:101C3000083800F029F962E6D1F89400083800F07D
:101C400023F9B0E6D1F88C00083800F01DF9A4E6BD
:101C5000D1F88400083800F017F998E6C86F083802
:101C600000F012F98DE6486F083800F00DF982E6B1
:101C7000C86E083800F008F977E6486E083800F0BA
:101C800003F96CE6C86D083800F0FEF861E6486DAF
:101C9000083800F0F9F856E6C86C083800F0F4F897
:101CA0004BE6486C083800F0EFF840E6C86B08389F
:101CB00000F0EAF835E6486B083800F0E5F82AE667
:101CC000C86A083800F0E0F81FE62A78C9F828004A
:101CD00001322A70C3E62A78C9F8200001322A703E
:101CE0005AE72A78C9F8880001322A70DCE62A7897
:101CF000C4F8800001322A708EE72A78C9F868009B
:101D000001322A70C3E62A78C8F8600001322A70CE
:101D100014E72A78C9F8480001322A70ABE62A781D
:101D2000C8F8400001322A701FE740298E4628BFBC
:101D30004FF0400E02EB0E0302930123CEEB0101A4
:101D40004FEA0E4800250193BCE600BF8800400022
:101D5000C80040002DE9F04100F0DEFC2F4C304B74
:101D60003048DFF8D880304F304D314EDFF8D0C0EA
:101D7000DFF8D0E000221A605A609A60DA601A61D7
:101D80005A619A61DA611A625A629A62DA621A6375
:101D90005A639A63DA631A645A649A64DA641A6555
:101DA0005A659A65DA651A665A669A66DA661A6735
:101DB0005A679A67DA67C3F880202168C3F88420DD
:101DC00041F480212160016841F040710160C3F35A
:101DD000072188F8001004F52834C3F307411B0ECF
:101DE0003970CC342B7000F12040FF238CF8003088
:101DF000104D8EF8003000F6041033700E490123A8
:101E000008F8083C702622704FF40014102207F8DE
:101E10002C3C2E7004600A70BDE8F08134800440D0
:101E20000000FF1F00D80040B0200740B42007404A
:101E30001020074035E400E0082107409C200740BF
:101E4000802007408820074072B60D480268B2FA29
:101E500082F30B2B10DC4FF00041D94022EA010243
:101E6000026062B6074803EBC303DB00C21800211F
:101E7000C15010465160704762B60020704700BFE5
:101E8000FC06FF1F9803FF1F0D4B0E4AC31AA2FB4F
:101E900003231B090B2B0CD80B4A127852B972B6CC
:101EA0000A484FF00041026821FA03F31A43026026
:101EB00062B67047064A1278002AF0D0FFF760B980
:101EC0009803FF1F398EE338C10DFF1FFC06FF1F6B
:101ED000CC0DFF1F2DE9F0411F4D204E2B6882B025
:101EE0000093009F33786BB380460C460AE02B6862
:101EF0000193019BDB1BA34221D844B300F0D6F829
:101F00003378FBB10420FFF707F90028EFD000F188
:101F1000080300F148021D685C689968DE68C8F82B
:101F20000C6010339342C8F80050C8F80440C8F859
:101F3000081008F11008EED1FFF7A6FF402002B00C
:101F4000BDE8F0814FF0FF3002B0BDE8F0812046DF
:101F500002B0BDE8F08100BF500CFF1FCC0DFF1F89
:101F60002DE9F041224C234D236882B00093009F5D
:101F70002B789BB380460E4609E023680193019BB2
:101F8000DB1BB3422FD800F091F82B7833B303203A
:101F9000FFF7E0F80328F0D8FFF756FF0028ECD051
:101FA00008F1400200F10803D8F80050D8F80440C6
:101FB000D8F80810D8F80C60DE6008F110089045D9
:101FC0001D605C60996003F11003EDD14024048032
:101FD00001460320FFF738F9204601E04FF0FF30BB
:101FE00002B0BDE8F081002002B0BDE8F08100BF82
:101FF000500CFF1FCC0DFF1F38B5164D2868E0B1FF
:1020000001884488A14213DD03191B7A83B104F1CE
:102010000803C2180C1B002302E012F8011F21B1B3
:102020000133A342F9D1204638BD1C46204638BDB5
:10203000FFF72AFF0020286038BD074B1B780BB93B
:10204000002038BD0220FFF767F828600028D7D1AC
:10205000F6E700BFDC0DFF1FCC0DFF1F0D4B1B78FB
:10206000BBB910B50C4C216803F0FF024B883F2B25
:1020700007DC07330B4401F1470003F8012F8342CB
:10208000FBD140230B800120FFF7DEF80023236003
:1020900010BD7047D40DFF1FD80DFF1F08B5FEF708
:1020A000E5F9FEF759FB00F001F8FAE738B52C4CDA
:1020B000237803B138BD01232370FFF79DFF00286B
:1020C00042D1FEF75FFF00283BD100F09FF80028C7
:1020D00034D100F031F970BB00F0AAF940BB00F038
:1020E00023FA10BB00F09CFAE0B900232370EFF351
:1020F0000583002BDED1EFF3108172B6194B1868FF
:1021000028B3194C227812BB45691D600123237046
:102110000DB3AA6101B962B6002545778368984777
:102120002570C7E700F03AFCDFE700F035FCD9E79F
:1021300000F030FCD3E700F02BFCCDE700F026FCEC
:10214000C7E700F021FCC0E700F02AFCB9E700294E
:10215000B0D162B638BD054B1D600029DCD1DAE78D
:10216000E10DFF1F6010FF1F6410FF1F5C10FF1FB9
:1021700008B5104C08E0236859050DD423681A05EA
:102180000FD42368DB0411D423685803F3D5FFF779
:102190009DF823685905F1D5FEF738FF23681A0525
:1021A000EFD500F043F82368DB04EDD500F0D4F858
:1021B000EAE700BF3480044008B5FFF7D9FF00BF4D
:1021C000014B10221A80704700200540704700BF65
:1021D000EFF3138070B9EFF310836BB9EFF305825F
:1021E0005AB94FF48070EFF311832BB1984228BF96
:1021F000184670474FF0FF3070470F2A01D8184635
:10220000F1E7014BD05CEEE7F0E300E0054A064B56
:1022100010781B78C0B2DBB2984238BF4030C01A89
:10222000704700BF540EFF1FE90DFF1FF0B4384B7D
:102230001A7912F0300F2CD072B6997D01F0FF029E
:1022400000293DD062B6334F334938780D78334E8C
:102250001C46C0B2EDB2431C402BE17928BF0023DD
:10226000AB4202F1FF32C9B21CBFF154184612F062
:10227000FF02F0D12A4B1B68C2B23A704BB1A842A0
:1022800036BFC5F14005401B40192728C4BF0122B5
:102290001A701F49CA78D2B2150616D452060DD547
:1022A0001B4B1B795B0609D51E4B1F491B6800227F
:1022B0000A7003B11A70164B3C22DA70F0BC7047FA
:1022C0004022D9795A7462B6E3E70B791C06E5D54A
:1022D000164B174E1C783378E4B2DBB29C420ED01A
:1022E000144D01E0A3420AD00133282B28BF00235C
:1022F0000879E85CC0B2C871087D0728F2D9DBB262
:10230000034933700B79180644BF7C23CB70C5E7B3
:1023100000B00640540EFF1FE90DFF1F140EFF1FF3
:10232000E40DFF1F580EFF1FE80DFF1F5C0EFF1F7F
:10233000550EFF1FEC0DFF1F054A064B10781B784A
:10234000C0B2DBB2984238BF4030C01A704700BFFD
:10235000640EFF1F650EFF1F30B42B4B1A799406D5
:102360001FD52A48DA790378294901333F2B0978A8
:10237000C8BF00238B42D2B203D0264CD9B2E2545C
:102380000170254A116861B1244A1278D2B2934291
:1023900036BFC2F140029B1A9B18272BC4BF0123F2
:1023A0000B70194AD378DBB2180611D45A060DD532
:1023B000154B1B795B0609D5194B1A491B6800227E
:1023C0000A7003B11A70104B2C22DA7030BC7047BF
:1023D00011790906EAD5144910480C780178C9B278
:1023E0008C420DD04A1C272A84BF00210A460F4D7B
:1023F000054C98BFD1B2AA5CD2B2E2710170D5E7A8
:102400006C21D170D2E700BF00C00640640EFF1FF0
:10241000650EFF1F900EFF1F600EFF1FD10EFF1FE6
:10242000D40EFF1FD00EFF1FD80EFF1F680EFF1F18
:10243000054A064B10781B78C0B2DBB2984238BF11
:102440004030C01A704700BFE00EFF1FE10EFF1FB3
:1024500030B42B4B1A7994061FD52A48DA790378C1
:10246000294901333F2B0978C8BF00238B42D2B2E0
:1024700003D0264CD9B2E2540170254A116861B1EB
:10248000244A1278D2B2934236BFC2F140029B1A5C
:102490009B18272BC4BF01230B70194AD378DBB2DA
:1024A000180611D45A060DD5154B1B795B0609D5B4
:1024B000194B1A491B6800220A7003B11A70104B9D
:1024C0002C22DA7030BC704711790906EAD514491C
:1024D00010480C780178C9B28C420DD04A1C272ACA
:1024E00084BF00210A460F4D054C98BFD1B2AA5CAB
:1024F000D2B2E2710170D5E76C21D170D2E700BF92
:1025000000D00640E00EFF1FE10EFF1F0C0FFF1F63
:10251000DC0EFF1F4D0FFF1F500FFF1F4C0FFF1F43
:10252000540FFF1FE40EFF1F054A064B10781B785F
:10253000C0B2DBB2984238BF4030C01A704700BF0B
:102540005C0FFF1F5D0FFF1F30B42B4B1A799406F1
:102550001FD52A48DA790378294901333F2B0978B6
:10256000C8BF00238B42D2B203D0264CD9B2E2546A
:102570000170254A116861B1244A1278D2B293429F
:1025800036BFC2F140029B1A9B18272BC4BF012300
:102590000B70194AD378DBB2180611D45A060DD540
:1025A000154B1B795B0609D5194B1A491B6800228C
:1025B0000A7003B11A70104B2C22DA7030BC7047CD
:1025C00011790906EAD5144910480C780178C9B286
:1025D0008C420DD04A1C272A84BF00210A460F4D89
:1025E000054C98BFD1B2AA5CD2B2E2710170D5E7B6
:1025F0006C21D170D2E700BF00A00E405C0FFF1F1E
:102600005D0FFF1F880FFF1F580FFF1FC90FFF1F10
:10261000CC0FFF1FC80FFF1FD00FFF1F600FFF1F42
:10262000054A064B10781B78C0B2DBB2984238BF1F
:102630004030C01A704700BFD80FFF1FD90FFF1FCF
:1026400030B42B4B1A7994061FD52A48DA790378CF
:10265000294901333F2B0978C8BF00238B42D2B2EE
:1026600003D0264CD9B2E2540170254A116861B1F9
:10267000244A1278D2B2934236BFC2F140029B1A6A
:102680009B18272BC4BF01230B70194AD378DBB2E8
:10269000180611D45A060DD5154B1B795B0609D5C2
:1026A000194B1A491B6800220A7003B11A70104BAB
:1026B0002C22DA7030BC704711790906EAD514492A
:1026C00010480C780178C9B28C420DD04A1C272AD8
:1026D00084BF00210A460F4D054C98BFD1B2AA5CB9
:1026E000D2B2E2710170D5E76C21D170D2E700BFA0
:1026F00000B00E40D80FFF1FD90FFF1F0410FF1F9F
:10270000D40FFF1F4510FF1F4810FF1F4410FF1F6D
:102710004C10FF1FDC0FFF1F72B6184A184B1949E7
:102720001160702280211A701A46197013781B06E6
:10273000FCD510B5144B84B0186862B6134B144C1A
:10274000984298BF00EB800001A998BF40000A2280
:1027500000F028F901A92046002311F8012B0133CC
:102760003AB10A2B20F8022FF7D11623237004B0B8
:1027700010BD5B00DBB2237004B010BD040002404A
:1027800000000240000007410C0002407F969800C4
:10279000E407FF1F10B4EFF3108272B6437F33B922
:1027A000017F012908D0032910D00123437702B902
:1027B00062B65DF8044B7047114C2168A1B1114914
:1027C00043610B68836108605861EEE70E4C216835
:1027D00081B10E4943610B688361086058610C4BFD
:1027E0004FF080511960E0E7064B41618161206044
:1027F0001860DAE7054B4161816120601860EEE7FF
:102800006010FF1F5C10FF1F5010FF1F5410FF1FB0
:1028100004ED00E010B4047F4160022CC26003D0DC
:102820005DF8044BFFF7B6BF83685DF8044B1847AB
:1028300070B5EFF3108272B60C4C206880B10C4E6C
:1028400000254369236073B19D6102B962B6457783
:1028500083689847EFF3108272B620680028F0D1A1
:1028600002B962B670BD3360EFE700BF5010FF1FC2
:102870005410FF1FFFF7DCBF184A30B41468002C57
:1028800027D0036821688B420ED2CB1A00218460C6
:10289000C1602360E06010600223037530BC7047A4
:1028A00011688B42144608D3A2685B1A0360002AA1
:1028B000F6D18260C460A060EEE7D268C260846036
:1028C000E060C568CB1A0222A8602360027530BCA4
:1028D00070478460C4601060DEE700BF5810FF1FBF
:1028E000F8B5224E34682CB32368002B3AD1204F20
:1028F0001D4604E03468ECB12368002B32D1A36894
:1029000003B1DD6020693360036825751B68BB4235
:1029100021D1037F4560022BC46020D0FFF73AFF2E
:102920006368002BE6D023602046FFF7A5FF3468DC
:10293000002CE1D1EFF3108372B60E4A002110682B
:10294000116003B962B628B18468FFF795FF20468D
:102950000028F9D1F8BD224600219847E0E78368B6
:102960009847DDE7013B2360E4E700BF5810FF1FF5
:10297000152800006810FF1F024A13680133136016
:10298000FFF7AEBF500CFF1F704700BF704700BF7E
:10299000704700BF704700BF704700BF704700BF5F
:1029A000704700BFF0B44D1E2E46002400E00134F5
:1029B000B0FBF2F302FB1300092800F130078ABFD5
:1029C0003730F8B2C0B206F8010F1846002BEED12E
:1029D0000A1953704CB1107815F8016F2870013343
:1029E000E01A834202F80169F5DB0846F0BC704743
:1029F00070B50F4E0F4D761BB61018BF002405D0D2
:102A0000013455F8043B9847A642F9D10A4E0B4DC4
:102A1000761B00F043FAB61018BF002406D001342C
:102A200055F8043B9847A642F9D170BD70BD00BF70
:102A3000A82E0000A82E0000B42E0000A82E000032
:102A400070B4840746D0541E002A41D0CDB203464C
:102A500002E0621EE4B3144603F8015B9A07F8D162
:102A6000032C2ED9CDB245EA05250F2C45EA0545A4
:102A700019D903F110022646103E0F2E42F8105CC1
:102A800042F80C5C42F8085C42F8045C02F1100267
:102A9000F2D8A4F1100222F00F0204F00F04103259
:102AA000032C13440DD91E462246043A032A46F845
:102AB000045BFAD8221F22F003020432134404F00C
:102AC00003042CB1C9B21C4403F8011BA342FBD17F
:102AD00070BC704714460346C2E700BF024B13B1F7
:102AE000024800F005B8704700000000FD2A000011
:102AF000002301461A46184600F014B838B5074DB1
:102B0000074C2C1BA41005D0013C55F8043D9847F8
:102B1000002CF9D1BDE8384000F0CCB9000000002D
:102B2000000000002DE9F047254C2568D5F8484104
:102B30000646884692469946C4B360681F2817DC4B
:102B4000431C76B104EB80050122C5F888A0D4F8B7
:102B5000881182401143022EC4F88811C5F80891EB
:102B60001ED00230636044F820800020BDE8F0876A
:102B7000144B03B34FF4C870AFF300800446D0B1D8
:102B8000D5F84831002780E88800C5F84841384624
:102B90000123C4F88871C4F88C71002EE1D0D1E70C
:102BA000D4F88C110A43C4F88C21DAE705F5A67431
:102BB000C5F84841C1E74FF0FF30BDE8F08700BFDE
:102BC000982E000000000000050E08090D0C0607F5
:102BD0000F0403938E8F050E08090D0C06070F04D2
:102BE000FFFFFFFFFFFFFF8E8F1112848586879105
:102BF000FFFFFFFFFFFFFFFFFF8A8BFFFFFFFFFFCE
:102C0000FFFFFFFFFFFFFFFF0393179701811A925A
:102C10004008FE4340A004404408FE4344A0044052
:102C20000018FE4300C004403000FE4330900440D2
:102C30003400FE43349004401C18FE431CC0044082
:102C40001018FE4310C004400818FE4308C004409A
:102C50000C18FE430CC004400C10FE430CB00440A2
:102C60001010FE4310B004401810FE4318B004408A
:102C70001C10FE431CB004401410FE4314B004406A
:102C80000418FE4304C004400010FE4300B004409A
:102C90000008FE4300A004400408FE4304A00440D2
:102CA0000C08FE430CA004400808FE4308A00440A2
:102CB0001418FE4314C004401818FE4318C0044002
:102CC0000410FE4304B004400810FE4308B0044062
:102CD0006820FE4368D004401400FE431490044072
:102CE0003800FE43389004403C00FE433C900440D2
:102CF0004000FE43409004404808FE4348A0044082
:102D00004C08FE434CA004402808FE4328A0044081
:102D10002C08FE432CA004406020FE4360D00440F9
:102D20006420FE4364D004402010FE4320B00440E1
:102D30002410FE4324B004402810FE4328B0044071
:102D40002C10FE432CB004404400FE434490044049
:102D50007000FE43709004407400FE437490044081
:102D60006800FE43689004405008FE4350A00440B1
:102D70005808FE4358A004405C08FE435CA0044091
:102D80005408FE4354A004402018FE4320C00440D1
:102D90002418FE4324C004401008FE4310A0044041
:102DA0001408FE4314A004403818FE4338C0044001
:102DB0003418FE4334C004403018FE4330C0044091
:102DC0003C18FE433CC004402C18FE432CC0044079
:102DD0002820FE4328D004402C20FE432CD0044061
:102DE0000020FE4300D004400420FE4304D00440F1
:102DF0000820FE4308D004400C20FE430CD00440C1
:102E00001020FE4310D004401420FE4314D0044090
:102E100015191519000100000007FF1F120000001E
:102E2000000200002C07FF1F4900000000220100E3
:102E30007807FF1F21000000002101005E07FF1F2F
:102E400009000000002200009C07FF1F1C0000007A
:102E5000002100003E07FF1F0900000000030000E2
:102E6000E007FF1F00000000010309041407FF1F13
:102E70000000000002030904B807FF1F0000000063
:102E800003030904E407FF1F000000000000000026
:102E900000000000000000000008FF1FF8B500BFA0
:102EA000F8BC08BC9E467047DD2A000035040000CF
:042EB0009107000086
:042EB400F8B500BFAE
:102EB800010A0401FFFFFFFF12011001000000409A
:102EC800C0168604760201020301000018035400AC
:102ED800650065006E007300790064007500690084
:102EE8006E006F0009024900020100C032090400A7
:102EF800000203000000092111010001221C000743
:102F0800058303400001070504034000010904018B
:102F1800000203000000092111010001222100071D
:102F2800058103400001070502032000020000009C
:102F380006C9FF0904A15C7508150026FF00954025
:102F48000975810295200976910295040976B102E6
:102F5800C000000006ABFF0A0002A10175081500B9
:102F680026FF00954009018102954009029102C09F
:102F780026035400650065006E0073007900640044
:102F8800750069006E006F00200052006100770034
:102F98004800490044000000040309040C03000031
:102FA8000000000000000000000000000000000019
:102FB800000000000000000000000000EC0AFF1FF5
:102FC800540BFF1FBC0BFF1F000000000000000097
:102FD80000000000000000000000000000000000E9
:102FE80000000000000000000000000000000000D9
:102FF80000000000000000000000000000000000C9
:1030080000000000000000000000000000000000B8
:1030180000000000000000000000000000000000A8
:103028000000000000000000000000000000000098
:103038000000000000000000000000000000000088
:103048000000000000000000000000000000000078
:103058000000000000000000000000000000000068
:1030680001000000000000000E33CDAB34126DE605
:10307800ECDE05000B00000000000000000000006E
:103088000000000000000000000000000000000038
:103098000000000000000000000000000000000028
:1030A8000000000000000000000000000000000018
:1030B8000000000000000000000000000000000008
:00000001FF
