:100000000000022099010000D116000089160000AE
:100010008916000089160000891600008916000064
:10002000891600008916000089160000D11600000C
:10003000D116000089160000751500007916000021
:10004000D1160000D1160000D1160000D116000014
:10005000D1160000D1160000D1160000D116000004
:10006000D1160000D1160000D1160000D1160000F4
:10007000D1160000D1160000D1160000D1160000E4
:10008000D1160000D1160000D1160000D1160000D4
:10009000D1160000D1160000D1160000D1160000C4
:1000A000D1160000D1160000D1160000D1160000B4
:1000B000D1160000D1160000D1160000ED1E000080
:1000C000D1160000251C0000D1160000F118000018
:1000D000D1160000E11A0000D1160000D116000070
:1000E000D1160000D1160000D1160000D116000074
:1000F000D1160000D1160000D1160000D116000064
:10010000D1160000D1160000D1160000D116000053
:10011000D1160000E10A0000D1160000D11600003F
:10012000D1160000D1160000D1160000D116000033
:10013000D1160000D1160000D1160000D116000023
:10014000D1160000D1160000E9190000D1160000F8
:10015000F51D0000D1160000D1160000D1160000D8
:10016000D1160000D1160000D1160000D1160000F3
:10017000D1160000D1160000D1160000D1160000E3
:10018000D1160000D1160000D1160000D1160000D3
:10019000D1160000D1160000584B4CF2205210B579
:1001A0001A804DF628121A8000BF00BF01F094FAA1
:1001B000534B4FF030621A60524A9A60524ADA60EA
:1001C000524B4FF470021A60514A136813F4807353
:1001D00004D150490B604FF4A85313604E4B1A786A
:1001E000110703D51A7842F008021A704B4B4C499C
:1001F0002A221A704B4A4C4B8B4204D252F8040FFD
:1002000043F8040BF8E7494B494900228B4202D2DC
:1002100043F8042BFAE74749474A002352F82300E2
:1002200041F823000133662BF8D1444B444A802126
:1002300003F8011B9342FBD1424B3E4A1A60424BEA
:100240008A221A70A3F5805324225A70A0221A70B1
:100250009A799207FCD59A79D406FCD43B4A9379D3
:1002600003F00C03082B394BF9D103221A714022F9
:100270005A719A799006FCD5344A9179334B4906E4
:10028000FBD5334A334911600221516020221A7094
:100290009A7902F00C020C2AFAD12F4B2F4A1A60DD
:1002A0002F4B45F6BF521A6000225A60072243F8CE
:1002B000042C2C4AC3F80C2D62B600F0C5FA154B7D
:1002C0001B68DA0705D5284800F052FA274B284A60
:1002D0001A60284B1B785B0609D5244C244B2268F6
:1002E0009A4204D1204800F043FA0023236001F031
:1002F0008FFE01F0F7F901F061F8FEE70E200540EE
:1003000030800440823F04000100002B88ED00E0B3
:1003100010D0034014D0034002D0074000E0074053
:10032000280CFF1F88240000F806FF1F280CFF1F61
:100330006810FF1F0002FF1F0000000000E400E043
:1003400056E400E008ED00E00050064000400640A2
:10035000448004400000333304800440C010050092
:1003600014E000E0000020205B65345A1CE00340EC
:10037000A5C3945A00F00740FFFFFFFFFFFFFFFFF8
:10038000FFFFFFFFFFFFFFFFFFFFFFFFFFFFFFFF7D
:10039000FFFFFFFFFFFFFFFFFFFFFFFFFFFFFFFF6D
:1003A000FFFFFFFFFFFFFFFFFFFFFFFFFFFFFFFF5D
:1003B000FFFFFFFFFFFFFFFFFFFFFFFFFFFFFFFF4D
:1003C000FFFFFFFFFFFFFFFFFFFFFFFFFFFFFFFF3D
:1003D000FFFFFFFFFFFFFFFFFFFFFFFFFFFFFFFF2D
:1003E000FFFFFFFFFFFFFFFFFFFFFFFFFFFFFFFF1D
:1003F000FFFFFFFFFFFFFFFFFFFFFFFFFFFFFFFF0D
:10040000FFFFFFFFFFFFFFFFFFFFFFFFDEF9FFFF23
:1004100010B5054C237833B9044B13B10448AFF33E
:1004200000800123237010BD280CFF1F0000000076
:100430008C240000084B10B51BB108490848AFF3E5
:1004400000800848036803B910BD074B002BFBD0A0
:10045000BDE81040184700BF000000002C0CFF1F33
:100460008C240000280CFF1F0000000001210D203B
:1004700000F096B92DE9F04F304CDFF8D4B0236886
:10048000DFF8D0A0DFF8D090DFF8D08095B0064636
:100490000193019D274603E000F076F800280BDC6D
:1004A00023680293029B5B1B9E424FF0000104A84D
:1004B000F2D815B0BDE8F08F9DF810100D2001F0B6
:1004C000010100F067F99DF811303A6803925A2B48
:1004D000039DE5D14022002104A801F0C1FD1423B1
:1004E0008DF8103072B6164B164ACBF800208021DA
:1004F00070221A701A46197013781B06FCD5DAF8A8
:10050000001062B614AB104A43F8501D1868CDF8BD
:100510001100D9F80000CDF81500D8F800000B4BF9
:10052000CDF819001868CDF81D001068CDF821002D
:10053000FA2104A800F06EF8B2E700BF440CFF1FD8
:1005400000000240000007415480044058800440ED
:10055000040002400C000240608004405C800440C3
:1005600008B501210D2000F015F94FF47A70FFF75E
:1005700081FF0D20002100F00DF94FF47A70BDE8E5
:100580000840FFF777BF00BF2DE9F0411F4D204E17
:100590002B6882B00093009F33786BB380460C4683
:1005A0000AE02B680193019BDB1BA34221D844B3D3
:1005B00000F00CFF3378FBB1042000F0D9F90028DB
:1005C000EFD000F1080300F148021D685C689968EB
:1005D000DE68C8F80C6010339342C8F80050C8F8C1
:1005E0000440C8F8081008F11008EED101F04AF9EB
:1005F000402002B0BDE8F0814FF0FF3002B0BDE80E
:10060000F081204602B0BDE8F08100BF440CFF1F1E
:10061000280DFF1F2DE9F041224C234D236882B0A5
:100620000093009F2B789BB380460E4609E0236819
:100630000193019BDB1BB3422FD800F0C7FE2B7840
:1006400033B3032000F0B2F90328F0D801F0FAF830
:100650000028ECD008F1400200F10803D8F800505F
:10066000D8F80440D8F80810D8F80C60DE6008F11B
:10067000100890451D605C60996003F11003EDD196
:10068000402404800146032000F0E8F9204601E000
:100690004FF0FF3002B0BDE8F081002002B0BDE8AD
:1006A000F08100BF440CFF1F280DFF1F10B4114B39
:1006B00053F8302092F8804234B1012379B182F8A6
:1006C00080305DF8044B704703EBC0035B681A6829
:1006D00051B922F002021A605DF8044B704782F8AB
:1006E00000315DF8044B704742F003021A605DF878
:1006F000044B7047E82100001C4A02EBC0030129AB
:100700005B6811D004291BD052F83000002280F819
:10071000802229B1022920D0032922D01A607047F3
:100720004FF480721A60704752F830004FF4A27292
:1007300080F880121A601A6822F020021A6070474E
:1007400052F830104FF4A272012081F880021A6032
:100750001A6842F020021A60704740F203121A60D1
:1007600070474FF481721A60704700BFE8210000A3
:1007700030B4054B054D064C002210211A602A604A
:100780002060196030BC704714D0034004D003408F
:1007900000D003403F2801D8FFF788BF704700BF53
:1007A0003F2801D8FFF7A8BF704700BF2DE9F843E5
:1007B000054672B6204F214B214A1B683C681268DF
:1007C00062B6520102D5322B88BF013495B3C3F50E
:1007D000BB431C4EDFF86490DFF864803F334FF476
:1007E0007A72A6FB031302FB04F404EB131472B633
:1007F000D9F800103A68D8F800E062B6C1F5BB43FA
:100800003F33A6FB03031EF0806FC4EB13134FF4BA
:100810007A7002D0322988BF013200FB0233B3F56F
:100820007A7F04D3013D05D004F57A74DFE700F048
:10083000CDFDDCE7BDE8F883440CFF1F18E000E0C5
:1008400004ED00E0ABAAAAAAF8B53E4B3E49DFF89A
:1008500018C13E4E3E4ADFF814E13E4D3E4C3F4F3C
:100860004FF0006018604FF0805018604FF000505B
:1008700018604FF0804018604FF000401860002072
:10088000086028234BF6FF71CCF80010CEF800303A
:1008900033600EF5012E13602B60236005F50025F3
:1008A0003B6004F50024B36207F50027936206F568
:1008B000012602F501220EF1100E05F6E87504F688
:1008C000E87407F57F67103220362B602360CEF87E
:1008D00000303B6013603360214EBB61936108229E
:1008E0003260A7F5002706F58056203F08363860AD
:1008F0003160BB60F36047F8042C06F5FD2607F570
:10090000FE2706F2FC76043730603960B360FB6086
:1009100046F8042C1644C7F8FC0F06F6FC7611487E
:1009200031602B602360026000F0DEFE3220FFF7B2
:100930003DFF00F0DFFC4FF4AF70BDE8F840FFF77B
:1009400035BF00BF04E100E0048003401480034091
:100950001C800340248003402C80034034800340EB
:100960000080034000900B40088003400C8003404F
:10097000431E032B14D872B60A4951F8230068B1FC
:1009800070B4094C058834F81320466841F8236098
:10099000521B24F8132062B670BC704762B67047D1
:1009A00000207047A00CFF1F6010FF1F01380328B4
:1009B0000BD872B6074B53F8203043B100205B6868
:1009C0000130002BFBD162B67047002070471846FB
:1009D000F9E700BFF40CFF1FF0B472B61A491B4EC2
:1009E000012311F8014B194F9A00240742F0010529
:1009F00005D556F8324064B156F83520BAB1013306
:100A0000052BEED162B6124B00221A70F0BC00F03A
:100A100039BF0F4C0F4D217847F8325007EB431385
:100A200008304A1E5860227062B6F0BC7047084910
:100A3000094B0A7847F8353007EBC5030830013A0F
:100A400058600A7062B6F0E7E82300000000FF1F5C
:100A50001D0DFF1F88004000C8004000431E032BEF
:100A60001DD81B4A400140F0100030B4104472B64B
:100A7000184CE25C032A1BD8DFE802F002121517BB
:100A800003220D88E25410F0080F14BFC8238823F6
:100A900043EA054308310360416062B630BC7047E9
:100AA00008300222EDE70522EBE708300422E8E7F0
:100AB000094A52F8230038B1084A52F8230041602D
:100AC00042F8231062B6E9E742F82310034AF7E739
:100AD0000000FF1F2C0DFF1FF40CFF1F040DFF1F54
:100AE0002DE9F04FDFF810A3DFF810B387B044E032
:100AF000AB4F4FEA930807EBC809013ED9F8042031
:100B000003F00803F6B2A2F1080003F0FF04002B83
:100B100040F0FC8057F838301B0C99B222F8081CC2
:100B2000002B00F0EA809F4B22F8064C42F8044C60
:100B300053F82620002A00F0CB819B4D55F8263033
:100B400058609A4C45F8260034F81630194424F8B9
:100B5000161000F077FE002800F0BE81944A954BF5
:100B600019F0080F00F1080018BF1346C9F8040077
:100B700047F8383008238AF800309AF80040E4B289
:100B800061071AD58C4B1B78A3B18C490A7802F007
:100B9000FF0322B1013BDBB20B7003B900BE8849F1
:100BA0000A7802F0FF032AB1013BDBB20B70002B85
:100BB00000F0648104238AF8003004F0080303F095
:100BC000FF02002B00F0C6809BF80030DBB21E094C
:100BD0008ED19A08724F57F8321007EBC200C1F35A
:100BE0008301013940680C2900F28380DFE801F0BD
:100BF00078788181818181814281818107000168CA
:100C0000704D714B40680193694B47F832306F4E1D
:100C1000686040F2816288B26B4B29600024012138
:100C200090421C603C61BC61317000F2E980B0F51B
:100C3000D06F80F00F82B0F5817F00F0DA8100F292
:100C40006B81802800F00182822840F0D881A8883A
:100C50005F4B00F07F00042800F2D2815D4A8000E3
:100C60000344147054701878840740F102831170A3
:100C7000022174E1544B01931A6832B3564B534E20
:100C8000564819883478057840298E4645F0020880
:100C900028BF4FF0400E002C84F001043470CEEBDE
:100CA00001010CBF8824C82407EBC80689B285F06F
:100CB000010544EA0E447260198047F838407244D6
:100CC0000570002966D0019B1A603E4B1A88B2F568
:100CD000A06F0ED100219A785970414B1A7008E02C
:100CE0003849404C0D68A54200F09980304947F8DA
:100CF00032103D4A012313703CE72D4A2D4B19F069
:100D0000080F18BF134647F8383033E700F0BAFD34
:100D1000364A374952F82630002B00F0E4805868F4
:100D20008C5D42F8260003F10802C9F80420032C68
:100D300005D8DFE804F02C02292602228A551A88F9
:100D400019F0080F0CBF8823C82343EA024347F871
:100D500038300FE7E00700F19480210600F1D280DF
:100D6000A20706D5234A244913780220DBB2137068
:100D70000870E30602D5204B10221A7007B0BDE8B8
:100D8000F08F04228A55DAE705228A55D7E7032235
:100D90008A55D4E7BEF1400F18BF002293E700BF89
:100DA0000000FF1FA00CFF1F4C0CFF1F6010FF1F57
:100DB000C800400088004000280DFF1FB10CFF1F35
:100DC0004C0FFF1F140DFF1F480CFF1FB00CFF1F1F
:100DD000C0200740200DFF1F5C0CFF1F1C0DFF1FD4
:100DE000982007402109000394200740F40CFF1FBE
:100DF0002C0DFF1F882007408020074090200740CF
:100E0000B0F5106F00F03E8140F2A28040F6211252
:100E1000904240F01C82A44A0123137069E74C6899
:100E2000A2498C427FF462AF0178A9297FF45EAFBA
:100E3000417845297FF45AAF8178C2297FF456AFB3
:100E4000C1786B297FF452AF99489A4E0178347873
:100E500081F00105002C41F0020105700CBF8820D3
:100E6000C82084F0010447F8310007EBC101924823
:100E70003470002505244D60047037E700F08AFFC8
:100E800098E68E4B88488A491A614FF0020E80F826
:100E900000E08B4F0A708B49196099608A4E8B4D28
:100EA0008B4C9A610D213970FF213170DFF848E2D7
:100EB00029702270874D884A8EF800109F270124E0
:100EC00006F8047C5D600470DA6007B0BDE8F08F5E
:100ED00043F82600814D34E6814A47F838001378FC
:100EE0000133137046E68B5D032B00F2A78001A24D
:100EF00052F823F0750B0000750B00004B0F00003B
:100F0000450F00006E49714B80220D2008701A7049
:100F1000A2077FF52EAF25E740F20232904240F063
:100F20008E81AA8802F07F02042A68D86D88002D7D
:100F300065D16348029192001044027842F00202A7
:100F4000027048E101238B5514E600238B5511E60E
:100F5000B0F5086F53D16348634A00781070ED888C
:100F60008D4280F09B815248047844F0020C07EBDC
:100F7000CC01402DAE464FF0010328BF4FF0400E8C
:100F80004A6002EB0E09CEEB05014FEA0E480293D0
:100F90000025C82242EA080384F0010247F83C30E9
:100FA00035700270DFF814C1424BDFF8048151BB89
:100FB000BEF1400F7FF42FAF42F0020207EBC203F5
:100FC000DFF8F8E0C3F8049095BB0D0445F0880500
:100FD0009DF8083033704029047009EB01034EF886
:100FE00032507FF418AF0021404A0198118003600D
:100FF00011E7AA8802F07F02042A40F22D81304BCB
:101000000F221A7007E74029D6D942F002020CEBF2
:10101000C200C0F804907DB135489DF808501D709D
:10102000403988F8004009F140034CF83200DBE712
:101030000D0445F0C805CBE72248EEE719F0080F8C
:101040000CBF022303238B5594E5274A0221147019
:10105000547084E727494A68002AD0D06C88B5F8D4
:1010600004E003E00C314A68002AC8D00B88A34290
:10107000F8D14B887345F5D1240A032C0CBF1178A5
:1010800009896CE7174A0D4CA978117004F18005A5
:1010900002E00834AC4231D0236A1A06F9D5606AFE
:1010A000083800F0EFFBF4E794200740010004004B
:1010B0001C0DFF1FB00CFF1FB10CFF1F0000FF1F16
:1010C000C02007408800400088200740802007405B
:1010D00098200740600CFF1FB40CFF1F4C0CFF1F33
:1010E0001D0DFF1F280DFF1F200DFF1F5C0CFF1F94
:1010F000C8004000EC2300008C2007406F49704B73
:10110000704A02917049714D714C059603954FF0EC
:101110000009884616461D460494286828B144688C
:1011200000F0B0FB2046002CF9D100232B60039B7C
:1011300030681A46002342F8293028B1446800F08C
:10114000A1FB2046002CF9D100223260029A98F8C7
:1011500000301146002241F8042B049A0291023B10
:101160004FF0000122F81910032B07D8DFE803F035
:10117000470247024FF0010388F8003009F10109E6
:10118000B9F1040F05F1040506F1040608F10108A0
:10119000C3D1504B059EDFF85491DFF854810021F4
:1011A0001970012518F8013B09F8043B1B072BD4E3
:1011B000AC0044F0020244F00304002347F832304C
:1011C00047F83430444B994505F10105EAD13378AD
:1011D000029383F001050021894688468E460A461F
:1011E0003E48047844F0020C07EBCC030393029BC7
:1011F000002B039B5A600CBF8822C822CAE64FF01E
:10120000000388F80030B9E700F01CFBAC0007EBE6
:10121000451300F10802002837D05A60304B47F8D8
:10122000343000F00FFB44F0010307EBC30200F180
:10123000080100B351602B4A47F83320B9E7B0F5F5
:10124000A06F7FF4DCAE012300250293C3E740F6D4
:1012500021229042F7D0D2E66D88002D7FF4CFAEE8
:101260002148029192001044027822F0020202709A
:10127000B1E7022173E6174B44F001021B7847F8EF
:101280003200144A0133137093E7124B114A1B7852
:10129000AC00013347F834001370C2E740298E4692
:1012A0004FF0010328BF4FF0400ECEEB01014FEA93
:1012B0000E4802EB0E090025029391E7040DFF1F73
:1012C000A00CFF1FF40CFF1F2C0DFF1F4C0CFF1F69
:1012D0006010FF1F1D0DFF1FD42007401C0DFF1FB6
:1012E00088004000C8004000C0200740C4200740DC
:1012F000E82300002DE9F843244C00F065FA0022B1
:1013000004F1880023461A605A60083383424FF084
:101310000001F8D11E481F4A0368DFF890E01E4F15
:101320001E4D1F4EDFF88880DFF888C0DFF88890F8
:1013300043F48023036013681A4843F0407313603A
:10134000C4F307238EF80030C4F307433B70240E28
:10135000FF2302F5C9222C7002F5847288F8003050
:10136000114D8CF800303370012389F8003070265D
:101370008EF864104FF40014102107F82C3C2E70E6
:10138000046011700EF1640EBDE8F8830000FF1FC9
:101390003480044000D80040B0200740B42007400B
:1013A0001020074004E100E035E400E09C20074005
:1013B00080200740882007409420074008B5FFF7A9
:1013C00055F8FFF7CDF800F001F8FAE738B52C4CE6
:1013D000237803B138BD0123237000F0A9FC002855
:1013E00042D100F073FD00283BD100F00BFC002837
:1013F00034D100F06DFA70BB00F062FB40BB00F02E
:10140000E3FA10BB00F0E6FCE0B900232370EFF331
:101410000583002BDED1EFF3108172B6194B1868EB
:1014200028B3194C227812BB45691D600123237033
:101430000DB3AA6101B962B6002545778368984764
:101440002570C7E700F0DCFDDFE700F0DBFDD9E742
:1014500000F0DAFDD3E700F0CFFDCDE700F0CEFDE0
:10146000C7E700F0D3FDC0E700F012F8B9E70029A4
:10147000B0D162B638BD054B1D600029DCD1DAE77A
:10148000300DFF1F440DFF1F480DFF1F400DFF1FB4
:10149000704700BF10B4EFF3108272B6437F33B9C8
:1014A000017F012908D0032910D00123437702B915
:1014B00062B65DF8044B7047114C2168A1B1114927
:1014C00043610B68836108605861EEE70E4C216848
:1014D00081B10E4943610B688361086058610C4B10
:1014E0004FF080511960E0E7064B41618161206057
:1014F0001860DAE7054B4161816120601860EEE712
:10150000440DFF1F400DFF1F340DFF1F380DFF1F3F
:1015100004ED00E010B4047F4160022CC26003D0EF
:101520005DF8044BFFF7B6BF83685DF8044B1847BE
:1015300070B5EFF3108272B60C4C206880B10C4E7F
:1015400000254369236073B19D6102B962B6457796
:1015500083689847EFF3108272B620680028F0D1B4
:1015600002B962B670BD3360EFE700BF340DFF1FF4
:10157000380DFF1FFFF7DCBF184A30B41468002C89
:1015800027D0036821688B420ED2CB1A00218460D9
:10159000C1602360E06010600223037530BC7047B7
:1015A00011688B42144608D3A2685B1A0360002AB4
:1015B000F6D18260C460A060EEE7D268C260846049
:1015C000E060C568CB1A0222A8602360027530BCB7
:1015D00070478460C4601060DEE700BF3C0DFF1FF1
:1015E000F8B5224E34682CB32368002B3AD1204F33
:1015F0001D4604E03468ECB12368002B32D1A368A7
:1016000003B1DD6020693360036825751B68BB4248
:1016100021D1037F4560022BC46020D0FFF73AFF41
:101620006368002BE6D023602046FFF7A5FF3468EF
:10163000002CE1D1EFF3108372B60E4A002110683E
:10164000116003B962B628B18468FFF795FF2046A0
:101650000028F9D1F8BD224600219847E0E78368C9
:101660009847DDE7013B2360E4E700BF3C0DFF1F27
:10167000151500004C0DFF1F024A1368013313605B
:10168000FFF7AEBF440CFF1F08B5104C08E02368FD
:1016900059050DD423681A050FD42368DB0411D42F
:1016A00023685803F3D5FFF71BFA23685905F1D5D2
:1016B00000F01CFC23681A05EFD500F0B3FA23688C
:1016C000DB04EDD500F014F9EAE700BF34800440F4
:1016D00008B5FFF7D9FF00BF014B10221A807047F1
:1016E00000200540704700BF30B42948294A2A4BE2
:1016F0002A4D6024E121047011701B78284C082BBE
:1017000030D00A2B2748284937D00C2B0CBF342265
:101710003C2212232A60236002600B60234B244981
:101720001B78244ABBB101230B601360224B234971
:101730001B78234A012B26D9042B0FD9082B1ED93D
:10174000102B94BF862387230B6013601D4B01224F
:101750001A7030BC70470B601360E7E784230B609E
:101760001360F3E700F58E200F49083000221323A1
:101770002A60236002600B60D0E73822F7E78523F8
:101780000B601360E2E780230B601360DEE700BFAD
:101790000040074001400740F806FF1F08B0034023
:1017A0000CB0034008B00B400CB00B40510DFF1FB4
:1017B00020B0034020B00B40F906FF1F24B00340C7
:1017C00024B00B40500DFF1F72B6184A184B194930
:1017D0001160702280211A701A46197013781B0646
:1017E000FCD510B5144B84B0186862B6134B144C7A
:1017F000984298BF00EB800001A998BF40000A22E0
:1018000000F0DAF901A92046002311F8012B013379
:101810003AB10A2B20F8022FF7D11623237004B017
:1018200010BD5B00DBB2237004B010BD04000240A9
:1018300000000240000007410C0002407F96980023
:10184000E007FF1F72B60D480268B2FA82F30B2B55
:1018500010DC4FF00041D94022EA0102026062B67A
:10186000074803EBC303DB00C2180021C150104638
:101870005160704762B60020704700BFF807FF1F35
:101880009803FF1F0D4B0E4AC31AA2FB03231B092B
:101890000B2B0CD80B4A127852B972B60A484FF08B
:1018A0000041026821FA03F31A43026062B67047EE
:1018B000064A1278002AF0D0FFF78EB89803FF1F6F
:1018C000398EE3381D0DFF1FF807FF1F280DFF1F7E
:1018D000054A064B10781B78C0B2DBB2984238BF7D
:1018E0004030C01A704700BF580DFF1F590DFF1F31
:1018F00030B42B4B1A7994061FD52A48DA7903782D
:10190000294901333F2B0978C8BF00238B42D2B24B
:1019100003D0264CD9B2E2540170254A116861B156
:10192000244A1278D2B2934236BFC2F140029B1AC7
:101930009B18272BC4BF01230B70194AD378DBB245
:10194000180611D45A060DD5154B1B795B0609D51F
:10195000194B1A491B6800220A7003B11A70104B08
:101960002C22DA7030BC704711790906EAD5144987
:1019700010480C780178C9B28C420DD04A1C272A35
:1019800084BF00210A460F4D054C98BFD1B2AA5C16
:10199000D2B2E2710170D5E76C21D170D2E700BFFD
:1019A00000C00640580DFF1F590DFF1F840DFF1F7B
:1019B000540DFF1FC50DFF1FC80DFF1FC40DFF1FD6
:1019C000CC0DFF1F5C0DFF1F054A064B10781B78DE
:1019D000C0B2DBB2984238BF4030C01A704700BF77
:1019E000D40DFF1FD50DFF1F30B42B4B1A79940671
:1019F0001FD52A48DA790378294901333F2B097822
:101A0000C8BF00238B42D2B203D0264CD9B2E254D5
:101A10000170254A116861B1244A1278D2B293420A
:101A200036BFC2F140029B1A9B18272BC4BF01236B
:101A30000B70194AD378DBB2180611D45A060DD5AB
:101A4000154B1B795B0609D5194B1A491B680022F7
:101A50000A7003B11A70104B2C22DA7030BC704738
:101A600011790906EAD5144910480C780178C9B2F1
:101A70008C420DD04A1C272A84BF00210A460F4DF4
:101A8000054C98BFD1B2AA5CD2B2E2710170D5E721
:101A90006C21D170D2E700BF00A00E40D40DFF1F13
:101AA000D50DFF1F000EFF1FD00DFF1F410EFF1FA2
:101AB000440EFF1F400EFF1F480EFF1FD80DFF1FD3
:101AC000054A064B10781B78C0B2DBB2984238BF8B
:101AD0004030C01A704700BF500EFF1F510EFF1F4D
:101AE00030B42B4B1A7994061FD52A48DA7903783B
:101AF000294901333F2B0978C8BF00238B42D2B25A
:101B000003D0264CD9B2E2540170254A116861B164
:101B1000244A1278D2B2934236BFC2F140029B1AD5
:101B20009B18272BC4BF01230B70194AD378DBB253
:101B3000180611D45A060DD5154B1B795B0609D52D
:101B4000194B1A491B6800220A7003B11A70104B16
:101B50002C22DA7030BC704711790906EAD5144995
:101B600010480C780178C9B28C420DD04A1C272A43
:101B700084BF00210A460F4D054C98BFD1B2AA5C24
:101B8000D2B2E2710170D5E76C21D170D2E700BF0B
:101B900000D00640500EFF1F510EFF1F7C0EFF1F8E
:101BA0004C0EFF1FBD0EFF1FC00EFF1FBC0EFF1F00
:101BB000C40EFF1F540EFF1FF0B44D1E2E4600240E
:101BC00000E00134B0FBF2F302FB1300092800F13E
:101BD00030078ABF3730F8B2C0B206F8010F184696
:101BE000002BEED10A1953704CB1107815F8016F23
:101BF00028700133E01A834202F80169F5DB0846D8
:101C0000F0BC7047054A064B10781B78C0B2DBB2B7
:101C1000984238BF4030C01A704700BF380FFF1FCE
:101C2000CD0EFF1FF0B4384B1A7912F0300F2CD0C4
:101C300072B6997D01F0FF0200293DD062B6334FA4
:101C4000334938780D78334E1C46C0B2EDB2431C90
:101C5000402BE17928BF0023AB4202F1FF32C9B229
:101C60001CBFF154184612F0FF02F0D12A4B1B683A
:101C7000C2B23A704BB1A84236BFC5F14005401B15
:101C800040192728C4BF01221A701F49CA78D2B24E
:101C9000150616D452060DD51B4B1B795B0609D5CC
:101CA0001E4B1F491B6800220A7003B11A70164BA5
:101CB0003C22DA70F0BC70474022D9795A7462B67F
:101CC000E3E70B791C06E5D5164B174E1C783378E5
:101CD000E4B2DBB29C420ED0144D01E0A3420AD024
:101CE0000133282B28BF00230879E85CC0B2C871F3
:101CF000087D0728F2D9DBB2034933700B79180647
:101D000044BF7C23CB70C5E700B00640380FFF1FEF
:101D1000CD0EFF1FF80EFF1FC80EFF1F3C0FFF1F49
:101D2000CC0EFF1F400FFF1F390FFF1FD00EFF1FEC
:101D300038B5164D2868E0B101884488A14213DD0A
:101D400003191B7A83B104F10803C2180C1B00238A
:101D500002E012F8011F21B10133A342F9D120465C
:101D600038BD1C46204638BDFFF78CFD002028609A
:101D700038BD074B1B780BB9002038BD0220FEF799
:101D8000F7FD28600028D7D1F6E700BF480FFF1FF6
:101D9000280DFF1F0D4B1B78BBB910B50C4C2168EB
:101DA00003F0FF024B883F2B07DC07330B4401F1A4
:101DB000470003F8012F8342FBD140230B80012011
:101DC000FEF74CFE0023236010BD7047410FFF1F3C
:101DD000440FFF1F054A064B10781B78C0B2DBB2D8
:101DE000984238BF4030C01A704700BF540FFF1FE1
:101DF000550FFF1F30B42B4B1A7994061FD52A4874
:101E0000DA790378294901333F2B0978C8BF0023C9
:101E10008B42D2B203D0264CD9B2E2540170254A8B
:101E2000116861B1244A1278D2B2934236BFC2F12E
:101E300040029B1A9B18272BC4BF01230B70194A21
:101E4000D378DBB2180611D45A060DD5154B1B7981
:101E50005B0609D5194B1A491B6800220A7003B1A9
:101E60001A70104B2C22DA7030BC704711790906B9
:101E7000EAD5144910480C780178C9B28C420DD0CB
:101E80004A1C272A84BF00210A460F4D054C98BFE3
:101E9000D1B2AA5CD2B2E2710170D5E76C21D170E7
:101EA000D2E700BF00B00E40540FFF1F550FFF1FB9
:101EB000800FFF1F500FFF1FC10FFF1FC40FFF1F19
:101EC000C00FFF1FC80FFF1F580FFF1F054A064B0B
:101ED00010781B78C0B2DBB2984238BF4030C01ACD
:101EE000704700BFD00FFF1FD10FFF1FF0B4384B5A
:101EF0001A7912F0300F2CD072B6997D01F0FF02E2
:101F000000293DD062B6334F334938780D78334ECF
:101F10001C46C0B2EDB2431C402BE17928BF002320
:101F2000AB4202F1FF32C9B21CBFF154184612F0A5
:101F3000FF02F0D12A4B1B68C2B23A704BB1A842E3
:101F400036BFC5F14005401B40192728C4BF0122F8
:101F50001A701F49CA78D2B2150616D452060DD58A
:101F60001B4B1B795B0609D51E4B1F491B680022C2
:101F70000A7003B11A70164B3C22DA70F0BC70473D
:101F80004022D9795A7462B6E3E70B791C06E5D58D
:101F9000164B174E1C783378E4B2DBB29C420ED05D
:101FA000144D01E0A3420AD00133402B28BF002387
:101FB0000879E85CC0B2C871087D0728F2D9DBB2A5
:101FC000034933700B79180644BF7C23CB70C5E7F7
:101FD00000A00640D00FFF1FD10FFF1F1410FF1FDE
:101FE000CC0FFF1F5810FF1F5410FF1F5C10FF1F66
:101FF0005510FF1FD40FFF1F704700BF704700BF71
:10200000704700BF704700BF704700BF704700BFF8
:1020100070B50F4E0F4D761BB61018BF002405D0BB
:10202000013455F8043B9847A642F9D10A4E0B4DAE
:10203000761B00F01FFAB61018BF002406D001343A
:1020400055F8043B9847A642F9D170BD70BD00BF5A
:1020500080240000802400008824000080240000E8
:1020600070B4840746D0541E002A41D0CDB2034636
:1020700002E0621EE4B3144603F8015B9A07F8D14C
:10208000032C2ED9CDB245EA05250F2C45EA05458E
:1020900019D903F110022646103E0F2E42F8105CAB
:1020A00042F80C5C42F8085C42F8045C02F1100251
:1020B000F2D8A4F1100222F00F0204F00F04103243
:1020C000032C13440DD91E462246043A032A46F82F
:1020D000045BFAD8221F22F003020432134404F0F6
:1020E00003042CB1C9B21C4403F8011BA342FBD169
:1020F00070BC704714460346C2E700BF024B13B1E1
:10210000024800F005B87047000000001D210000E3
:10211000002301461A46184600F014B838B5074D9A
:10212000074C2C1BA41005D0013C55F8043D9847E2
:10213000002CF9D1BDE8384000F0A6B9000000003D
:10214000000000002DE9F047254C2568D5F84841EE
:102150000646884692469946C4B360681F2817DC35
:10216000431C76B104EB80050122C5F888A0D4F8A1
:10217000881182401143022EC4F88811C5F80891D5
:102180001ED00230636044F820800020BDE8F08754
:10219000144B03B34FF4C870AFF300800446D0B1C2
:1021A000D5F84831002780E88800C5F8484138460E
:1021B0000123C4F88871C4F88C71002EE1D0D1E7F6
:1021C000D4F88C110A43C4F88C21DAE705F5A6741B
:1021D000C5F84841C1E74FF0FF30BDE8F08700BFC8
:1021E00070240000000000004008FE4340A00440AE
:1021F0004408FE4344A004400018FE4300C00440CD
:102200003000FE43309004403400FE4334900440DC
:102210001C18FE431CC004401018FE4310C00440AC
:102220000818FE4308C004400C18FE430CC00440CC
:102230000C10FE430CB004401010FE4310B00440DC
:102240001810FE4318B004401C10FE431CB004409C
:102250001410FE4314B004400418FE4304C00440AC
:102260000010FE4300B004400008FE4300A00440FC
:102270000408FE4304A004400C08FE430CA00440E4
:102280000808FE4308A004401418FE4314C004408C
:102290001818FE4318C004400410FE4304B0044064
:1022A0000810FE4308B004406820FE4368D0044094
:1022B0001400FE43149004403800FE43389004405C
:1022C0003C00FE433C9004404000FE4340900440EC
:1022D0004808FE4348A004404C08FE434CA004407C
:1022E0002808FE4328A004402C08FE432CA00440EC
:1022F0006020FE4360D004406420FE4364D004406C
:102300002010FE4320B004402410FE4324B00440BB
:102310002810FE4328B004402C10FE432CB004408B
:102320004400FE43449004407000FE43709004401B
:102330007400FE43749004406800FE4368900440BB
:102340005008FE4350A004405808FE4358A00440E3
:102350005C08FE435CA004405408FE4354A00440C3
:102360002018FE4320C004402418FE4324C004402B
:102370001008FE4310A004401408FE4314A00440BB
:102380003818FE4338C004403418FE4334C00440BB
:102390003018FE4330C004403C18FE433CC00440AB
:1023A0002C18FE432CC004402820FE4328D00440B3
:1023B0002C20FE432CD004400020FE4300D00440DB
:1023C0000420FE4304D004400820FE4308D004400B
:1023D0000C20FE430CD004401020FE4310D00440DB
:1023E0001420FE4314D004401519151900010000F3
:1023F000FC06FF1F12000000000200002807FF1F5C
:1024000049000000002201007407FF1F21000000A6
:10241000002101005A07FF1F0900000000220000F0
:102420009807FF1F1C000000002100003A07FF1F53
:102430000900000000030000DC07FF1F000000008F
:10244000010309041007FF1F000000000203090434
:10245000B407FF1F0000000003030904E007FF1F8B
:10246000000000000000000000000000000000006C
:102470000008FF1FF8B500BFF8BC08BC9E467047B7
:08248000FD20000035040000FE
:04248800F8B500BFE4
:10248C000A0400001201010100000040C01686047D
:10249C0000020102030100001803540065006500EE
:1024AC006E00730079006400750069006E006F00A7
:1024BC0009024900020100C03209040000020300B5
:1024CC000000092111010001221C000705830340B3
:1024DC000001070504034000010904010002030088
:1024EC000000092111010001222100070581034090
:1024FC0000010705020320000200000006C9FF09C5
:10250C0004A15C7508150026FF0095400975810231
:10251C0095200976910295040976B102C00000005D
:10252C0006ABFF0A0002A1017508150026FF0095F5
:10253C004009018102954009029102C02603540012
:10254C00650065006E007300790064007500690019
:10255C006E006F00200052006100770048004900B7
:10256C0044000000040309040C03000000000000F8
:10257C00000000000000000000000000000000004F
:10258C00FFFFFFFF0000000000000000EC0AFF1F2F
:10259C00540BFF1FBC0BFF1F0000000000000000CD
:1025AC00000000000000000000000000000000001F
:1025BC00000000000000000000000000000000000F
:1025CC0000000000000000000000000000000000FF
:1025DC0000000000000000000000000000000000EF
:1025EC0000000000000000000000000000000000DF
:1025FC0000000000000000000000000000000000CF
:10260C0000000000000000000000000000000000BE
:10261C0000000000000000000000000000000000AE
:10262C00000000000000000000000000000000009E
:10263C0001000000000000000E33CDAB34126DE63B
:10264C00ECDE05000B0000000000000000000000A4
:10265C00000000000000000000000000000000006E
:10266C00000000000000000000000000000000005E
:10267C00000000000000000000000000000000004E
:10268C00000000000000000000000000000000003E
:00000001FF
