:1000000000180020C1000000711700003517000023
:1000100035170000351700003517000035170000B0
:100020003517000035170000351700007117000064
:1000300071170000351700008D1A00005D1B0000CD
:100040007117000071170000711700007117000090
:100050007117000071170000711700007117000080
:100060007117000071170000711700007117000070
:10007000590B000001180000D9180000711700008A
:100080007117000071170000711700007117000050
:100090007117000071170000711700007117000040
:1000A000990D000071170000711700007117000012
:1000B0007117000071170000711700007117000020
:1000C000F8B501F059FB0821474A484B1A60484AE5
:1000D000484B1A60484A494B1A60494B1A780A4201
:1000E00002D01A780A431A702A22464B46481A70E0
:1000F00000234649464C1A188A4203D2E558043375
:100100001560F8E70021434B434A934201D202C3F2
:10011000FBE70023414A424958589446985004331B
:10012000C02BF9D100210326FF2580248A083D4BEE
:100130009200D2180B002F003340DB009F40106864
:100140000131B84307002000984003003B4313608F
:100150002029EBD16246344B1A608A22334B1A7045
:10016000334B663A5A707C321A709E3A9979114232
:10017000FCD0102299791142FCD10C209A792C499B
:100180000240082AFAD1053A0A713D324A71203AF2
:1001900099791142FCD0402299791142FCD0C021BA
:1001A000244A890511602021214A117014399A7955
:1001B0000A400C2AFBD1204A204B1A60204A214BCE
:1001C0001A600022204B1A60204B07321A60204A26
:1001D000204B1A6062B600F031FB01F0B3FD01F074
:1001E000D1FA01F007FAFEE7300004F03480044051
:1001F000823F0000388004400100000F3C80044032
:1002000002D0074000E0074020FDFF1F1CFEFF1F3B
:10021000981F00001CFEFF1FDC00002000F9FF1FDC
:100220000000000000E400E008ED00E0005006409F
:100230000040064044800440C0000505048004409E
:10024000BF5D000014E000E018E000E010E000E016
:100250000000202020ED00E0FFFFFFFFFFFFFFFF79
:10026000FFFFFFFFFFFFFFFFFFFFFFFFFFFFFFFF9E
:10027000FFFFFFFFFFFFFFFFFFFFFFFFFFFFFFFF8E
:10028000FFFFFFFFFFFFFFFFFFFFFFFFFFFFFFFF7E
:10029000FFFFFFFFFFFFFFFFFFFFFFFFFFFFFFFF6E
:1002A000FFFFFFFFFFFFFFFFFFFFFFFFFFFFFFFF5E
:1002B000FFFFFFFFFFFFFFFFFFFFFFFFFFFFFFFF4E
:1002C000FFFFFFFFFFFFFFFFFFFFFFFFFFFFFFFF3E
:1002D000FFFFFFFFFFFFFFFFFFFFFFFFFFFFFFFF2E
:1002E000FFFFFFFFFFFFFFFFFFFFFFFFFFFFFFFF1E
:1002F000FFFFFFFFFFFFFFFFFFFFFFFFFFFFFFFF0E
:10030000FFFFFFFFFFFFFFFFFFFFFFFFFFFFFFFFFD
:10031000FFFFFFFFFFFFFFFFFFFFFFFFFFFFFFFFED
:10032000FFFFFFFFFFFFFFFFFFFFFFFFFFFFFFFFDD
:10033000FFFFFFFFFFFFFFFFFFFFFFFFFFFFFFFFCD
:10034000FFFFFFFFFFFFFFFFFFFFFFFFFFFFFFFFBD
:10035000FFFFFFFFFFFFFFFFFFFFFFFFFFFFFFFFAD
:10036000FFFFFFFFFFFFFFFFFFFFFFFFFFFFFFFF9D
:10037000FFFFFFFFFFFFFFFFFFFFFFFFFFFFFFFF8D
:10038000FFFFFFFFFFFFFFFFFFFFFFFFFFFFFFFF7D
:10039000FFFFFFFFFFFFFFFFFFFFFFFFFFFFFFFF6D
:1003A000FFFFFFFFFFFFFFFFFFFFFFFFFFFFFFFF5D
:1003B000FFFFFFFFFFFFFFFFFFFFFFFFFFFFFFFF4D
:1003C000FFFFFFFFFFFFFFFFFFFFFFFFFFFFFFFF3D
:1003D000FFFFFFFFFFFFFFFFFFFFFFFFFFFFFFFF2D
:1003E000FFFFFFFFFFFFFFFFFFFFFFFFFFFFFFFF1D
:1003F000FFFFFFFFFFFFFFFFFFFFFFFFFFFFFFFF0D
:10040000FFFFFFFFFFFFFFFFFFFFFFFFDEF9FFFF23
:1004100010B5064C2378002B07D1054B002B02D0DA
:10042000044800E000BF0123237010BD1CFEFF1F25
:1004300000000000981F0000084B10B5002B03D0EF
:100440000749084800E000BF07480368002B00D1B7
:1004500010BD064B002BFBD09847F9E700000000C9
:1004600020FEFF1F981F00001CFEFF1F0000000061
:1004700010B501210D2000F06DF9042000F046FABE
:1004800010BDFFFF72B670224121084B1A70084A56
:100490001170084A3239117080221A701A7852B2DB
:1004A000002AFBDA044B186862B67047000002406D
:1004B000070002400600024008000240F8B500258F
:1004C00006002C000127172E07DCF0B200F030F9EF
:1004D000002802D03B00AB401C4301350136082DFB
:1004E000F1D1E0B2F8BD0B0A017043700B0C090E9C
:1004F0008370C1707047FFFFF0B5604D99B02B68F5
:1005000001900293029F2B68019A0393039BDB1BCC
:100510009A4200D8AFE008AC0021200000F0B8FFFC
:1005200000283FDD01210D2000F014F9012321787E
:100530000D20194000F0DCF82B6804936378049FC9
:100540005A2B27D140220021200001F02AFC102341
:100550002370FFF797FF0100192002ABC018FFF7C7
:10056000C2FF1D20464B196802ABC018FFF7BBFF46
:100570002120444B196802ABC018FFF7B4FF2520B7
:10058000414B196802ABC018FFF7ADFFFA212000FC
:1005900000F0B2FF00223D4B1A702B680593059ABC
:1005A0003B4B1A6000F0A8FAC9284DD10226F0B2E0
:1005B0000021013600F0CEF8182EF8D13623237032
:1005C000FFF760FF0100192002ABC018FFF78BFF97
:1005D00002206671FFF772FFA0710A20FFF76EFF1D
:1005E000E0711220FFF76AFF20721A20FFF766FF02
:1005F00060722220FFF762FF0022264BA072E27297
:10060000227362730826A15C4B40012119408C467D
:10061000604659108BB2002802D01F4B59408BB254
:10062000013E002EF1D101320E2AEBD1A37310212D
:100630001B0A2000E37300F043FA144B1E702B6872
:100640000693069A124B1A60104C2378002B00D0A8
:1006500059E72B680E4A07931268079B9B1AFA22E8
:100660009200934200D84EE701210D2000F072F86D
:100670000123237047E719B0F0BDC0463CFEFF1FC1
:10068000608004405C8004405880044020FDFF1FCF
:1006900038FEFF1F965A000001A0FFFF0C4B10B55B
:1006A0001A781C00002A03D001210D2000F020F848
:1006B000FA208000FFF720FF2378002B03D00021D1
:1006C0000D2000F015F8FA208000FFF715FF10BD8F
:1006D00020FDFF1F044B82B01B680193019A034B5E
:1006E0001A6002B07047C0463CFEFF1F38FEFF1F75
:1006F00010B51A2818D80C2358430C4A83581018E0
:100700001C7D027A224205D0002901D01A710BE02B
:100710001A7209E043681A68002902D003210A43CB
:1007200001E002218A431A6010BDC046B41D0000DA
:1007300000231A280AD80C335843054A8358101846
:10074000007A1B7C0340581E8341DBB218007047BF
:10075000B41D0000F0B51A282FD80C22170047430B
:10076000164CE5196B682600012901D0042911D126
:10077000504334583018257D027A20202A432275B0
:10078000A22252001A601A68042901D1024313E020
:10079000824311E038592C7A027DA24302758022EF
:1007A000002908D0022902D10422FF3204E00022ED
:1007B000032901D1812252001A60F0BDB41D00004E
:1007C00072B60C4B1A680C4B18680C4B1B6862B65F
:1007D0005B0104D5322393429B415B42C018084B16
:1007E0009A1A084B5A43FA239B005843920D10184B
:1007F0007047C04618E000E03CFEFF1F04ED00E03B
:10080000BF5D0000ABAA020070B50400FFF7D8FF7F
:100810000500002C0FD0FFF7D3FF074B401B984279
:1008200006D9013C002C06D0FA239B00ED18F2E714
:1008300000F0E8FEEFE770BDE703000080221E4BEA
:10084000D20510B51A608022002012061A601B4BD8
:100850001B4918601B4B1C4A1960282313601B4A54
:100860001B4C13601B4A13601B4A13601B4A136026
:100870001B4A1360092222601A4C20601A4C216026
:100880001A4C23601A4C23601A4C22601A4C2060C8
:100890001A4801601A490B601A490B601A4B1A601A
:1008A00000F000FF1920FFF7AFFF00F053FD142008
:1008B000FF30FFF7A9FF10BD00E100E00480034016
:1008C000FFBF0000088003400C80034014800340F9
:1008D000008003401C800340248003402C800340A0
:1008E0003480034004900340089003400C90034080
:1008F000149003400090034004A0034008A003406C
:100900000CA0034014A0034000A0034080212D4A06
:10091000C90013680B43136000232B4A13702B4A42
:1009200013702B4A13702B4A13702B4A13702B4BE6
:100930001B78032B0FD004D8002B0FD1284A294B4A
:100940000BE0152B04D0192B08D1274A274B04E0C4
:10095000234A274B01E0274A274B1A60274B1B7875
:10096000042B11D005D8012B12D1D122244B920097
:100970000DE0052B04D0182B0AD1224A224B06E0A9
:10098000D122224B920002E09122214B92001A6068
:10099000002800D101301F4BC204D20E1A70002271
:1009A000C0B258709A702C32DA70FF231A4A11685C
:1009B00099430B0040210B4313608022174B5201D7
:1009C0001A60704734800440C9FEFF1F45FEFF1FB8
:1009D000D0FEFF1FCAFEFF1F44FEFF1F86FEFF1F43
:1009E0001303000040A004401304000054D004404E
:1009F00018C00440130200000490044021FDFF1FB2
:100A000044A004404404000050D004401CC00440F2
:100A10000890044000A006400CE400E000E100E083
:100A2000F8B51F4B06001B685B0537D51D4B1B68CF
:100A3000002B02D01C4A12781A711C4D2C780134FC
:100A40003F2C0AD9002408E000F09EFE402815DC67
:100A500017490B795BB2002B04DB164F3B78A3429E
:100A6000F2D010E03B7801333F2B00D90023124A2B
:100A7000D25CDBB2D2B2CA713B70EEE7FF28ECDD8C
:100A800000F0C0FDE9E701220B4BF6B21E550B4BFF
:100A9000E4B21A70064BAB322C70DA70F8BDC04667
:100AA00034800440CCFEFF1FC8FEFF1FD0FEFF1F96
:100AB00000A00640CAFEFF1F46FEFF1F44FEFF1FA8
:100AC00070B504004518AC4204D02078FFF7A8FFA9
:100AD0000134F8E770BDFFFF054B1878054BC0B235
:100AE0001A78D3B2984200D24030C01A7047C0463C
:100AF000C9FEFF1F45FEFF1F10B5124B12491A78A1
:100B00000878D2B2C3B29A4218D001333F2B00D931
:100B100000230E48C45CD8B208700D49E4B20968DD
:100B2000200000290CD0934200D94032D31A200073
:100B30001A2B05DC074B1B780B7201E001204042A9
:100B400010BDC046C9FEFF1F45FEFF1F88FEFF1FE8
:100B500040FEFF1F87FEFF1F30B5234A13799B0617
:100B600011D5224BD479187819000130E4B2002352
:100B70003F2800DC03001E480078834203D01D4854
:100B8000C454DBB20B70D1781748C9B24BB2002BFA
:100B900017DA03795BB2002B13DA174B174C1D7869
:100BA0002378DBB29D4202D16C23C37009E001338C
:100BB0003F2B00D900231248C05CDBB2C0B2D07119
:100BC0002370402319420ED0117919420BD0002115
:100BD0000C4B19700C4B1B688B4202D00B490978E7
:100BE00019722C23D37030BD00A00640C9FEFF1F30
:100BF00045FEFF1F88FEFF1FD0FEFF1FCAFEFF1F1E
:100C000046FEFF1F44FEFF1FCCFEFF1FC8FEFF1F56
:100C10000223F0B50A4A0B4E1478C8272343DB00A1
:100C2000F518686008480578002D00D1403F090498
:100C30000F43F75001235D405C4005701470F0BD18
:100C40003CFFFF1F00F8FF1FB4FFFF1F431E10B53E
:100C50000020032B0ED872B6074A99008858002846
:100C600007D044685B008C50044904885A5A121B10
:100C70005A5262B610BDC0462CFFFF1FD4000020A0
:100C8000431E0020032B09D872B6054A9B009B58CF
:100C9000002B02D001305B68FAE762B67047C046AD
:100CA00080FFFF1FF8B572B60123174A0825944646
:100CB0001E00164964465A1EA25C2A421AD05F01E1
:100CC0007C589A00002C05D1CB1908305860104B85
:100CD000CB5109E03243D2005458002C0AD18B1872
:100CE000083058600B4B8B500B4A1378013B137044
:100CF00062B608E00133052BDCD162B60022064B58
:100D00001A7000F09DFBF8BDF81E000000F8FF1FF0
:100D100088004000C8004000AAFFFF1F421E10B517
:100D2000032A30D8022380001843174BC0001B1839
:100D300072B6164CA05C03280BD800F045FF1604D1
:100D40000207052012E0083302200FE008330420D8
:100D50000CE00F48920014580E4B002C01D111509A
:100D600001E09858416099500CE00320A0540A001B
:100D700008325A60C822180700D4403A098809048A
:100D80000A431A6062B610BD00F8FF1FE8FEFF1F9D
:100D900080FFFF1F90FFFF1FF7B5BA4B1C781D00A7
:100DA0000423E4B21C421DD0B74B1B78002B16D095
:100DB000B64A1378DBB2002B05D0013BDBB21370CF
:100DC000002B00D100BEB24A1378DBB2002B06D054
:100DD000013BDBB21370002B01D100F0EFFB0422CA
:100DE000A84B1A700822224000D14AE2A94BAA4F10
:100DF0001B78DBB29C08E4001D093C19002D00D0D3
:100E0000D0E1226863689006000F01380C2800D9F1
:100E1000C4E100F0E3FE81018101C301C301C3010C
:100E2000C301C301C301A001C301C301C3010D007C
:100E30001A689A4E5B689A49736000230B6001211F
:100E4000984832602060984C92B22170974C3B6178
:100E5000BB610190A24218D8D020C000824200D3CA
:100E6000E1E081204000824200D1BDE006D8802A26
:100E700000D1A3E0822A00D1A5E0E9E08C4B9A42A0
:100E800000D1C0E0FF33FF3313E090231B019A42EF
:100E900013D009D8803B9A4200D0D9E07A4B854CD8
:100EA0001B7823700B00D9E0834B9A4200D130E1CC
:100EB000824B9A4200D1CFE0CAE03C003D00B278BC
:100EC000714B20341A70A03580222368134203D05E
:100ED0006068083800F0B4FA0834AC42F4D1002459
:100EE0002500774BE058002805D04368009300F0B8
:100EF000A7FA0098F7E7724B1851724BE050724B0B
:100F0000E058002805D04368009300F099FA009853
:100F1000F7E76D4B6D4A18516D4BE0506B00D052A6
:100F20006C4BE85C0238032807D800F04DFE020441
:100F30000204002200E001225A5501350434042D38
:100F4000CFD100230124644D2B70644B6449621E91
:100F5000E3188A5C9B001A7008231A4220D000F024
:100F600051FA6301002805D0FA18083050605D4A34
:100F7000FA5003E0F8502B7801332B7000F042FA5E
:100F80000122A3001343DB00002805D0FA18083023
:100F90005060019AFA5003E0F8502B789B182B70A0
:100FA00002210023A2001143C9007B5003210A4300
:100FB0008A400134BB50052CC7D14EE03D4C237014
:100FC000637002234AE07F22B0880240042A3FD89F
:100FD000384C920023706370434BD218022312786E
:100FE0001A423BD0217039E07F23B2881A40042A8C
:100FF0002ED87388002B2BD102203B499200521827
:10100000117881430DE07F23B2881A40042A1FD84B
:101010007388002B1CD1022033499200521811789A
:101020000143117019E07288B188304B5C68002C64
:101030000ED01888904209D15888884206D1120AE9
:10104000032A01D1237809E01B8907E00C33EDE77F
:101050000F22254B1A705CE000231C00F5889D428E
:1010600000D91D002E00402D00D94026200031005F
:10107000FFF7CEFDA419AD1B3AD12F00402E3BD077
:1010800047E0C04680200740B3FFFF1F3DFFFF1F22
:10109000C0FFFF1F9020074000F8FF1FA0FFFF1FA9
:1010A000D4FEFF1FC8004000B4FFFF1F81060000F0
:1010B00002030000ABFFFF1F21090000210A00000E
:1010C0002CFFFF1FD8FEFF1F80FFFF1FD400002052
:1010D00090FFFF1FE8FEFF1FAAFFFF1F30C801108F
:1010E000F81E000088004000C0200740FC1E0000E1
:1010F0004027AF4200D92F0020003900FFF788FDBC
:10110000E419ED1B01D1402F03D1794B1C60794BC1
:101110001D800122784B40E0784A79491068884266
:1011200016D1784952688A4212D11A78A92A0FD169
:101130005A78452A0CD19A78C22A09D1DB786B2BD0
:1011400006D10021704BBD3A08001A70FFF760FD10
:101150006E4B236022E0664F3E68002E13D0654B35
:101160001C882500402C00D9402529003000FFF7BD
:101170004FFD641B5F4BA4B21C80002C01D1402D9D
:1011800000D174193C60A0225C4BD20019889142B6
:1011900004D100225A709A785D4B1A700122564B86
:1011A0001A706AE008226068013D0838EDB2134009
:1011B00037D000F045F95749A8004258564B002A4D
:1011C0001CD0566846501100585D083161600328F4
:1011D0000BD800F0F9FC02040608032104E0022108
:1011E00002E0052100E0042159550821C8230C42E2
:1011F00000D1403B1288120413433DE0585D0328A0
:1012000008D800F0E1FC3A3A0204002200E0012292
:101210005A5532E008221440621E944102345C5553
:101220002BE02268110C8AB2028000291ED03B49B3
:1012300043804360AB005F58394E002F01D15850B6
:1012400001E0F158486037496D00F0506B5AD218F0
:101250006A5200F0D7F8002802D00830606005E03C
:10126000314A206013780133137006E008231C42D2
:1012700001D12E4B00E0254B236008222C4B1A7025
:101280008BE5012004421ED002231B49274C0B7022
:10129000284B294E1A70294B1C609C60284C1A61FF
:1012A000DC600D249A615E60264B1C70FF23264C87
:1012B0002370174C2B702270244A13709F22244BEA
:1012C0001A70087013E063B2002B04DA0D221D4B74
:1012D0001A7080232B700222144204D01A490B7812
:1012E000DBB20B702A7010231C4200D02B70F7BDAC
:1012F000D4FEFF1FA8FFFF1F94200740A0FFFF1F81
:1013000021090003010004003DFFFF1FC800400049
:101310009820074080FFFF1FE8FEFF1F2CFFFF1FE4
:10132000D8FEFF1FD4000020AAFFFF1F8800400046
:10133000802007403CFFFF1FECFEFF1F00F8FF1F4F
:1013400040FFFF1FC0200740882007408C20074037
:101350008420074010B500F031FB002211001B4B28
:10136000D150981808324160882AF9D18020184954
:10137000C0020A6802430A601A0A1649D2B20A7009
:101380001A0C1549D2B20A70144A1B0E1370FF23AF
:10139000134A00201370134A13491370134A137031
:1013A00001220A701249087012490A70124A116823
:1013B00099430B0070210B43136080220F4B5204A2
:1013C0001A6010220E4B1A7010BDC04600F8FF1FA5
:1013D000348004409C200740B0200740B4200740E0
:1013E00080200740882007409420074010200740B5
:1013F000002107408420074018E400E000E100E0FD
:101400000821074070B572B60B4D2C68200000F023
:101410007BFC0B2802DD62B600200CE080231B065B
:10142000C3409C432C6062B648235843034B1818B2
:1014300000230360436070BD24FDFF1FC0F9FF1F40
:1014400010B504000E484821201A00F0D1FB0B28EB
:1014500014D80C4B1B78002B07D00B4B1B78002BA0
:1014600003D02000FFF71EFC08E072B680231B06A5
:10147000C340064A11680B43136062B610BDC046F4
:10148000C0F9FF1FAAFFFF1FB3FFFF1F24FDFF1FAF
:10149000F0B507000C00164E85B033680293029B2E
:1014A0000193144B1B78002B1BD00420FFF7CEFBBD
:1014B000051E0BD13368019A0393039B9B1AA34229
:1014C00012D8002C11D000F09DF8EAE7010040226C
:1014D0000831380000F05CFC2800FFF7B1FF402025
:1014E00004E00120404201E000E0200005B0F0BD32
:1014F0003CFEFF1FB3FFFF1FF0B506000F00184DA5
:1015000085B02B680293029B0193164B1B78002B2E
:101510001FD00320FFF7B4FB032809D92B68019AD9
:101520000393039B9B1ABB4216D800F06BF8ECE7C1
:10153000FFF768FF041EF1D0402531002A00083073
:1015400000F026FC032025802100FFF7E7FB2800A0
:1015500003E00120404200E0002005B0F0BDC0469D
:101560003CFEFF1FB3FFFF1F70B5124C2368002B1A
:1015700004D0206842880188130010E00E4B1B78CD
:10158000002B03D00220FFF761FB20602568002DAF
:10159000EFD10CE0C618367A002E03D001339D1A25
:1015A0008B42F7DB002D02D1FFF74AFF25602800B0
:1015B00070BDC046BCFFFF1FB3FFFF1F10B50B4B34
:1015C0001B78DBB2002B0FD1094C21684A883F2AD7
:1015D00003DC881803720132F9E7402301200B80F5
:1015E000FFF79CFB0023236010BDC046B5FFFF1F23
:1015F000B8FFFF1F10B5FEF73BFFFFF74FF800F0F5
:1016000001F8FAE770B5234C2378002B40D1013361
:101610002370FFF7A9FF002801D000F0ACFAFFF714
:101620005BFA002801D000F0A3FA00F0D9F80028F6
:1016300001D000F09EFA00F03FF9002801D000F040
:1016400099FA00232370EFF30583002B20D1EFF3E9
:10165000108272B6104D2868002803D00F4C2178F4
:10166000002903D0002A13D162B611E001232370B0
:1016700043692B60002B01D0996101E008490B60A0
:10168000002A00D162B60025836845779847257007
:1016900070BDC046C1FFFF1FC8000020CC00002065
:1016A000C40000201B4B1C4A19781C4B082901D18F
:1016B000002102E00A2903D12E311160132206E035
:1016C0000C2901D1283100E03C21116012221A605E
:1016D000134B1A78134B002A01D0002200E001229C
:1016E0001A60114B1A78114B012A01D880220CE0A4
:1016F000042A01D8842208E0082A01D8852204E0BF
:10170000102A01D8862200E087221A600122084BA5
:101710001A70704728FDFF1F08B003400CB003404B
:10172000C3FFFF1F20B0034029FDFF1F24B003406B
:10173000C2FFFF1F70B580258026ED02F6000B4C1E
:1017400023682B4201D0FFF727FB2368334201D0E7
:10175000FFF702FA23681B0501D500F051F8236852
:10176000DB04ECD500F0B8F8E9E7C046348004406B
:1017700010B5FFF7DFFFFFFF0022014B1A60704733
:10178000008104407047FFFFEFF31380002821D150
:10179000EFF31083002B1FD1EFF3058100290FD049
:1017A00018000F290ED90B00103B0C4A9B089B0018
:1017B0009B18032218680A40D200D040C0B201E052
:1017C00080204000EFF31183002B05D0984203D90D
:1017D000180001E0012040427047C04600E400E0EC
:1017E000054B1878054BC0B21A78D3B2984200D294
:1017F0004030C01A7047C0462F000020C5FFFF1FB1
:1018000030B5234A13799B0611D5224BD479187829
:1018100019000130E4B200233F2800DC03001E4819
:101820000078834203D01D48C454DBB20B70D178DA
:101830001748C9B24BB2002B17DA03795BB2002B01
:1018400013DA174B174C1D782378DBB29D4202D177
:101850006C23C37009E00133272B00D90023124801
:10186000C05CDBB2C0B2D0712370402319420ED0ED
:10187000117919420BD000210C4B19700C4B1B68CD
:101880008B4202D00B49097819722C23D37030BDDA
:1018900000B006402F000020C5FFFF1FEEFFFF1F16
:1018A0003800002030000020C6FFFF1FC4FFFF1FCC
:1018B000340000202E000020054B1878054BC0B2E4
:1018C0001A78D3B2984200D24030C01A7047C0464E
:1018D000AC0000204100002030B52C4A13799B0653
:1018E00023D52B4BD479187819000130E4B20023AA
:1018F0003F2800DC030027480078834203D02648B5
:10190000C454D8B208702549086800280DD024496D
:101910000978C9B28B4201D35B1A01E05B1A4033EC
:10192000272B02DD1F4B1B780371D1781748C9B2F2
:101930004BB2002B17DA03795BB2002B13DA1A4B88
:10194000174C1D782378DBB29D4202D16C23C37003
:1019500009E00133272B00D900231448C05CDBB217
:10196000C0B2D0712370402319420ED011791942B0
:101970000BD000210E4B19700E4B1B688B4202D00E
:101980000D49097819722C23D37030BD00C0064070
:10199000AC000020410000206B0000203C00002033
:1019A000AD0000206A000020B400002042000020AA
:1019B00040000020B0000020AB00002030B585B012
:1019C00072B670224121154B1A70154A1170154AD2
:1019D0003239117080221A701A7852B2002AFBDA5A
:1019E000114B186862B6114B984201D80A2358432C
:1019F00001AC0A22210000F0BFF800230C48E15C92
:101A00000500002905D05A008218013351800A2BA5
:101A1000F5D101335B002B7005B030BD00000240F2
:101A20000700024006000240080002407F9698002E
:101A300004FEFF1FEFF3108072B643425841C0B25C
:101A40007047002800D062B67047FFFF10B5FFF75F
:101A5000F1FF0C4A1468002C10D063691360002B4E
:101A600002D000229A6101E0074A1360FFF7E9FF04
:101A7000002320006377A3689847E8E7FFF7E1FFBA
:101A800010BDC046B8000020BC00002010B5FFF714
:101A9000DDFF10BD164930B50B68002B02D1836005
:101AA000C36009E004681A68944207D20025121B3B
:101AB0008360C560D8601A60086016E002681C6820
:101AC0009968121B026000290CD00C680B00A2421E
:101AD000F4D28160C968A21AC160D860C168886008
:101AE0001A6002E08160C36098600223037530BD14
:101AF000C000002070B5174D2C68002C19D0236849
:101B0000002B02D0013B236013E0A268002A00D022
:101B1000D360002120692A60036821751B682200B8
:101B200098476368002BE7D023602000FFF7B2FFDF
:101B3000E2E7FFF77FFF0022074B1C681A60FFF700
:101B400080FF002C05D0A5682000FFF7A3FF2C0024
:101B5000F7E770BDC0000020D000002010B5034A98
:101B6000136801331360FFF7C5FF10BD3CFEFF1F74
:101B70007047704770477047F8B506000D001700B2
:101B800000243900300000F0B9F80B003733DBB225
:101B9000092901D83031CBB230002B55390000F083
:101BA00027F8061E01D00134EBE72B1958702B00E3
:101BB0005A1B944206DD1A78295D19702A550133A3
:101BC000013CF5E72800F8BD02B471464908490018
:101BD000095C49008E4402BC7047C04603B471469C
:101BE000490840004900095A49008E4403BC704727
:101BF000002243088B4274D303098B425FD3030A4C
:101C00008B4244D3030B8B4228D3030C8B420DD35E
:101C1000FF22090212BA030C8B4202D312120902EC
:101C200065D0030B8B4219D300E0090AC30B8B422A
:101C300001D3CB03C01A5241830B8B4201D38B03D8
:101C4000C01A5241430B8B4201D34B03C01A52417D
:101C5000030B8B4201D30B03C01A5241C30A8B42C0
:101C600001D3CB02C01A5241830A8B4201D38B02AB
:101C7000C01A5241430A8B4201D34B02C01A52414F
:101C8000030A8B4201D30B02C01A5241CDD2C309C1
:101C90008B4201D3CB01C01A524183098B4201D33D
:101CA0008B01C01A524143098B4201D34B01C01A28
:101CB000524103098B4201D30B01C01A5241C308A0
:101CC0008B4201D3CB00C01A524183088B4201D30F
:101CD0008B00C01A524143088B4201D34B00C01AFB
:101CE0005241411A00D20146524110467047FFE767
:101CF00001B5002000F006F802BDC0460029F7D06B
:101D000076E770477047C0461C2101231B049842A8
:101D100001D3000C10391B0A984201D3000A08397C
:101D20001B09984201D30009043902A2105C401833
:101D30007047C046040302020101010100000000D7
:101D4000000000000E4B70B500251E000D4CE41A7B
:101D5000A410A54204D0AB00F35898470135F8E72A
:101D600000F00EF9084B00251E00084CE41AA410E0
:101D7000A54204D0AB00F35898470135F8E770BD91
:101D80008C1F00008C1F00008C1F0000941F00009F
:101D9000002310B59A4203D0CC5CC4540133F9E758
:101DA00010BD03008218934202D019700133FAE784
:101DB0007047FFFF420000F840A00440010000000F
:101DC000420000F844A0044002000000C00000F8F7
:101DD00000C0044001000000000000F8049004402E
:101DE00002000000000000F8089004400400000019
:101DF000C00000F81CC0044080000000C00000F8D3
:101E000010C0044010000000C00000F808C00440EA
:101E100004000000C00000F80CC0044008000000EE
:101E2000800000F80CB0044008000000800000F8BA
:101E300010B0044010000000800000F818B004400A
:101E400040000000800000F81CB00440800000004A
:101E5000800000F814B0044020000000C00000F82A
:101E600004C0044002000000800000F800B00440FC
:101E700001000000400000F800A004400100000044
:101E8000400000F804A0044002000000400000F8F8
:101E90000CA0044008000000400000F808A0044026
:101EA00004000000C00000F814C00440200000003E
:101EB000C00000F818C0044040000000800000F896
:101EC00004B0044002000000800000F808B00440A4
:101ED00004000000020100F850D00440100000008F
:101EE000020100F854D0044020000000030100F873
:101EF00078D00440400000001519151900010000B9
:101F00002AFDFF1F120000000002000054FDFF1F09
:101F100049000000002201009DFDFF1F210000007C
:101F20000021010086FDFF1F0900000000220000C3
:101F3000BEFDFF1F1C0000000021000066FDFF1F0A
:101F4000090000000003000000FEFF1F0000000069
:101F5000010309043CFDFF1F000000000203090407
:101F6000DAFDFF1F000000000303090404FEFF1F49
:101F70000000000000000000000000000000000061
:101F8000F8B5C046F8BC08BC9E467047390400004E
:041F9000D506000072
:041F9400F8B5C04696
:101F980001010000FFFFFFFF0A0412011001000009
:101FA8000040C0168604730201020301180354009E
:101FB800650065006E0073007900640075006900B3
:101FC8006E006F0009024900020100C032090400D6
:101FD800000203000000092111010001221C000772
:101FE80005830340000107050403400001090401BB
:101FF800000203000000092111010001222100074D
:102008000581034000010705020320000206C9FFFD
:102018000904A15C7508150026FF00954009758123
:102028000295200976910295040976B102C006ABA3
:10203800FF0A0002A1017508150026FF0095400956
:10204800018102954009029102C0260354006500EF
:1020580065006E00730079006400750069006E0009
:102068006F002000520061007700480049004400DA
:10207800040309040C030000000000000000000035
:0C2088000000000000000000000000004C
:00000001FF
