:1000000000000320D1010000A917000061170000C3
:100010006117000061170000611700006117000000
:10002000611700006117000061170000A9170000A8
:10003000A917000061170000C1150000C5160000D7
:10004000A9170000A9170000A9170000A9170000B0
:10005000A9170000A9170000A9170000A9170000A0
:10006000A9170000A9170000A9170000A917000090
:10007000A9170000A9170000A9170000A917000080
:10008000A9170000A9170000A9170000A917000070
:10009000A9170000A9170000A9170000A917000060
:1000A000A9170000A9170000A9170000A917000050
:1000B000A9170000A9170000A9170000051C0000DF
:1000C000A9170000E1170000A9170000791F000020
:1000D000A9170000691A0000A9170000A91700005D
:1000E000A9170000A9170000A9170000A917000010
:1000F000A9170000A9170000A9170000A917000000
:10010000A9170000A9170000A9170000A9170000EF
:10011000A91700001D080000A9170000A91700007A
:10012000A9170000A9170000A9170000A9170000CF
:10013000A9170000A9170000A9170000A9170000BF
:10014000A9170000A9170000811E0000A9170000D0
:10015000A9170000A9170000A9170000A91700009F
:10016000A9170000A9170000A9170000A91700008F
:10017000A9170000A9170000A9170000A91700007F
:10018000A9170000A9170000A9170000A91700006F
:10019000A9170000A91700007D1D0000A917000085
:1001A000A9170000A9170000A9170000A91700004F
:1001B000A9170000A9170000A9170000A91700003F
:1001C000A9170000A9170000A9170000A91700002F
:1001D0005A4B4CF2205210B51A804DF628121A8054
:1001E00000BF00BF01F0E4FA554B4FF030621A60D7
:1001F000544A9A60544ADA60544B4FF470021A60C1
:10020000534B544A1A60544A136813F4807304D150
:1002100052490B604FF4A8531360514B1A781107E1
:1002200003D51A7842F008021A704E4B4E49AA22A2
:100230001A704E4A4E4B8B4204D252F8040F43F8C8
:10024000040BF8E74B4B4C4900228B4202D243F897
:10025000042BFAE749494A4A002352F8230041F89F
:1002600023000133742BF8D1464B474A802103F811
:10027000011B9342FBD1454B404A1A60444B8A22F2
:100280001A70A3F5805324225A70A0221A709A790A
:100290009207FCD59A79D406FCD43E4A937903F0B0
:1002A0000C03082B3B4BF9D101221A7148225A71D9
:1002B0009A799006FCD5374A9179364B4906FBD599
:1002C000354A364911600221516020221A709A790C
:1002D00002F00C020C2AFAD1314B324A1A60324B2E
:1002E00045F6BF521A6000225A60072243F8042CD8
:1002F0002E4AC3F80C2D62B600F0CCFF174B1B68DA
:10030000DA0705D52A4800F059FF2A4B2A4A1A6015
:100310002A4B1B785B0609D5264C274B22689A424C
:1003200004D1234800F04AFF0023236001F09CFE23
:1003300001F044FA01F0CAF8FEE700BF0E200540C4
:1003400030800440823F04000100002B88ED00E073
:10035000002008E00300008510D0034014D00340C3
:1003600002D0074000E00740600CFF1FE0240000BF
:100370003007FF1F600CFF1F9C10FF1F0002FF1FB4
:100380000000000000E400E064E400E008ED00E0AC
:1003900000500640004006404480044000003333D3
:1003A00004800440C010050014E000E0000020209C
:1003B0002365345A1CE00340A5C3945A00F007405B
:1003C000FFFFFFFFFFFFFFFFFFFFFFFFFFFFFFFF3D
:1003D000FFFFFFFFFFFFFFFFFFFFFFFFFFFFFFFF2D
:1003E000FFFFFFFFFFFFFFFFFFFFFFFFFFFFFFFF1D
:1003F000FFFFFFFFFFFFFFFFFFFFFFFFFFFFFFFF0D
:10040000FFFFFFFFFFFFFFFFFFFFFFFFDEF9FFFF23
:1004100010B5054C237833B9044B13B10448AFF33E
:1004200000800123237010BD600CFF1F000000003E
:10043000E4240000084B10B51BB108490848AFF38D
:1004400000800848036803B910BD074B002BFBD0A0
:10045000BDE81040184700BF00000000640CFF1FFB
:10046000E4240000600CFF1F0000000001210D20AB
:1004700000F0BCBE2DE9F04F304CDFF8D4B023685B
:10048000DFF8D0A0DFF8D090DFF8D08095B0064636
:100490000193019D274603E000F076F800280BDC6D
:1004A00023680293029B5B1B9E424FF0000104A84D
:1004B000F2D815B0BDE8F08F9DF810100D2001F0B6
:1004C000010100F08DFE9DF811303A6803925A2B1D
:1004D000039DE5D14022002104A801F0EDFD142385
:1004E0008DF8103072B6164B164ACBF800208021DA
:1004F00070221A701A46197013781B06FCD5DAF8A8
:10050000001062B614AB104A43F8501D1868CDF8BD
:100510001100D9F80000CDF81500D8F800000B4BF9
:10052000CDF819001868CDF81D001068CDF821002D
:10053000FA2104A800F06EF8B2E700BF640DFF1FB7
:1005400000000240000007415480044058800440ED
:10055000040002400C000240608004405C800440C3
:1005600008B501210D2000F03BFE4FF47A70FFF733
:1005700081FF0D20002100F033FE4FF47A70BDE8BA
:100580000840FFF777BF00BF2DE9F0411F4D204E17
:100590002B6882B00093009F33786BB380460C4683
:1005A0000AE02B680193019BDB1BA34221D844B3D3
:1005B00000F02AFF3378FBB1042000F077F8002820
:1005C000EFD000F1080300F148021D685C689968EB
:1005D000DE68C8F80C6010339342C8F80050C8F8C1
:1005E0000440C8F8081008F11008EED101F092F8A4
:1005F000402002B0BDE8F0814FF0FF3002B0BDE80E
:10060000F081204602B0BDE8F08100BF640DFF1FFD
:100610005C0DFF1F2DE9F041224C234D236882B071
:100620000093009F2B789BB380460E4609E0236819
:100630000193019BDB1BB3422FD800F0E5FE2B7822
:1006400033B3032000F050F80328F0D801F042F84B
:100650000028ECD008F1400200F10803D8F800505F
:10066000D8F80440D8F80810D8F80C60DE6008F11B
:10067000100890451D605C60996003F11003EDD196
:10068000402404800146032000F086F8204601E063
:100690004FF0FF3002B0BDE8F081002002B0BDE8AD
:1006A000F08100BF640DFF1F5C0DFF1F431E032B75
:1006B00014D872B60A4951F8230068B170B4094CD5
:1006C000058834F81320466841F82360521B24F84B
:1006D000132062B670BC704762B670470020704746
:1006E000D40CFF1F9410FF1F013803280BD872B6DB
:1006F000074B53F8203043B100205B680130002BDA
:10070000FBD162B67047002070471846F9E700BF7A
:10071000280DFF1FF0B472B61A491B4E012311F8C1
:10072000014B194F9A00240742F0010505D556F8F0
:10073000324064B156F83520BAB10133052BEED101
:1007400062B6124B00221A70F0BC00F0E3BF0F4CEF
:100750000F4D217847F8325007EB431308304A1EFB
:100760005860227062B6F0BC70470849094B0A789D
:1007700047F8353007EBC5030830013A58600A7076
:1007800062B6F0E7402400000000FF1F510DFF1F7C
:1007900088004000C8004000431E032B1DD81B4AA0
:1007A000400140F0100030B4104472B6184CE25CC6
:1007B000032A1BD8DFE802F00212151703220D8866
:1007C000E25410F0080F14BFC823882343EA0543FE
:1007D00008310360416062B630BC704708300222C5
:1007E000EDE70522EBE708300422E8E7094A52F872
:1007F000230038B1084A52F82300416042F8231020
:1008000062B6E9E742F82310034AF7E70000FF1F4A
:10081000600DFF1F280DFF1F380DFF1F2DE9F04F42
:10082000DFF810A3DFF810B387B044E0AB4F4FEA16
:10083000930807EBC809013ED9F8042003F0080328
:10084000F6B2A2F1080003F0FF04002B40F0FC8098
:1008500057F838301B0C99B222F8081C002B00F016
:10086000EA809F4B22F8064C42F8044C53F82620AD
:10087000002A00F0CB819B4D55F8263058609A4CE9
:1008800045F8260034F81630194424F8161000F004
:1008900021FF002800F0BE81944A954B19F0080F03
:1008A00000F1080018BF1346C9F8040047F83830B3
:1008B00008238AF800309AF80040E4B261071AD59C
:1008C0008C4B1B78A3B18C490A7802F0FF0322B14C
:1008D000013BDBB20B7003B900BE88490A7802F015
:1008E000FF032AB1013BDBB20B70002B00F06481E7
:1008F00004238AF8003004F0080303F0FF02002B01
:1009000000F0C6809BF80030DBB21E098ED19A0839
:10091000724F57F8321007EBC200C1F3830101395F
:1009200040680C2900F28380DFE801F0787881814B
:10093000818181814281818107000168704D714B05
:1009400040680193694B47F832306F4E686040F25F
:10095000816288B26B4B29600024012190421C60A7
:100960003C61BC61317000F2E980B0F5D06F80F07D
:100970000F82B0F5817F00F0DA8100F26B81802870
:1009800000F00182822840F0D881A8885F4B00F0F7
:100990007F00042800F2D2815D4A80000344147075
:1009A00054701878840740F102831170022174E1B9
:1009B000544B01931A6832B3564B534E564819881C
:1009C0003478057840298E4645F0020828BF4FF05C
:1009D000400E002C84F001043470CEEB01010CBFFA
:1009E0008824C82407EBC80689B285F0010544EACB
:1009F0000E447260198047F838407244057000292F
:100A000066D0019B1A603E4B1A88B2F5A06F0ED1DA
:100A100000219A785970414B1A7008E03849404CCF
:100A20000D68A54200F09980304947F832103D4AE0
:100A3000012313703CE72D4A2D4B19F0080F18BF06
:100A4000134647F8383033E700F064FE364A37493A
:100A500052F82630002B00F0E48058688C5D42F894
:100A6000260003F10802C9F80420032C05D8DFE8AA
:100A700004F02C02292602228A551A8819F0080F40
:100A80000CBF8823C82343EA024347F838300FE7F6
:100A9000E00700F19480210600F1D280A20706D57C
:100AA000234A244913780220DBB213700870E3064E
:100AB00002D5204B10221A7007B0BDE8F08F042237
:100AC0008A55DAE705228A55D7E703228A55D4E703
:100AD000BEF1400F18BF002293E700BF0000FF1FC8
:100AE000D40CFF1F800CFF1F9410FF1FC800400094
:100AF000880040005C0DFF1FE50CFF1F880EFF1FE4
:100B0000480DFF1F7C0CFF1FE40CFF1FC020074097
:100B1000540DFF1F900CFF1F500DFF1F9820074022
:100B20002109000394200740280DFF1F600DFF1FBF
:100B3000882007408020074090200740B0F5106FC4
:100B400000F03E8140F2A28040F62112904240F037
:100B50001C82A44A0123137069E74C68A2498C42A5
:100B60007FF462AF0178A9297FF45EAF417845290F
:100B70007FF45AAF8178C2297FF456AFC1786B29D0
:100B80007FF452AF99489A4E0178347881F001058C
:100B9000002C41F0020105700CBF8820C82084F0B1
:100BA000010447F8310007EBC10192483470002579
:100BB00005244D60047037E700F0F4FF98E68E4B93
:100BC00088488A491A614FF0020E80F800E08B4F86
:100BD0000A708B49196099608A4E8B4D8B4C9A61D3
:100BE0000D213970FF213170DFF848E22970227041
:100BF000874D884A8EF800109F27012406F8047C50
:100C00005D600470DA6007B0BDE8F08F43F826003D
:100C1000814D34E6814A47F8380013780133137068
:100C200046E68B5D032B00F2A78001A252F823F069
:100C3000B1080000B1080000870C0000810C000022
:100C40006E49714B80220D2008701A70A2077FF543
:100C50002EAF25E740F20232904240F08E81AA8802
:100C600002F07F02042A68D86D88002D65D16348A0
:100C7000029192001044027842F00202027048E1B0
:100C800001238B5514E600238B5511E6B0F5086F50
:100C900053D16348634A00781070ED888D4280F02C
:100CA0009B815248047844F0020C07EBCC01402DA4
:100CB000AE464FF0010328BF4FF0400E4A6002EBF2
:100CC0000E09CEEB05014FEA0E4802930025C8221B
:100CD00042EA080384F0010247F83C3035700270A4
:100CE000DFF814C1424BDFF8048151BBBEF1400F65
:100CF0007FF42FAF42F0020207EBC203DFF8F8E007
:100D0000C3F8049095BB0D0445F088059DF80830A4
:100D100033704029047009EB01034EF832507FF420
:100D200018AF0021404A01981180036011E7AA889A
:100D300002F07F02042A40F22D81304B0F221A70FC
:100D400007E74029D6D942F002020CEBC200C0F8F6
:100D500004907DB135489DF808501D70403988F8E1
:100D6000004009F140034CF83200DBE70D0445F088
:100D7000C805CBE72248EEE719F0080F0CBF0223A5
:100D800003238B5594E5274A02211470547084E79D
:100D900027494A68002AD0D06C88B5F804E003E0FF
:100DA0000C314A68002AC8D00B88A342F8D14B887E
:100DB0007345F5D1240A032C0CBF117809896CE71F
:100DC000174A0D4CA978117004F1800502E008342F
:100DD000AC4231D0236A1A06F9D5606A083800F0AF
:100DE00099FCF4E79420074001000400500DFF1F18
:100DF000E40CFF1FE50CFF1F0000FF1FC020074091
:100E00008800400088200740802007409820074045
:100E1000940CFF1FE80CFF1F800CFF1F510DFF1FDC
:100E20005C0DFF1F540DFF1F900CFF1FC8004000FA
:100E3000442400008C2007406F49704B704A029197
:100E40007049714D714C059603954FF00009884625
:100E500016461D460494286828B1446800F05AFCE0
:100E60002046002CF9D100232B60039B30681A46E2
:100E7000002342F8293028B1446800F04BFC20469A
:100E8000002CF9D100223260029A98F80030114605
:100E9000002241F8042B049A0291023B4FF000011A
:100EA00022F81910032B07D8DFE803F047024702A6
:100EB0004FF0010388F8003009F10109B9F1040F7E
:100EC00005F1040506F1040608F10108C3D1504BF1
:100ED000059EDFF85491DFF8548100211970012537
:100EE00018F8013B09F8043B1B072BD4AC0044F075
:100EF000020244F00304002347F8323047F834304C
:100F0000444B994505F10105EAD13378029383F00A
:100F100001050021894688468E460A463E480478E7
:100F200044F0020C07EBCC030393029B002B039BC2
:100F30005A600CBF8822C822CAE64FF0000388F826
:100F40000030B9E700F0C6FBAC0007EB451300F139
:100F50000802002837D05A60304B47F8343000F090
:100F6000B9FB44F0010307EBC30200F1080100B331
:100F700051602B4A47F83320B9E7B0F5A06F7FF4F2
:100F8000DCAE012300250293C3E740F62122904204
:100F9000F7D0D2E66D88002D7FF4CFAE21480291C4
:100FA00092001044027822F002020270B1E702219E
:100FB00073E6174B44F001021B7847F83200144ADD
:100FC0000133137093E7124B114A1B78AC000133C5
:100FD00047F834001370C2E740298E464FF00103F2
:100FE00028BF4FF0400ECEEB01014FEA0E4802EB56
:100FF0000E090025029391E7380DFF1FD40CFF1F47
:10100000280DFF1F600DFF1F800CFF1F9410FF1F96
:10101000510DFF1FD4200740500DFF1F88004000D6
:10102000C8004000C0200740C42007404024000002
:101030002DE9F843244C00F0C9FC002204F188009B
:1010400023461A605A60083383424FF00001F8D1FA
:101050001E481F4A0368DFF890E01E4F1E4D1F4ECA
:10106000DFF88880DFF888C0DFF8889043F48023B9
:10107000036013681A4843F040731360C4F30723F6
:101080008EF80030C4F307433B70240EFF2302F5B3
:10109000C9222C7002F5847288F80030114D8CF84A
:1010A00000303370012389F8003070268EF8641008
:1010B0004FF40014102107F82C3C2E7004601170BE
:1010C0000EF1640EBDE8F8830000FF1F3480044079
:1010D00000D80040B0200740B4200740102007404F
:1010E00004E100E035E400E09C2007408020074058
:1010F000882007409420074010B4114B53F830204B
:1011000092F8804234B1012379B182F880305DF8E1
:10111000044B704703EBC0035B681A6851B922F0B7
:1011200002021A605DF8044B704782F800315DF8E6
:10113000044B704742F003021A605DF8044B70479D
:10114000402200001C4A02EBC00301295B6811D059
:1011500004291BD052F83000002280F8802229B1E7
:10116000022920D0032922D01A6070474FF48072E0
:101170001A60704752F830004FF4A27280F8801263
:101180001A601A6822F020021A60704752F8301074
:101190004FF4A272012081F880021A601A6842F0AE
:1011A00020021A60704740F203121A6070474FF431
:1011B00081721A60704700BF4022000030B4054BB6
:1011C000054D064C002210211A602A60206019602B
:1011D00030BC704714D0034004D0034000D003401B
:1011E0003F2801D8FFF788BF704700BF3F2801D8CC
:1011F000FFF7A8BF704700BF2DE9F843054672B658
:10120000204F214B214A1B683C68126862B652018C
:1012100002D5322B88BF013495B3C3F5BB431C4EB6
:10122000DFF86490DFF864803F334FF47A72A6FBF6
:10123000031302FB04F404EB131472B6D9F8001084
:101240003A68D8F800E062B6C1F5BB433F33A6FB6D
:1012500003031EF0806FC4EB13134FF47A7002D0B7
:10126000322988BF013200FB0233B3F57A7F04D301
:10127000013D05D004F57A74DFE700F0C5F8DCE73E
:10128000BDE8F883640DFF1F18E000E004ED00E006
:10129000ABAAAAAAF8B5514B5148524D524ADFF8B1
:1012A00060C1DFF860E1514E514C524F4FF0006188
:1012B00019604FF0805119604FF0005119604FF0E4
:1012C000804119604FF0004119600021016028231E
:1012D0004BF6FF70CCF80000CEF800302B600EF516
:1012E000012E13603360236006F500263B6004F591
:1012F0000024AB6207F50027936205F5012502F58E
:10130000012206F6E87604F6E87407F57F671032E6
:101310000EF1100E203533602360CEF800303B60B4
:1013200013602B60344DBB61936108222A60A7F5DE
:10133000002705F58055203F083539602860BB60DF
:10134000EB6047F8042C05F5FD2507F5FE2704376B
:1013500005F2FC7529603860AB60FB6045F8042C31
:10136000154405F6FC75C7F8FC1F2860A5F5E125B6
:10137000A5F2DC7533602360C7F8F82F2868A4F560
:10138000E224103C40F40070286020681B4D0CF5EE
:10139000102C0CF6FC7C0EF57F4E07F5883706F511
:1013A00080360EF1EC0E40F00070043708362060F5
:1013B000CCF8001047F6FF71CEF800103B603360A8
:1013C0002A6000F093FA3220FFF716FFFFF730FE95
:1013D0004FF4AF70BDE8F840FFF70EBF04E100E046
:1013E00004800340148003401C8003402480034099
:1013F0002C800340348003400080034000900C4068
:10140000088003400C80034038B52C4C237803B18E
:1014100038BD0123237000F093FB002842D100F077
:10142000E1FB00283BD100F0CBF9002834D100F0DB
:1014300093FD70BB00F008FB40BB00F011FD10BB3A
:1014400000F08CFCE0B900232370EFF30583002B40
:10145000DED1EFF3108172B6194B186828B3194C1E
:10146000227812BB45691D60012323700DB3AA6168
:1014700001B962B600254577836898472570C7E7AC
:1014800000F0E6FDDFE700F0E5FDD9E700F0EAFD5A
:10149000D3E700F0E3FDCDE700F0DEFDC7E700F0A5
:1014A000DFFDC0E700F01AF8B9E70029B0D162B655
:1014B00038BD054B1D600029DCD1DAE7680DFF1F40
:1014C0007C0DFF1F800DFF1F780DFF1F08B5FEF775
:1014D000CDFFFFF745F8FFF797FFFAE7704700BF2A
:1014E00010B4EFF3108272B6437F33B9017F012944
:1014F00008D0032910D00123437702B962B65DF802
:10150000044B7047114C2168A1B1114943610B682C
:10151000836108605861EEE70E4C216881B10E4985
:1015200043610B688361086058610C4B4FF0805138
:101530001960E0E7064B4161816120601860DAE7DD
:10154000054B4161816120601860EEE77C0DFF1F53
:10155000780DFF1F6C0DFF1F700DFF1F04ED00E0E5
:1015600010B4047F4160022CC26003D05DF8044BCC
:10157000FFF7B6BF83685DF8044B184770B5EFF30B
:10158000108272B60C4C206880B10C4E0025436965
:10159000236073B19D6102B962B64577836898474D
:1015A000EFF3108272B620680028F0D102B962B65B
:1015B00070BD3360EFE700BF6C0DFF1F700DFF1FA4
:1015C000FFF7DCBF184A30B41468002C27D003683A
:1015D00021688B420ED2CB1A00218460C160236047
:1015E000E06010600223037530BC704711688B42C5
:1015F000144608D3A2685B1A0360002AF6D1826001
:10160000C460A060EEE7D268C2608460E060C56834
:10161000CB1A0222A8602360027530BC7047846038
:10162000C4601060DEE700BF740DFF1FF8B5224EE6
:1016300034682CB32368002B3AD1204F1D4604E0B8
:101640003468ECB12368002B32D1A36803B1DD60AC
:1016500020693360036825751B68BB4221D1037F75
:101660004560022BC46020D0FFF73AFF6368002B6F
:10167000E6D023602046FFF7A5FF3468002CE1D1B7
:10168000EFF3108372B60E4A00211068116003B99F
:1016900062B628B18468FFF795FF20460028F9D18B
:1016A000F8BD224600219847E0E783689847DDE7C8
:1016B000013B2360E4E700BF740DFF1F61150000CC
:1016C000840DFF1F024A136801331360FFF7AEBF9A
:1016D000640DFF1F72B60D480268B2FA82F30B2B3D
:1016E00010DC4FF00041D94022EA0102026062B6EC
:1016F000074803EBC303DB00C2180021C1501046AA
:101700005160704762B60020704700BF3007FF1F6E
:10171000D003FF1F0D4B0E4AC31AA2FB03231B0964
:101720000B2B0CD80B4A127852B972B60A484FF0FC
:101730000041026821FA03F31A43026062B670475F
:10174000064A1278002AF0D0FEF7E4BFD003FF1F4C
:10175000398EE338510DFF1F3007FF1F5C0DFF1F4F
:1017600008B5104C08E0236859050DD423681A0504
:101770000FD42368DB0411D423685803F3D5FFF793
:101780004DF823685905F1D500F03CFA23681A0595
:10179000EFD500F025F82368DB04EDD500F0ECFB75
:1017A000EAE700BF3480044008B5FFF7D9FF00BF67
:1017B000014B10221A80704700200540704700BF7F
:1017C000054A064B10781B78C0B2DBB2984238BF8E
:1017D0004030C01A704700BFF80DFF1F8D0DFF1F6E
:1017E000F0B4384B1A7912F0300F2CD072B6997DC4
:1017F00001F0FF0200293DD062B6334F33493878FB
:101800000D78334E1C46C0B2EDB2431C402BE1793B
:1018100028BF0023AB4202F1FF32C9B21CBFF15412
:10182000184612F0FF02F0D12A4B1B68C2B23A7080
:101830004BB1A84236BFC5F14005401B40192728CF
:10184000C4BF01221A701F49CA78D2B2150616D435
:1018500052060DD51B4B1B795B0609D51E4B1F4944
:101860001B6800220A7003B11A70164B3C22DA7012
:10187000F0BC70474022D9795A7462B6E3E70B791D
:101880001C06E5D5164B174E1C783378E4B2DBB254
:101890009C420ED0144D01E0A3420AD00133282B04
:1018A00028BF00230879E85CC0B2C871087D07280A
:1018B000F2D9DBB2034933700B79180644BF7C239D
:1018C000CB70C5E700B00640F80DFF1F8D0DFF1F60
:1018D000B80DFF1F880DFF1FFC0DFF1F8C0DFF1F94
:1018E000000EFF1FF90DFF1F900DFF1F30B4294898
:1018F000294A2A4B2A4D6024E121047011701B787B
:10190000284C082B30D00A2B2748284937D00C2BDD
:101910000CBF34223C2212232A60236002600B6039
:10192000234B24491B78244ABBB101230B6013606D
:10193000224B23491B78234A012B26D9042B0FD98C
:10194000082B1ED9102B94BF862387230B601360AE
:101950001D4B01221A7030BC70470B601360E7E723
:1019600084230B601360F3E700F58E200F490830E5
:10197000002213232A60236002600B60D0E7382224
:10198000F7E785230B601360E2E780230B601360A9
:10199000DEE700BF00400740014007403407FF1F5B
:1019A00008B003400CB0034008B00B400CB00B4033
:1019B000020EFF1F20B0034020B00B403507FF1F71
:1019C00024B0034024B00B40010EFF1F72B6184A2A
:1019D000184B19491160702280211A701A4619702B
:1019E00013781B06FCD510B5144B84B0186862B68A
:1019F000134B144C984298BF00EB800001A998BF8C
:101A000040000A2200F084F901A92046002311F8C1
:101A1000012B01333AB10A2B20F8022FF7D11623FC
:101A2000237004B010BD5B00DBB2237004B010BDA6
:101A30000400024000000240000007410C00024088
:101A40007F9698001C08FF1F054A064B10781B78EC
:101A5000C0B2DBB2984238BF4030C01A704700BFF6
:101A6000080EFF1F090EFF1F30B42B4B1A79940686
:101A70001FD52A48DA790378294901333F2B0978A1
:101A8000C8BF00238B42D2B203D0264CD9B2E25455
:101A90000170254A116861B1244A1278D2B293428A
:101AA00036BFC2F140029B1A9B18272BC4BF0123EB
:101AB0000B70194AD378DBB2180611D45A060DD52B
:101AC000154B1B795B0609D5194B1A491B68002277
:101AD0000A7003B11A70104B2C22DA7030BC7047B8
:101AE00011790906EAD5144910480C780178C9B271
:101AF0008C420DD04A1C272A84BF00210A460F4D74
:101B0000054C98BFD1B2AA5CD2B2E2710170D5E7A0
:101B10006C21D170D2E700BF00D00640080EFF1F35
:101B2000090EFF1F340EFF1F040EFF1F750EFF1F4F
:101B3000780EFF1F740EFF1F7C0EFF1F0C0EFF1F81
:101B400038B5164D2868E0B101884488A14213DDFC
:101B500003191B7A83B104F10803C2180C1B00237C
:101B600002E012F8011F21B10133A342F9D120464E
:101B700038BD1C46204638BDFFF7CCFD002028604C
:101B800038BD074B1B780BB9002038BD0220FEF78B
:101B90008DFD28600028D7D1F6E700BF840EFF1F17
:101BA0005C0DFF1F0D4B1B78BBB910B50C4C2168A9
:101BB00003F0FF024B883F2B07DC07330B4401F196
:101BC000470003F8012F8342FBD140230B80012003
:101BD000FEF7E2FD0023236010BD70477D0EFF1F5E
:101BE000800EFF1F054A064B10781B78C0B2DBB28F
:101BF000984238BF4030C01A704700BF900EFF1F98
:101C0000910EFF1FF0B4384B1A7912F0300F2CD020
:101C100072B6997D01F0FF0200293DD062B6334FC4
:101C2000334938780D78334E1C46C0B2EDB2431CB0
:101C3000402BE17928BF0023AB4202F1FF32C9B249
:101C40001CBFF154184612F0FF02F0D12A4B1B685A
:101C5000C2B23A704BB1A84236BFC5F14005401B35
:101C600040192728C4BF01221A701F49CA78D2B26E
:101C7000150616D452060DD51B4B1B795B0609D5EC
:101C80001E4B1F491B6800220A7003B11A70164BC5
:101C90003C22DA70F0BC70474022D9795A7462B69F
:101CA000E3E70B791C06E5D5164B174E1C78337805
:101CB000E4B2DBB29C420ED0144D01E0A3420AD044
:101CC0000133402B28BF00230879E85CC0B2C871FB
:101CD000087D0728F2D9DBB2034933700B79180667
:101CE00044BF7C23CB70C5E700A00640900EFF1FC9
:101CF000910EFF1FD40EFF1F8C0EFF1F180FFF1F2A
:101D0000140FFF1F1C0FFF1F150FFF1F940EFF1F47
:101D1000F0B44D1E2E46002400E00134B0FBF2F377
:101D200002FB1300092800F130078ABF3730F8B2F0
:101D3000C0B206F8010F1846002BEED10A195370F5
:101D40004CB1107815F8016F28700133E01A834206
:101D500002F80169F5DB0846F0BC7047054A064BFE
:101D600010781B78C0B2DBB2984238BF4030C01A3E
:101D7000704700BF240FFF1F250FFF1F30B42C4BEF
:101D80005A6894021FD52B48DA6803782A49013330
:101D90003F2B0978C8BF00238B4204D0274CD2B216
:101DA000D9B2E2540170264A116861B1254A12780D
:101DB000D2B2934236BFC2F140029B1A9B18272B26
:101DC000C4BF01230B701A4A9368180202D55268E7
:101DD000110211D45A020DD5154B5B685B0209D56F
:101DE000194B1A491B6800220A7003B11A70184B6C
:101DF00000221A6030BC7047164A124910780A78DF
:101E0000D2B290420DD00132272A84BF0020024670
:101E1000114D074C98BFD0B2AA5CD2B2E2600870F4
:101E2000D8E70E480A4A0024012104601160D1E776
:101E300000400C40240FFF1F250FFF1F500FFF1FF6
:101E4000200FFF1F910FFF1F940FFF1F900FFF1F09
:101E500058018843980FFF1F280FFF1F5C0188431C
:101E6000054A064B10781B78C0B2DBB2984238BFE7
:101E70004030C01A704700BFA00FFF1FA10FFF1F07
:101E800030B42B4B1A7994061FD52A48DA79037897
:101E9000294901333F2B0978C8BF00238B42D2B2B6
:101EA00003D0264CD9B2E2540170254A116861B1C1
:101EB000244A1278D2B2934236BFC2F140029B1A32
:101EC0009B18272BC4BF01230B70194AD378DBB2B0
:101ED000180611D45A060DD5154B1B795B0609D58A
:101EE000194B1A491B6800220A7003B11A70104B73
:101EF0002C22DA7030BC704711790906EAD51449F2
:101F000010480C780178C9B28C420DD04A1C272A9F
:101F100084BF00210A460F4D054C98BFD1B2AA5C80
:101F2000D2B2E2710170D5E76C21D170D2E700BF67
:101F300000A00E40A00FFF1FA10FFF1FCC0FFF1F1F
:101F40009C0FFF1F0D10FF1F1010FF1F0C10FF1F15
:101F50001410FF1FA40FFF1F054A064B10781B78B3
:101F6000C0B2DBB2984238BF4030C01A704700BFE1
:101F70001C10FF1F1D10FF1F30B42B4B1A79940645
:101F80001FD52A48DA790378294901333F2B09788C
:101F9000C8BF00238B42D2B203D0264CD9B2E25440
:101FA0000170254A116861B1244A1278D2B2934275
:101FB00036BFC2F140029B1A9B18272BC4BF0123D6
:101FC0000B70194AD378DBB2180611D45A060DD516
:101FD000154B1B795B0609D5194B1A491B68002262
:101FE0000A7003B11A70104B2C22DA7030BC7047A3
:101FF00011790906EAD5144910480C780178C9B25C
:102000008C420DD04A1C272A84BF00210A460F4D5E
:10201000054C98BFD1B2AA5CD2B2E2710170D5E78B
:102020006C21D170D2E700BF00C006401C10FF1F1A
:102030001D10FF1F4810FF1F1810FF1F8910FF1FE2
:102040008C10FF1F8810FF1F9010FF1F2010FF1F14
:10205000704700BF704700BF704700BF704700BFA8
:10206000704700BF704700BF70B50F4E0F4D761B15
:10207000B61018BF002405D0013455F8043B98472A
:10208000A642F9D10A4E0B4D761B00F01FFAB6108E
:1020900018BF002406D0013455F8043B9847A642E7
:1020A000F9D170BD70BD00BFD8240000D824000055
:1020B000E0240000D824000070B4840746D0541EE9
:1020C000002A41D0CDB2034602E0621EE4B31446BA
:1020D00003F8015B9A07F8D1032C2ED9CDB245EA5B
:1020E00005250F2C45EA054519D903F110022646AE
:1020F000103E0F2E42F8105C42F80C5C42F8085C6F
:1021000042F8045C02F11002F2D8A4F1100222F0AD
:102110000F0204F00F041032032C13440DD91E4695
:102120002246043A032A46F8045BFAD8221F22F01A
:1021300003020432134404F003042CB1C9B21C445A
:1021400003F8011BA342FBD170BC70471446034641
:10215000C2E700BF024B13B1024800F005B8704758
:102160000000000075210000002301461A461846B1
:1021700000F014B838B5074D074C2C1BA41005D03F
:10218000013C55F8043D9847002CF9D1BDE8384092
:1021900000F0A6B900000000000000002DE9F047A3
:1021A000254C2568D5F8484106468846924699460A
:1021B000C4B360681F2817DC431C76B104EB8005AC
:1021C0000122C5F888A0D4F8881182401143022E5C
:1021D000C4F88811C5F808911ED00230636044F835
:1021E00020800020BDE8F087144B03B34FF4C87083
:1021F000AFF300800446D0B1D5F84831002780E81D
:102200008800C5F8484138460123C4F88871C4F8ED
:102210008C71002EE1D0D1E7D4F88C110A43C4F8B8
:102220008C21DAE705F5A674C5F84841C1E74FF0FF
:10223000FF30BDE8F08700BFC824000000000000A8
:102240004008FE4340A004404408FE4344A004402C
:102250000018FE4300C004403000FE4330900440AC
:102260003400FE43349004401C18FE431CC004405C
:102270001018FE4310C004400818FE4308C0044074
:102280000C18FE430CC004400C10FE430CB004407C
:102290001010FE4310B004401810FE4318B0044064
:1022A0001C10FE431CB004401410FE4314B0044044
:1022B0000418FE4304C004400010FE4300B0044074
:1022C0000008FE4300A004400408FE4304A00440AC
:1022D0000C08FE430CA004400808FE4308A004407C
:1022E0001418FE4314C004401818FE4318C00440DC
:1022F0000410FE4304B004400810FE4308B004403C
:102300006820FE4368D004401400FE43149004404B
:102310003800FE43389004403C00FE433C900440AB
:102320004000FE43409004404808FE4348A004405B
:102330004C08FE434CA004402808FE4328A004405B
:102340002C08FE432CA004406020FE4360D00440D3
:102350006420FE4364D004402010FE4320B00440BB
:102360002410FE4324B004402810FE4328B004404B
:102370002C10FE432CB004404400FE434490044023
:102380007000FE43709004407400FE43749004405B
:102390006800FE43689004405008FE4350A004408B
:1023A0005808FE4358A004405C08FE435CA004406B
:1023B0005408FE4354A004402018FE4320C00440AB
:1023C0002418FE4324C004401008FE4310A004401B
:1023D0001408FE4314A004403818FE4338C00440DB
:1023E0003418FE4334C004403018FE4330C004406B
:1023F0003C18FE433CC004402C18FE432CC0044053
:102400002820FE4328D004402C20FE432CD004403A
:102410000020FE4300D004400420FE4304D00440CA
:102420000820FE4308D004400C20FE430CD004409A
:102430001020FE4310D004401420FE4314D004406A
:1024400015191519000100003807FF1F12000000C0
:10245000000200006407FF1F490000000022010085
:10246000B007FF1F21000000002101009607FF1F99
:102470000900000000220000D407FF1F1C0000001C
:10248000002100007607FF1F090000000003000084
:102490001808FF1F00000000010309044C07FF1F7C
:1024A0000000000002030904F007FF1F0000000005
:1024B000030309041C08FF1F0000000000000000C7
:1024C00000000000000000003808FF1FF8B500BF42
:1024D000F8BC08BC9E46704755210000350400003A
:0424E000F8B500BF8C
:1024E400FFFFFFFF0A040000120101010000004089
:1024F400C016860400020102030100001803540000
:10250400650065006E007300790064007500690061
:102514006E006F0009024900020100C03209040084
:10252400000203000000092111010001221C000720
:102534000583034000010705040340000109040169
:1025440000020300000009211101000122210007FB
:10255400058103400001070502032000020000007A
:1025640006C9FF0904A15C7508150026FF00954003
:102574000975810295200976910295040976B102C4
:10258400C000000006ABFF0A0002A1017508150097
:1025940026FF00954009018102954009029102C07D
:1025A40026035400650065006E0073007900640022
:1025B400750069006E006F00200052006100770012
:1025C4004800490044000000040309040C0300000F
:1025D40000000000000000000000000000000000F7
:1025E400000000000000000000000000240BFF1F9A
:1025F4008C0BFF1FF40BFF1F000000000000000005
:1026040000000000000000000000000000000000C6
:1026140000000000000000000000000000000000B6
:1026240000000000000000000000000000000000A6
:102634000000000000000000000000000000000096
:102644000000000000000000000000000000000086
:102654000000000000000000000000000000000076
:102664000000000000000000000000000000000066
:102674000000000000000000000000000000000056
:102684000000000000000000000000000000000046
:1026940001000000000000000E33CDAB34126DE6E3
:1026A400ECDE05000B00000000000000000000004C
:1026B4000000000000000000000000000000000016
:1026C4000000000000000000000000000000000006
:1026D40000000000000000000000000000000000F6
:1026E40000000000000000000000000000000000E6
:00000001FF
