:1000000000180020C1000000851200004912000005
:100010004912000049120000491200004912000074
:100020004912000049120000491200008512000028
:100030008512000049120000C9160000991700003F
:100040008512000085120000851200008512000054
:100050008512000085120000851200008512000044
:100060008512000085120000851200008512000034
:10007000B51500004D130000B114000085120000FA
:100080008512000085120000851200008512000014
:100090008512000085120000851200008512000004
:1000A000D5090000851200008512000085120000AD
:1000B00085120000851200008512000085120000E4
:1000C000F8B501F0E3F80821474A484B1A60484A5E
:1000D000484B1A60484A494B1A60494B1A780A4201
:1000E00002D01A780A431A702A22464B46481A70E0
:1000F00000234649464C1A188A4203D2E558043375
:100100001560F8E70021434B434A934201D202C3F2
:10011000FBE70023414A424958589446985004331B
:10012000C02BF9D100210326FF2580248A083D4BEE
:100130009200D2180B002F003340DB009F40106864
:100140000131B84307002000984003003B4313608F
:100150002029EBD16246344B1A608A22334B1A7045
:10016000334B663A5A707C321A709E3A9979114232
:10017000FCD0102299791142FCD10C209A792C499B
:100180000240082AFAD1053A0A713D324A71203AF2
:1001900099791142FCD0402299791142FCD0C021BA
:1001A000244A890511602021214A117014399A7955
:1001B0000A400C2AFBD1204A204B1A60204A214BCE
:1001C0001A600022204B1A60204B07321A60204A26
:1001D000204B1A6062B600F0D1FA01F0A5FB01F0E5
:1001E0005BF800F02DFFFEE7300004F0348004409F
:1001F000823F0000388004400100000F3C80044032
:1002000002D0074000E0074020FDFF1F18FEFF1F3F
:10021000781B000018FEFF1FCC00002000F9FF1F14
:100220000000000000E400E008ED00E0005006409F
:100230000040064044800440C0000505048004409E
:10024000BF5D000014E000E018E000E010E000E016
:100250000000202020ED00E0FFFFFFFFFFFFFFFF79
:10026000FFFFFFFFFFFFFFFFFFFFFFFFFFFFFFFF9E
:10027000FFFFFFFFFFFFFFFFFFFFFFFFFFFFFFFF8E
:10028000FFFFFFFFFFFFFFFFFFFFFFFFFFFFFFFF7E
:10029000FFFFFFFFFFFFFFFFFFFFFFFFFFFFFFFF6E
:1002A000FFFFFFFFFFFFFFFFFFFFFFFFFFFFFFFF5E
:1002B000FFFFFFFFFFFFFFFFFFFFFFFFFFFFFFFF4E
:1002C000FFFFFFFFFFFFFFFFFFFFFFFFFFFFFFFF3E
:1002D000FFFFFFFFFFFFFFFFFFFFFFFFFFFFFFFF2E
:1002E000FFFFFFFFFFFFFFFFFFFFFFFFFFFFFFFF1E
:1002F000FFFFFFFFFFFFFFFFFFFFFFFFFFFFFFFF0E
:10030000FFFFFFFFFFFFFFFFFFFFFFFFFFFFFFFFFD
:10031000FFFFFFFFFFFFFFFFFFFFFFFFFFFFFFFFED
:10032000FFFFFFFFFFFFFFFFFFFFFFFFFFFFFFFFDD
:10033000FFFFFFFFFFFFFFFFFFFFFFFFFFFFFFFFCD
:10034000FFFFFFFFFFFFFFFFFFFFFFFFFFFFFFFFBD
:10035000FFFFFFFFFFFFFFFFFFFFFFFFFFFFFFFFAD
:10036000FFFFFFFFFFFFFFFFFFFFFFFFFFFFFFFF9D
:10037000FFFFFFFFFFFFFFFFFFFFFFFFFFFFFFFF8D
:10038000FFFFFFFFFFFFFFFFFFFFFFFFFFFFFFFF7D
:10039000FFFFFFFFFFFFFFFFFFFFFFFFFFFFFFFF6D
:1003A000FFFFFFFFFFFFFFFFFFFFFFFFFFFFFFFF5D
:1003B000FFFFFFFFFFFFFFFFFFFFFFFFFFFFFFFF4D
:1003C000FFFFFFFFFFFFFFFFFFFFFFFFFFFFFFFF3D
:1003D000FFFFFFFFFFFFFFFFFFFFFFFFFFFFFFFF2D
:1003E000FFFFFFFFFFFFFFFFFFFFFFFFFFFFFFFF1D
:1003F000FFFFFFFFFFFFFFFFFFFFFFFFFFFFFFFF0D
:10040000FFFFFFFFFFFFFFFFFFFFFFFFDEF9FFFF23
:1004100010B5064C2378002B07D1054B002B02D0DA
:10042000044800E000BF0123237010BD18FEFF1F29
:1004300000000000781B0000084B10B5002B03D013
:100440000749084800E000BF07480368002B00D1B7
:1004500010BD064B002BFBD09847F9E700000000C9
:100460001CFEFF1F781B000018FEFF1F000000008D
:1004700010B501210D2000F00DF910BD72B67022EB
:100480004121084B1A70084A1170084A323911701C
:1004900080221A701A7852B2002AFBDA044B1868CC
:1004A00062B67047000002400700024006000240AA
:1004B00008000240F0B50700234D95B02B6801936A
:1004C000019E2B680293029B9B1B9F4239D904AC6F
:1004D0000021200000F052F80028F2DD01232178ED
:1004E0000D20194000F0B6F82B6803936378039E43
:1004F0005A2BE6D140220021200001F044FA1023BB
:100500002370FFF7BBFF0090112069460422684466
:1005100001F030FA152004220C49684401F02AFA4F
:10052000192004220A49684401F024FA1D200422FB
:100530000849684401F01EFAFA21200000F052F840
:10054000BFE715B0F0BDC04634FEFF1F6080044019
:100550005C8004405880044010B5FA240121A400B6
:100560000D2000F077F82000FFF7A4FF00210D20F8
:1005700000F070F82000FFF79DFF10BDF0B50700F8
:100580000C00164E85B033680293029B0193144B06
:100590001B78002B1BD0042000F076F9051E0BD130
:1005A0003368019A0393039B9B1AA34212D8002C31
:1005B00011D000F04DFDEAE701004022083138007B
:1005C00001F0D8F9280000F0EFFD402004E0012000
:1005D000404201E000E0200005B0F0BD34FEFF1F06
:1005E00017FFFF1FF0B506000F00184D85B02B68F0
:1005F0000293029B0193164B1B78002B1FD0032004
:1006000000F05CF9032809D92B68019A0393039B36
:100610009B1ABB4216D800F01BFDECE700F0A6FDCC
:10062000041EF1D0402531002A00083001F0A2F963
:1006300003202580210000F08FF9280003E001202D
:10064000404200E0002005B0F0BDC04634FEFF1F70
:1006500017FFFF1F10B51A2818D80C2358430C4A4F
:10066000835810181C7D027A224205D0002901D03F
:100670001A710BE01A7209E043681A68002902D067
:1006800003210A4301E002218A431A6010BDC046DB
:1006900098190000F0B51A282FD80C2217004743EC
:1006A000164CE5196B682600012901D0042911D1E7
:1006B000504334583018257D027A20202A43227571
:1006C000A22252001A601A68042901D1024313E0E1
:1006D000824311E038592C7A027DA24302758022B0
:1006E000002908D0022902D10422FF3204E00022AE
:1006F000032901D1812252001A60F0BD981900002F
:1007000072B60C4B1A680C4B18680C4B1B6862B61F
:100710005B0104D5322393429B415B42C018084BD6
:100720009A1A084B5A43FA239B005843920D10180B
:100730007047C04618E000E034FEFF1F04ED00E003
:10074000BF5D0000ABAA020070B50400FFF7D8FF40
:100750000500002C0FD0FFF7D3FF074B401B98423A
:1007600006D9013C002C06D0FA239B00ED18F2E7D5
:1007700000F06EFCEFE770BDE703000080221E4B27
:10078000D20510B51A608022002012061A601B4B99
:100790001B4918601B4B1C4A1960282313601B4A15
:1007A0001B4C13601B4A13601B4A13601B4A1360E7
:1007B0001B4A1360092222601A4C20601A4C2160E7
:1007C0001A4C23601A4C23601A4C22601A4C206089
:1007D0001A4801601A490B601A490B601A4B1A60DB
:1007E00000F05CFD3220FFF7AFFF00F0D1FBAF203F
:1007F0004000FFF7A9FF10BD00E100E004800340C6
:10080000FFBF0000088003400C80034014800340B9
:10081000008003401C800340248003402C80034060
:100820003480034004900340089003400C90034040
:10083000149003400090034004A0034008A003402C
:100840000CA0034014A0034000A003400223F0B515
:100850000A4A0B4E1478C8272343DB00F51868605A
:1008600008480578002D00D1403F09040F43F75098
:1008700001235D405C4005701470F0BDA0FEFF1FB9
:1008800000F8FF1F18FFFF1F431E10B50020032BA9
:100890000ED872B6074A99008858002807D04468D5
:1008A0005B008C50044904885A5A121B5A5262B693
:1008B00010BDC04690FEFF1FC4000020431E002054
:1008C000032B09D872B6054A9B009B58002B02D017
:1008D00001305B68FAE762B67047C046E4FEFF1F6E
:1008E000F8B572B60123174A082594461E0016492A
:1008F00064465A1EA25C2A421AD05F017C589A00B4
:10090000002C05D1CB1908305860104BCB5109E0B1
:100910003243D2005458002C0AD18B18083058604A
:100920000B4B8B500B4A1378013B137062B608E0F7
:100930000133052BDCD162B60022064B1A7000F0A1
:1009400033FCF8BDDC1A000000F8FF1F88004000EF
:10095000C80040000EFFFF1F421E10B5032A30D80A
:10096000022380001843174BC0001B1872B6164CA8
:10097000A05C03280BD800F019FF1604020705201D
:1009800012E0083302200FE0083304200CE00F4887
:10099000920014580E4B002C01D1115001E09858D0
:1009A000416099500CE00320A0540A0008325A60BC
:1009B000C822180700D4403A098809040A431A607B
:1009C00062B610BD00F8FF1F4CFEFF1FE4FEFF1FC4
:1009D000F4FEFF1FF7B5BA4B1C781D000423E4B2E8
:1009E0001C421DD0B74B1B78002B16D0B64A13788B
:1009F000DBB2002B05D0013BDBB21370002B00D122
:100A000000BEB24A1378DBB2002B06D0013BDBB24A
:100A10001370002B01D100F01FFD0422A84B1A70A7
:100A20000822224000D14AE2A94BAA4F1B78DBB230
:100A30009C08E4001D093C19002D00D0D0E122687B
:100A400063689006000F01380C2800D9C4E100F05B
:100A5000B7FE81018101C301C301C301C301C30109
:100A6000C301A001C301C301C3010D001A689A4E5E
:100A70005B689A49736000230B60012198483260DB
:100A80002060984C92B22170974C3B61BB61019001
:100A9000A24218D8D020C000824200D3E1E08120D9
:100AA0004000824200D1BDE006D8802A00D1A3E0F8
:100AB000822A00D1A5E0E9E08C4B9A4200D1C0E047
:100AC000FF33FF3313E090231B019A4213D009D860
:100AD000803B9A4200D0D9E07A4B854C1B7823703A
:100AE0000B00D9E0834B9A4200D130E1824B9A420D
:100AF00000D1CFE0CAE03C003D00B278714B203419
:100B00001A70A03580222368134203D06068083829
:100B100000F04AFB0834AC42F4D100242500774BA6
:100B2000E058002805D04368009300F03DFB009892
:100B3000F7E7724B1851724BE050724BE0580028A7
:100B400005D04368009300F02FFB0098F7E76D4B4A
:100B50006D4A18516D4BE0506B00D0526C4BE85C05
:100B60000238032807D800F021FE02040204002204
:100B700000E001225A5501350434042DCFD1002361
:100B80000124644D2B70644B6449621EE3188A5C37
:100B90009B001A7008231A4220D000F0E7FA630184
:100BA000002805D0FA18083050605D4AFA5003E07A
:100BB000F8502B7801332B7000F0D8FA0122A300F3
:100BC0001343DB00002805D0FA1808305060019A62
:100BD000FA5003E0F8502B789B182B700221002369
:100BE000A2001143C9007B5003210A438A4001340B
:100BF000BB50052CC7D14EE03D4C237063700223DF
:100C00004AE07F22B0880240042A3FD8384C920044
:100C100023706370434BD218022312781A423BD0E0
:100C2000217039E07F23B2881A40042A2ED87388B5
:100C3000002B2BD102203B4992005218117881439E
:100C40000DE07F23B2881A40042A1FD87388002B36
:100C50001CD10220334992005218117801431170BF
:100C600019E07288B188304B5C68002C0ED018886F
:100C7000904209D15888884206D1120A032A01D12C
:100C8000237809E01B8907E00C33EDE70F22254BA1
:100C90001A705CE000231C00F5889D4200D91D00FD
:100CA0002E00402D00D9402620003100FFF7CEFD58
:100CB000A419AD1B3AD12F00402E3BD047E0C046CF
:100CC0008020074017FFFF1FA1FEFF1F9CFFFF1F93
:100CD0009020074000F8FF1F04FFFF1F38FEFF1F92
:100CE000C800400018FFFF1F81060000020300003B
:100CF0000FFFFF1F21090000210A000090FEFF1FC7
:100D00003CFEFF1FE4FEFF1FC4000020F4FEFF1F97
:100D10004CFEFF1F0EFFFF1F30C80110DC1A000041
:100D200088004000C0200740E01A00004027AF4282
:100D300000D92F0020003900FFF788FDE419ED1BD2
:100D400001D1402F03D1794B1C60794B1D800122CA
:100D5000784B40E0784A79491068884216D1784942
:100D600052688A4212D11A78A92A0FD15A78452A94
:100D70000CD19A78C22A09D1DB786B2B06D10021DD
:100D8000704BBD3A08001A70FFF760FD6E4B236090
:100D900022E0664F3E68002E13D0654B1C8825006C
:100DA000402C00D9402529003000FFF74FFD641B7F
:100DB0005F4BA4B21C80002C01D1402D00D17419CE
:100DC0003C60A0225C4BD2001988914204D10022E1
:100DD0005A709A785D4B1A700122564B1A706AE06D
:100DE00008226068013D0838EDB2134037D000F0AA
:100DF000DBF95749A8004258564B002A1CD05668C8
:100E000046501100585D0831616003280BD800F08E
:100E1000CDFC02040608032104E0022102E00521C2
:100E200000E0042159550821C8230C4200D1403B61
:100E30001288120413433DE0585D032808D800F0DF
:100E4000B5FC3A3A0204002200E001225A5532E091
:100E500008221440621E944102345C552BE0226843
:100E6000110C8AB2028000291ED03B4943804360A6
:100E7000AB005F58394E002F01D1585001E0F158B6
:100E8000486037496D00F0506B5AD2186A5200F032
:100E90006DF9002802D00830606005E0314A20601A
:100EA00013780133137006E008231C4201D12E4B46
:100EB00000E0254B236008222C4B1A708BE50120A3
:100EC00004421ED002231B49274C0B70284B294E8D
:100ED0001A70294B1C609C60284C1A61DC600D2440
:100EE0009A615E60264B1C70FF23264C2370174CC2
:100EF0002B702270244A13709F22244B1A700870A2
:100F000013E063B2002B04DA0D221D4B1A7080230C
:100F10002B700222144204D01A490B78DBB20B70FA
:100F20002A7010231C4200D02B70F7BD38FEFF1F23
:100F30000CFFFF1F9420074004FFFF1F210900033F
:100F400001000400A1FEFF1FC800400098200740D8
:100F5000E4FEFF1F4CFEFF1F90FEFF1F3CFEFF1F25
:100F6000C40000200EFFFF1F8800400080200740C3
:100F7000A0FEFF1F50FEFF1F00F8FF1FA4FEFF1F73
:100F8000C0200740882007408C200740842007406D
:100F900010B500F0AFF8002211001B4BD15098188B
:100FA00008324160882AF9D180201849C0020A68B5
:100FB00002430A601A0A1649D2B20A701A0C15497D
:100FC000D2B20A70144A1B0E1370FF23134A00207A
:100FD0001370134A13491370134A137001220A70D5
:100FE0001249087012490A70124A116899430B009D
:100FF00070210B43136080220F4B52041A601022A1
:101000000E4B1A7010BDC04600F8FF1F348004401C
:101010009C200740B0200740B420074080200740B4
:1010200088200740942007401020074000210740F7
:101030008420074018E400E000E100E008210740B8
:1010400010B5FFF715FAFFF787FA00F001F8FAE795
:1010500070B5234C2378002B40D10133237000F06E
:10106000D1F9002801D000F043F800F093FA0028ED
:1010700001D000F0FBFA00F059F9002801D000F08F
:10108000F7FA00F005FA002801D000F0F0FA00238A
:101090002370EFF30583002B20D1EFF3108272B69B
:1010A000104D2868002803D00F4C2178002903D068
:1010B000002A13D162B611E00123237043692B602B
:1010C000002B01D0996101E008490B60002A00D192
:1010D00062B60025836845779847257070BDC04685
:1010E00019FFFF1FB8000020BC000020B400002042
:1010F0007047FFFF30B585B072B670224121154BA5
:101100001A70154A1170154A3239117080221A70FE
:101110001A7852B2002AFBDA114B186862B6114BEA
:10112000984201D80A23584301AC0A22210000F05A
:1011300063F800230C48E15C0500002905D05A0043
:101140008218013351800A2BF5D101335B002B70DB
:1011500005B030BD0000024007000240060002401A
:10116000080002407F969800FAFDFF1F70B572B626
:101170000B4D2C68200000F0B9FB0B2802DD62B695
:1011800000200CE080231B06C3409C432C6062B609
:1011900048235843034B181800230360436070BD75
:1011A00010FEFF1FC0F9FF1F10B504000E484821B4
:1011B000201A00F00FFB0B2814D80C4B1B78002BC7
:1011C00007D00B4B1B78002B03D02000FFF788FBC8
:1011D00008E072B680231B06C340064A11680B4321
:1011E000136062B610BDC046C0F9FF1F0EFFFF1F9F
:1011F00017FFFF1F10FEFF1FF8B506000D001700B8
:1012000000243900300000F06BFB0B003733DBB2F9
:10121000092901D83031CBB230002B55390000F00C
:10122000D9FA061E01D00134EBE72B1958702B00B8
:101230005A1B944206DD1A78295D19702A5501332C
:10124000013CF5E72800F8BD70B580258026ED0249
:10125000F6000B4C23682B4201D0FFF7BBFB236841
:10126000334201D000F0A6F923681B0501D500F038
:101270006DF82368DB04ECD500F01AF9E9E7C04605
:101280003480044010B5FFF7DFFFFFFF0022014B61
:101290001A607047008104407047FFFF1B4B1C4AD7
:1012A00019781C4B082901D1002102E00A2903D139
:1012B0002E311160132206E00C2901D1283100E003
:1012C0003C21116012221A60134B1A78134B002A2A
:1012D00001D0002200E001221A60114B1A78114B54
:1012E000012A01D880220CE0042A01D8842208E0D7
:1012F000082A01D8852204E0102A01D8862200E0BD
:1013000087221A600122084B1A70704714FEFF1FD3
:1013100008B003400CB003401BFFFF1F20B0034088
:1013200015FEFF1F24B003401AFFFF1F054B18785E
:10133000054BC0B21A78D3B2984200D24030C01ADE
:101340007047C04687FFFF1F1DFFFF1F30B5234AB0
:1013500013799B0611D5224BD479187819000130E6
:10136000E4B200233F2800DC03001E4800788342DB
:1013700003D01D48C454DBB20B70D1781748C9B2F2
:101380004BB2002B17DA03795BB2002B13DA174B41
:10139000174C1D782378DBB29D4202D16C23C370B9
:1013A00009E00133272B00D900231248C05CDBB2CF
:1013B000C0B2D0712370402319420ED01179194266
:1013C0000BD000210C4B19700C4B1B688B4202D0C8
:1013D0000B49097819722C23D37030BD00B0064038
:1013E00087FFFF1F1DFFFF1F46FFFF1F90FFFF1F0F
:1013F00088FFFF1F1EFFFF1F1CFFFF1F8CFFFF1F2B
:1014000086FFFF1F70B5124C2368002B04D02068A4
:1014100042880188130010E00E4B1B78002B03D08C
:101420000220FFF731FA20602568002DEFD10CE093
:10143000C618367A002E03D001339D1A8B42F7DB93
:10144000002D02D1FFF7B0FE2560280070BDC04618
:1014500098FFFF1F17FFFF1F10B50B4B1B78DBB268
:10146000002B0FD1094C21684A883F2A03DC8818D9
:1014700003720132F9E7402301200B80FFF76CFA79
:101480000023236010BDC04691FFFF1F94FFFF1F84
:10149000054B1878054BC0B21A78D3B2984200D2E7
:1014A0004030C01A7047C04610000020A5FFFF1F43
:1014B00030B52C4A13799B0623D52B4BD479187859
:1014C00019000130E4B200233F2800DC0300274864
:1014D0000078834203D02648C454D8B20870254906
:1014E000086800280DD024490978C9B28B4201D37D
:1014F0005B1A01E05B1A4033272B02DD1F4B1B7880
:101500000371D1781748C9B24BB2002B17DA0379AF
:101510005BB2002B13DA1A4B174C1D782378DBB221
:101520009D4202D16C23C37009E00133272B00D9FF
:1015300000231448C05CDBB2C0B2D07123704023DA
:1015400019420ED0117919420BD000210E4B19709F
:101550000E4B1B688B4202D00D49097819722C235F
:10156000D37030BD00C0064010000020A5FFFF1F53
:10157000CFFFFF1FA0FFFF1F11000020CEFFFF1FA6
:1015800018000020A6FFFF1FA4FFFF1F140000206B
:101590000F000020054B1878054BC0B21A78D3B263
:1015A000984200D24030C01A7047C0469C000020CC
:1015B0001A00002030B5234A13799B0611D5224B1F
:1015C000D479187819000130E4B200233F2800DCF8
:1015D00003001E480078834203D01D48C454DBB288
:1015E0000B70D1781748C9B24BB2002B17DA0379C8
:1015F0005BB2002B13DA174B174C1D782378DBB244
:101600009D4202D16C23C37009E001333F2B00D906
:1016100000231248C05CDBB2C0B2D07123704023FB
:1016200019420ED0117919420BD000210C4B1970C0
:101630000C4B1B688B4202D00B49097819722C2382
:10164000D37030BD00A006409C0000201A0000208E
:101650005B000020A40000209D0000201B00002053
:1016600019000020A00000209B0000207047704758
:101670007047EFF3108072B643425841C0B27047D2
:10168000002800D062B6704710B5FFF7F2FF0C4A91
:101690001468002C10D063691360002B02D0002264
:1016A0009A6101E0074A1360FFF7EAFF0023200078
:1016B0006377A3689847E8E7FFF7E2FF10BDC046ED
:1016C000A8000020AC00002010B5FFF7DDFF10BD22
:1016D000164930B50B68002B02D18360C36009E066
:1016E00004681A68944207D20025121B8360C56003
:1016F000D8601A60086016E002681C689968121BBE
:10170000026000290CD00C680B00A242F4D2816068
:10171000C968A21AC160D860C16888601A6002E016
:101720008160C36098600223037530BDB000002063
:1017300070B5174D2C68002C19D02368002B02D0EF
:10174000013B236013E0A268002A00D0D36000218F
:1017500020692A60036821751B6822009847636826
:10176000002BE7D023602000FFF7B2FFE2E7FFF78E
:1017700080FF0022074B1C681A60FFF781FF002CD6
:1017800005D0A5682000FFF7A3FF2C00F7E770BD88
:10179000B0000020C000002010B5034A13680133D8
:1017A0001360FFF7C5FF10BD34FEFF1F02B4714682
:1017B00049084900095C49008E4402BC7047C04694
:1017C00003B47146490840004900095A49008E4453
:1017D00003BC7047002243088B4274D303098B4239
:1017E0005FD3030A8B4244D3030B8B4228D3030CF1
:1017F0008B420DD3FF22090212BA030C8B4202D393
:101800001212090265D0030B8B4219D300E0090ABA
:10181000C30B8B4201D3CB03C01A5241830B8B42C3
:1018200001D38B03C01A5241430B8B4201D34B03AC
:10183000C01A5241030B8B4201D30B03C01A524111
:10184000C30A8B4201D3CB02C01A5241830A8B4296
:1018500001D38B02C01A5241430A8B4201D34B027F
:10186000C01A5241030A8B4201D30B02C01A5241E3
:10187000CDD2C3098B4201D3CB01C01A5241830997
:101880008B4201D38B01C01A524143098B4201D3D1
:101890004B01C01A524103098B4201D30B01C01AFC
:1018A0005241C3088B4201D3CB00C01A5241830876
:1018B0008B4201D38B00C01A524143088B4201D3A3
:1018C0004B00C01A5241411A00D201465241104603
:1018D0007047FFE701B5002000F006F802BDC046E2
:1018E0000029F7D076E770477047C0461C210123D6
:1018F0001B04984201D3000C10391B0A984201D3F3
:10190000000A08391B09984201D30009043902A2D0
:10191000105C40187047C046040302020101010137
:1019200000000000000000000E4B70B500251E00F6
:101930000D4CE41AA410A54204D0AB00F35898470C
:101940000135F8E700F00EF9084B00251E00084CA1
:10195000E41AA410A54204D0AB00F358984701350F
:10196000F8E770BD701B0000701B0000701B0000CA
:10197000741B0000002310B59A4203D0CC5CC45401
:101980000133F9E710BD03008218934202D01970A9
:101990000133FAE77047FFFF420000F840A004401F
:1019A00001000000420000F844A0044002000000D2
:1019B000C00000F800C0044001000000000000F872
:1019C0000490044002000000000000F80890044069
:1019D00004000000C00000F81CC0044080000000AB
:1019E000C00000F810C0044010000000C00000F863
:1019F00008C0044004000000C00000F80CC004400F
:101A000008000000800000F80CB00440080000004E
:101A1000800000F810B0044010000000800000F8C2
:101A200018B0044040000000800000F81CB00440E2
:101A300080000000800000F814B004402000000086
:101A4000C00000F804C0044002000000800000F85C
:101A500000B0044001000000400000F800A0044075
:101A600001000000400000F804A004400200000053
:101A7000400000F80CA0044008000000400000F8FE
:101A800008A0044004000000C00000F814C0044096
:101A900020000000C00000F818C004404000000012
:101AA000800000F804B0044002000000800000F84C
:101AB00008B0044004000000020100F850D00440C7
:101AC00010000000020100F854D004402000000083
:101AD000030100F878D004404000000015191519E2
:101AE0000001000020FDFF1F1200000000020000A6
:101AF0004AFDFF1F490000000022010093FDFF1F67
:101B000021000000002101007CFDFF1F09000000F2
:101B100000220000B4FDFF1F1C0000000021000097
:101B20005CFDFF1F0900000000030000F6FDFF1F21
:101B3000000000000103090432FDFF1F0000000047
:101B400002030904D0FDFF1F000000000303090485
:101B5000FAFDFF1F00000000000000000000000070
:101B600000000000F8B5C046F8BC08BC9E467047AF
:041B70003904000034
:041B7400F8B5C046BA
:101B78001201010100000040C016860400020102A3
:101B8800030118035400650065006E0073007900B6
:101B98006400750069006E006F00090249000201C7
:101BA80000C03209040000020300000009211101ED
:101BB8000001221C000705830340000107050403F8
:101BC800400001090401000203000000092111017D
:101BD80000012221000705810340000107050203D7
:101BE80020000206C9FF0904A15C7508150026FF3C
:101BF800009540097581029520097691029504099E
:101C080076B102C006ABFF0A0002A10175081500F3
:101C180026FF00954009018102954009029102C002
:101C280026035400650065006E00730079006400A7
:101C3800750069006E006F00200052006100770097
:101C4800480049004400040309040C030000000094
:101C5800000000000000000000000000000000007C
:081C6800FFFFFFFF0A0400006A
:00000001FF
